{
	"contracts/Certificate.sol": {
		"CertificateManager": {
			"abi": [
				{
					"inputs": [],
					"stateMutability": "nonpayable",
					"type": "constructor"
				},
				{
					"anonymous": false,
					"inputs": [
						{
							"indexed": true,
							"internalType": "bytes32",
							"name": "certificateId",
							"type": "bytes32"
						},
						{
							"indexed": false,
							"internalType": "string",
							"name": "title",
							"type": "string"
						},
						{
							"indexed": false,
							"internalType": "string",
							"name": "recipientName",
							"type": "string"
						},
						{
							"indexed": false,
							"internalType": "uint256",
							"name": "issueDate",
							"type": "uint256"
						},
						{
							"indexed": false,
							"internalType": "uint256",
							"name": "expiredDate",
							"type": "uint256"
						},
						{
							"indexed": false,
							"internalType": "address",
							"name": "issuer",
							"type": "address"
						}
					],
					"name": "CertificateIssued",
					"type": "event"
				},
				{
					"anonymous": false,
					"inputs": [
						{
							"indexed": true,
							"internalType": "bytes32",
							"name": "certificateId",
							"type": "bytes32"
						},
						{
							"indexed": false,
							"internalType": "enum CertificateManager.CertificateStatus",
							"name": "newStatus",
							"type": "uint8"
						},
						{
							"indexed": false,
							"internalType": "address",
							"name": "updater",
							"type": "address"
						}
					],
					"name": "CertificateStatusUpdated",
					"type": "event"
				},
				{
					"inputs": [
						{
							"internalType": "string",
							"name": "_recipientName",
							"type": "string"
						},
						{
							"internalType": "string",
							"name": "_nonce",
							"type": "string"
						}
					],
					"name": "generateCertificateId",
					"outputs": [
						{
							"internalType": "bytes32",
							"name": "",
							"type": "bytes32"
						}
					],
					"stateMutability": "pure",
					"type": "function"
				},
				{
					"inputs": [
						{
							"internalType": "bytes32",
							"name": "_certificateId",
							"type": "bytes32"
						}
					],
					"name": "getCertificate",
					"outputs": [
						{
							"internalType": "string",
							"name": "title",
							"type": "string"
						},
						{
							"internalType": "string",
							"name": "name",
							"type": "string"
						},
						{
							"internalType": "uint256",
							"name": "issueDate",
							"type": "uint256"
						},
						{
							"internalType": "enum CertificateManager.CertificateStatus",
							"name": "status",
							"type": "uint8"
						},
						{
							"internalType": "uint256",
							"name": "expiredDate",
							"type": "uint256"
						}
					],
					"stateMutability": "view",
					"type": "function"
				},
				{
					"inputs": [
						{
							"internalType": "bytes32",
							"name": "_certificateId",
							"type": "bytes32"
						},
						{
							"internalType": "string",
							"name": "_title",
							"type": "string"
						},
						{
							"internalType": "string",
							"name": "_recipientName",
							"type": "string"
						},
						{
							"internalType": "uint256",
							"name": "_expiredDate",
							"type": "uint256"
						}
					],
					"name": "issueCertificate",
					"outputs": [],
					"stateMutability": "nonpayable",
					"type": "function"
				},
				{
					"inputs": [],
					"name": "owner",
					"outputs": [
						{
							"internalType": "address",
							"name": "",
							"type": "address"
						}
					],
					"stateMutability": "view",
					"type": "function"
				},
				{
					"inputs": [
						{
							"internalType": "bytes32",
							"name": "_certificateId",
							"type": "bytes32"
						},
						{
							"internalType": "enum CertificateManager.CertificateStatus",
							"name": "_newStatus",
							"type": "uint8"
						}
					],
					"name": "updateCertificateStatus",
					"outputs": [],
					"stateMutability": "nonpayable",
					"type": "function"
				},
				{
					"inputs": [
						{
							"internalType": "bytes32",
							"name": "_certificateId",
							"type": "bytes32"
						}
					],
					"name": "verifyCertificate",
					"outputs": [
						{
							"internalType": "string",
							"name": "title",
							"type": "string"
						},
						{
							"internalType": "string",
							"name": "name",
							"type": "string"
						},
						{
							"internalType": "uint256",
							"name": "issueDate",
							"type": "uint256"
						},
						{
							"internalType": "enum CertificateManager.CertificateStatus",
							"name": "status",
							"type": "uint8"
						},
						{
							"internalType": "uint256",
							"name": "expiredDate",
							"type": "uint256"
						},
						{
							"internalType": "bool",
							"name": "isValid",
							"type": "bool"
						}
					],
					"stateMutability": "view",
					"type": "function"
				}
			],
			"devdoc": {
				"kind": "dev",
				"methods": {
					"generateCertificateId(string,string)": {
						"details": "Membuat ID unik dari nama penerima dan string acak (nonce)",
						"params": {
							"_nonce": "String unik/acak untuk mencegah duplikasi.",
							"_recipientName": "Nama penerima sertifikat."
						},
						"returns": {
							"_0": "bytes32 ID sertifikat yang di-hash."
						}
					},
					"getCertificate(bytes32)": {
						"details": "Mendapatkan data sertifikat lengkap berdasarkan ID. (Fungsi READ ONLY)",
						"params": {
							"_certificateId": "ID sertifikat."
						},
						"returns": {
							"expiredDate": "Tanggal kadaluarsa.",
							"issueDate": "Tanggal diterbitkan.",
							"name": "Nama penerima.",
							"status": "Status sertifikat.",
							"title": "Judul sertifikat."
						}
					},
					"issueCertificate(bytes32,string,string,uint256)": {
						"details": "Menerbitkan dan menyimpan sertifikat baru ke dalam blockchain.",
						"params": {
							"_certificateId": "ID sertifikat unik yang dihasilkan dari fungsi di atas.",
							"_expiredDate": "Tanggal kadaluarsa sertifikat (timestamp).",
							"_recipientName": "Nama penerima.",
							"_title": "Judul sertifikat (contoh: \"Workshop HTML\")."
						}
					},
					"updateCertificateStatus(bytes32,uint8)": {
						"details": "Mengubah status sertifikat (hanya owner yang bisa).",
						"params": {
							"_certificateId": "ID sertifikat yang akan diubah statusnya.",
							"_newStatus": "Status baru (Publish atau Revoke)."
						}
					},
					"verifyCertificate(bytes32)": {
						"details": "Memverifikasi keberadaan sertifikat dan mengembalikan data lengkap. (Fungsi READ ONLY)",
						"params": {
							"_certificateId": "ID sertifikat yang akan diverifikasi."
						},
						"returns": {
							"expiredDate": "Tanggal kadaluarsa.",
							"isValid": "True jika sertifikat valid dan belum kadaluarsa.",
							"issueDate": "Tanggal diterbitkan.",
							"name": "Nama penerima.",
							"status": "Status sertifikat (Publish/Revoke).",
							"title": "Judul sertifikat."
						}
					}
				},
				"version": 1
			},
			"evm": {
				"assembly": "    /* \"contracts/Certificate.sol\":60:6295  contract CertificateManager {... */\n  mstore(0x40, 0x80)\n    /* \"contracts/Certificate.sol\":1172:1223  constructor() {... */\n  callvalue\n  dup1\n  iszero\n  tag_1\n  jumpi\n  revert(0x00, 0x00)\ntag_1:\n  pop\n    /* \"contracts/Certificate.sol\":1205:1215  msg.sender */\n  caller\n    /* \"contracts/Certificate.sol\":1197:1202  owner */\n  0x01\n  0x00\n    /* \"contracts/Certificate.sol\":1197:1215  owner = msg.sender */\n  0x0100\n  exp\n  dup2\n  sload\n  dup2\n  0xffffffffffffffffffffffffffffffffffffffff\n  mul\n  not\n  and\n  swap1\n  dup4\n  0xffffffffffffffffffffffffffffffffffffffff\n  and\n  mul\n  or\n  swap1\n  sstore\n  pop\n    /* \"contracts/Certificate.sol\":60:6295  contract CertificateManager {... */\n  dataSize(sub_0)\n  dup1\n  dataOffset(sub_0)\n  0x00\n  codecopy\n  0x00\n  return\nstop\n\nsub_0: assembly {\n        /* \"contracts/Certificate.sol\":60:6295  contract CertificateManager {... */\n      mstore(0x40, 0x80)\n      callvalue\n      dup1\n      iszero\n      tag_1\n      jumpi\n      revert(0x00, 0x00)\n    tag_1:\n      pop\n      jumpi(tag_2, lt(calldatasize, 0x04))\n      shr(0xe0, calldataload(0x00))\n      dup1\n      0x07e56310\n      eq\n      tag_3\n      jumpi\n      dup1\n      0x7fca072e\n      eq\n      tag_4\n      jumpi\n      dup1\n      0x850c1768\n      eq\n      tag_5\n      jumpi\n      dup1\n      0x8da5cb5b\n      eq\n      tag_6\n      jumpi\n      dup1\n      0xf1141ce0\n      eq\n      tag_7\n      jumpi\n      dup1\n      0xf333fe08\n      eq\n      tag_8\n      jumpi\n    tag_2:\n      revert(0x00, 0x00)\n        /* \"contracts/Certificate.sol\":2374:3301  function issueCertificate(... */\n    tag_3:\n      tag_9\n      0x04\n      dup1\n      calldatasize\n      sub\n      dup2\n      add\n      swap1\n      tag_10\n      swap2\n      swap1\n      tag_11\n      jump\t// in\n    tag_10:\n      tag_12\n      jump\t// in\n    tag_9:\n      stop\n        /* \"contracts/Certificate.sol\":1746:2004  function generateCertificateId(string memory _recipientName, string memory _nonce) public pure returns (bytes32) {... */\n    tag_4:\n      tag_13\n      0x04\n      dup1\n      calldatasize\n      sub\n      dup2\n      add\n      swap1\n      tag_14\n      swap2\n      swap1\n      tag_15\n      jump\t// in\n    tag_14:\n      tag_16\n      jump\t// in\n    tag_13:\n      mload(0x40)\n      tag_17\n      swap2\n      swap1\n      tag_18\n      jump\t// in\n    tag_17:\n      mload(0x40)\n      dup1\n      swap2\n      sub\n      swap1\n      return\n        /* \"contracts/Certificate.sol\":4487:5433  function verifyCertificate(bytes32 _certificateId) public view returns (... */\n    tag_5:\n      tag_19\n      0x04\n      dup1\n      calldatasize\n      sub\n      dup2\n      add\n      swap1\n      tag_20\n      swap2\n      swap1\n      tag_21\n      jump\t// in\n    tag_20:\n      tag_22\n      jump\t// in\n    tag_19:\n      mload(0x40)\n      tag_23\n      swap7\n      swap6\n      swap5\n      swap4\n      swap3\n      swap2\n      swap1\n      tag_24\n      jump\t// in\n    tag_23:\n      mload(0x40)\n      dup1\n      swap2\n      sub\n      swap1\n      return\n        /* \"contracts/Certificate.sol\":630:650  address public owner */\n    tag_6:\n      tag_25\n      tag_26\n      jump\t// in\n    tag_25:\n      mload(0x40)\n      tag_27\n      swap2\n      swap1\n      tag_28\n      jump\t// in\n    tag_27:\n      mload(0x40)\n      dup1\n      swap2\n      sub\n      swap1\n      return\n        /* \"contracts/Certificate.sol\":3525:3990  function updateCertificateStatus(bytes32 _certificateId, CertificateStatus _newStatus) public onlyOwner {... */\n    tag_7:\n      tag_29\n      0x04\n      dup1\n      calldatasize\n      sub\n      dup2\n      add\n      swap1\n      tag_30\n      swap2\n      swap1\n      tag_31\n      jump\t// in\n    tag_30:\n      tag_32\n      jump\t// in\n    tag_29:\n      stop\n        /* \"contracts/Certificate.sol\":5801:6292  function getCertificate(bytes32 _certificateId) public view returns (... */\n    tag_8:\n      tag_33\n      0x04\n      dup1\n      calldatasize\n      sub\n      dup2\n      add\n      swap1\n      tag_34\n      swap2\n      swap1\n      tag_21\n      jump\t// in\n    tag_34:\n      tag_35\n      jump\t// in\n    tag_33:\n      mload(0x40)\n      tag_36\n      swap6\n      swap5\n      swap4\n      swap3\n      swap2\n      swap1\n      tag_37\n      jump\t// in\n    tag_36:\n      mload(0x40)\n      dup1\n      swap2\n      sub\n      swap1\n      return\n        /* \"contracts/Certificate.sol\":2374:3301  function issueCertificate(... */\n    tag_12:\n        /* \"contracts/Certificate.sol\":1374:1379  owner */\n      0x01\n      0x00\n      swap1\n      sload\n      swap1\n      0x0100\n      exp\n      swap1\n      div\n      0xffffffffffffffffffffffffffffffffffffffff\n      and\n        /* \"contracts/Certificate.sol\":1360:1379  msg.sender == owner */\n      0xffffffffffffffffffffffffffffffffffffffff\n      and\n        /* \"contracts/Certificate.sol\":1360:1370  msg.sender */\n      caller\n        /* \"contracts/Certificate.sol\":1360:1379  msg.sender == owner */\n      0xffffffffffffffffffffffffffffffffffffffff\n      and\n      eq\n        /* \"contracts/Certificate.sol\":1352:1432  require(msg.sender == owner, \"Only the contract owner can perform this action.\") */\n      tag_39\n      jumpi\n      mload(0x40)\n      0x08c379a000000000000000000000000000000000000000000000000000000000\n      dup2\n      mstore\n      0x04\n      add\n      tag_40\n      swap1\n      tag_41\n      jump\t// in\n    tag_40:\n      mload(0x40)\n      dup1\n      swap2\n      sub\n      swap1\n      revert\n    tag_39:\n        /* \"contracts/Certificate.sol\":2667:2668  0 */\n      0x00\n        /* \"contracts/Certificate.sol\":2622:2634  certificates */\n      0x00\n        /* \"contracts/Certificate.sol\":2622:2650  certificates[_certificateId] */\n      0x00\n        /* \"contracts/Certificate.sol\":2635:2649  _certificateId */\n      dup7\n        /* \"contracts/Certificate.sol\":2622:2650  certificates[_certificateId] */\n      dup2\n      mstore\n      0x20\n      add\n      swap1\n      dup2\n      mstore\n      0x20\n      add\n      0x00\n      keccak256\n        /* \"contracts/Certificate.sol\":2622:2655  certificates[_certificateId].name */\n      0x01\n      add\n        /* \"contracts/Certificate.sol\":2616:2663  bytes(certificates[_certificateId].name).length */\n      dup1\n      sload\n      tag_43\n      swap1\n      tag_44\n      jump\t// in\n    tag_43:\n      swap1\n      pop\n        /* \"contracts/Certificate.sol\":2616:2668  bytes(certificates[_certificateId].name).length == 0 */\n      eq\n        /* \"contracts/Certificate.sol\":2608:2703  require(bytes(certificates[_certificateId].name).length == 0, \"Certificate ID already exists.\") */\n      tag_45\n      jumpi\n      mload(0x40)\n      0x08c379a000000000000000000000000000000000000000000000000000000000\n      dup2\n      mstore\n      0x04\n      add\n      tag_46\n      swap1\n      tag_47\n      jump\t// in\n    tag_46:\n      mload(0x40)\n      dup1\n      swap2\n      sub\n      swap1\n      revert\n    tag_45:\n        /* \"contracts/Certificate.sol\":2797:2812  block.timestamp */\n      timestamp\n        /* \"contracts/Certificate.sol\":2782:2794  _expiredDate */\n      dup2\n        /* \"contracts/Certificate.sol\":2782:2812  _expiredDate > block.timestamp */\n      gt\n        /* \"contracts/Certificate.sol\":2774:2852  require(_expiredDate > block.timestamp, \"Expired date must be in the future.\") */\n      tag_48\n      jumpi\n      mload(0x40)\n      0x08c379a000000000000000000000000000000000000000000000000000000000\n      dup2\n      mstore\n      0x04\n      add\n      tag_49\n      swap1\n      tag_50\n      jump\t// in\n    tag_49:\n      mload(0x40)\n      dup1\n      swap2\n      sub\n      swap1\n      revert\n    tag_48:\n        /* \"contracts/Certificate.sol\":2931:3147  Certificate({... */\n      mload(0x40)\n      dup1\n      0xa0\n      add\n      0x40\n      mstore\n      dup1\n        /* \"contracts/Certificate.sol\":2965:2971  _title */\n      dup5\n        /* \"contracts/Certificate.sol\":2931:3147  Certificate({... */\n      dup2\n      mstore\n      0x20\n      add\n        /* \"contracts/Certificate.sol\":2992:3006  _recipientName */\n      dup4\n        /* \"contracts/Certificate.sol\":2931:3147  Certificate({... */\n      dup2\n      mstore\n      0x20\n      add\n        /* \"contracts/Certificate.sol\":3032:3047  block.timestamp */\n      timestamp\n        /* \"contracts/Certificate.sol\":2931:3147  Certificate({... */\n      dup2\n      mstore\n      0x20\n      add\n        /* \"contracts/Certificate.sol\":3070:3095  CertificateStatus.Publish */\n      0x00\n        /* \"contracts/Certificate.sol\":2931:3147  Certificate({... */\n      0x01\n      dup2\n      gt\n      iszero\n      tag_51\n      jumpi\n      tag_52\n      tag_53\n      jump\t// in\n    tag_52:\n    tag_51:\n      dup2\n      mstore\n      0x20\n      add\n        /* \"contracts/Certificate.sol\":3123:3135  _expiredDate */\n      dup3\n        /* \"contracts/Certificate.sol\":2931:3147  Certificate({... */\n      dup2\n      mstore\n      pop\n        /* \"contracts/Certificate.sol\":2900:2912  certificates */\n      0x00\n        /* \"contracts/Certificate.sol\":2900:2928  certificates[_certificateId] */\n      0x00\n        /* \"contracts/Certificate.sol\":2913:2927  _certificateId */\n      dup7\n        /* \"contracts/Certificate.sol\":2900:2928  certificates[_certificateId] */\n      dup2\n      mstore\n      0x20\n      add\n      swap1\n      dup2\n      mstore\n      0x20\n      add\n      0x00\n      keccak256\n        /* \"contracts/Certificate.sol\":2900:3147  certificates[_certificateId] = Certificate({... */\n      0x00\n      dup3\n      add\n      mload\n      dup2\n      0x00\n      add\n      swap1\n      dup2\n      tag_54\n      swap2\n      swap1\n      tag_55\n      jump\t// in\n    tag_54:\n      pop\n      0x20\n      dup3\n      add\n      mload\n      dup2\n      0x01\n      add\n      swap1\n      dup2\n      tag_56\n      swap2\n      swap1\n      tag_55\n      jump\t// in\n    tag_56:\n      pop\n      0x40\n      dup3\n      add\n      mload\n      dup2\n      0x02\n      add\n      sstore\n      0x60\n      dup3\n      add\n      mload\n      dup2\n      0x03\n      add\n      exp(0x0100, 0x00)\n      dup2\n      sload\n      dup2\n      0xff\n      mul\n      not\n      and\n      swap1\n      dup4\n      0x01\n      dup2\n      gt\n      iszero\n      tag_57\n      jumpi\n      tag_58\n      tag_53\n      jump\t// in\n    tag_58:\n    tag_57:\n      mul\n      or\n      swap1\n      sstore\n      pop\n      0x80\n      dup3\n      add\n      mload\n      dup2\n      0x04\n      add\n      sstore\n      swap1\n      pop\n      pop\n        /* \"contracts/Certificate.sol\":3211:3225  _certificateId */\n      dup4\n        /* \"contracts/Certificate.sol\":3193:3293  CertificateIssued(_certificateId, _title, _recipientName, block.timestamp, _expiredDate, msg.sender) */\n      0x7c2d7d6cc87e3265a341a03245e1c8404113171fcaf3750b66d74d614a49932f\n        /* \"contracts/Certificate.sol\":3227:3233  _title */\n      dup5\n        /* \"contracts/Certificate.sol\":3235:3249  _recipientName */\n      dup5\n        /* \"contracts/Certificate.sol\":3251:3266  block.timestamp */\n      timestamp\n        /* \"contracts/Certificate.sol\":3268:3280  _expiredDate */\n      dup6\n        /* \"contracts/Certificate.sol\":3282:3292  msg.sender */\n      caller\n        /* \"contracts/Certificate.sol\":3193:3293  CertificateIssued(_certificateId, _title, _recipientName, block.timestamp, _expiredDate, msg.sender) */\n      mload(0x40)\n      tag_59\n      swap6\n      swap5\n      swap4\n      swap3\n      swap2\n      swap1\n      tag_60\n      jump\t// in\n    tag_59:\n      mload(0x40)\n      dup1\n      swap2\n      sub\n      swap1\n      log2\n        /* \"contracts/Certificate.sol\":2374:3301  function issueCertificate(... */\n      pop\n      pop\n      pop\n      pop\n      jump\t// out\n        /* \"contracts/Certificate.sol\":1746:2004  function generateCertificateId(string memory _recipientName, string memory _nonce) public pure returns (bytes32) {... */\n    tag_16:\n        /* \"contracts/Certificate.sol\":1850:1857  bytes32 */\n      0x00\n        /* \"contracts/Certificate.sol\":1972:1986  _recipientName */\n      dup3\n        /* \"contracts/Certificate.sol\":1988:1994  _nonce */\n      dup3\n        /* \"contracts/Certificate.sol\":1955:1995  abi.encodePacked(_recipientName, _nonce) */\n      add(0x20, mload(0x40))\n      tag_62\n      swap3\n      swap2\n      swap1\n      tag_63\n      jump\t// in\n    tag_62:\n      mload(0x40)\n      0x20\n      dup2\n      dup4\n      sub\n      sub\n      dup2\n      mstore\n      swap1\n      0x40\n      mstore\n        /* \"contracts/Certificate.sol\":1945:1996  keccak256(abi.encodePacked(_recipientName, _nonce)) */\n      dup1\n      mload\n      swap1\n      0x20\n      add\n      keccak256\n        /* \"contracts/Certificate.sol\":1938:1996  return keccak256(abi.encodePacked(_recipientName, _nonce)) */\n      swap1\n      pop\n        /* \"contracts/Certificate.sol\":1746:2004  function generateCertificateId(string memory _recipientName, string memory _nonce) public pure returns (bytes32) {... */\n      swap3\n      swap2\n      pop\n      pop\n      jump\t// out\n        /* \"contracts/Certificate.sol\":4487:5433  function verifyCertificate(bytes32 _certificateId) public view returns (... */\n    tag_22:\n        /* \"contracts/Certificate.sol\":4569:4588  string memory title */\n      0x60\n        /* \"contracts/Certificate.sol\":4599:4617  string memory name */\n      dup1\n        /* \"contracts/Certificate.sol\":4628:4645  uint256 issueDate */\n      0x00\n        /* \"contracts/Certificate.sol\":4656:4680  CertificateStatus status */\n      0x00\n        /* \"contracts/Certificate.sol\":4691:4710  uint256 expiredDate */\n      0x00\n        /* \"contracts/Certificate.sol\":4721:4733  bool isValid */\n      0x00\n        /* \"contracts/Certificate.sol\":4752:4775  Certificate memory cert */\n      0x00\n        /* \"contracts/Certificate.sol\":4778:4790  certificates */\n      0x00\n        /* \"contracts/Certificate.sol\":4778:4806  certificates[_certificateId] */\n      0x00\n        /* \"contracts/Certificate.sol\":4791:4805  _certificateId */\n      dup10\n        /* \"contracts/Certificate.sol\":4778:4806  certificates[_certificateId] */\n      dup2\n      mstore\n      0x20\n      add\n      swap1\n      dup2\n      mstore\n      0x20\n      add\n      0x00\n      keccak256\n        /* \"contracts/Certificate.sol\":4752:4806  Certificate memory cert = certificates[_certificateId] */\n      mload(0x40)\n      dup1\n      0xa0\n      add\n      0x40\n      mstore\n      swap1\n      dup2\n      0x00\n      dup3\n      add\n      dup1\n      sload\n      tag_65\n      swap1\n      tag_44\n      jump\t// in\n    tag_65:\n      dup1\n      0x1f\n      add\n      0x20\n      dup1\n      swap2\n      div\n      mul\n      0x20\n      add\n      mload(0x40)\n      swap1\n      dup2\n      add\n      0x40\n      mstore\n      dup1\n      swap3\n      swap2\n      swap1\n      dup2\n      dup2\n      mstore\n      0x20\n      add\n      dup3\n      dup1\n      sload\n      tag_66\n      swap1\n      tag_44\n      jump\t// in\n    tag_66:\n      dup1\n      iszero\n      tag_67\n      jumpi\n      dup1\n      0x1f\n      lt\n      tag_68\n      jumpi\n      0x0100\n      dup1\n      dup4\n      sload\n      div\n      mul\n      dup4\n      mstore\n      swap2\n      0x20\n      add\n      swap2\n      jump(tag_67)\n    tag_68:\n      dup3\n      add\n      swap2\n      swap1\n      0x00\n      mstore\n      keccak256(0x00, 0x20)\n      swap1\n    tag_69:\n      dup2\n      sload\n      dup2\n      mstore\n      swap1\n      0x01\n      add\n      swap1\n      0x20\n      add\n      dup1\n      dup4\n      gt\n      tag_69\n      jumpi\n      dup3\n      swap1\n      sub\n      0x1f\n      and\n      dup3\n      add\n      swap2\n    tag_67:\n      pop\n      pop\n      pop\n      pop\n      pop\n      dup2\n      mstore\n      0x20\n      add\n      0x01\n      dup3\n      add\n      dup1\n      sload\n      tag_70\n      swap1\n      tag_44\n      jump\t// in\n    tag_70:\n      dup1\n      0x1f\n      add\n      0x20\n      dup1\n      swap2\n      div\n      mul\n      0x20\n      add\n      mload(0x40)\n      swap1\n      dup2\n      add\n      0x40\n      mstore\n      dup1\n      swap3\n      swap2\n      swap1\n      dup2\n      dup2\n      mstore\n      0x20\n      add\n      dup3\n      dup1\n      sload\n      tag_71\n      swap1\n      tag_44\n      jump\t// in\n    tag_71:\n      dup1\n      iszero\n      tag_72\n      jumpi\n      dup1\n      0x1f\n      lt\n      tag_73\n      jumpi\n      0x0100\n      dup1\n      dup4\n      sload\n      div\n      mul\n      dup4\n      mstore\n      swap2\n      0x20\n      add\n      swap2\n      jump(tag_72)\n    tag_73:\n      dup3\n      add\n      swap2\n      swap1\n      0x00\n      mstore\n      keccak256(0x00, 0x20)\n      swap1\n    tag_74:\n      dup2\n      sload\n      dup2\n      mstore\n      swap1\n      0x01\n      add\n      swap1\n      0x20\n      add\n      dup1\n      dup4\n      gt\n      tag_74\n      jumpi\n      dup3\n      swap1\n      sub\n      0x1f\n      and\n      dup3\n      add\n      swap2\n    tag_72:\n      pop\n      pop\n      pop\n      pop\n      pop\n      dup2\n      mstore\n      0x20\n      add\n      0x02\n      dup3\n      add\n      sload\n      dup2\n      mstore\n      0x20\n      add\n      0x03\n      dup3\n      add\n      0x00\n      swap1\n      sload\n      swap1\n      0x0100\n      exp\n      swap1\n      div\n      0xff\n      and\n      0x01\n      dup2\n      gt\n      iszero\n      tag_75\n      jumpi\n      tag_76\n      tag_53\n      jump\t// in\n    tag_76:\n    tag_75:\n      0x01\n      dup2\n      gt\n      iszero\n      tag_77\n      jumpi\n      tag_78\n      tag_53\n      jump\t// in\n    tag_78:\n    tag_77:\n      dup2\n      mstore\n      0x20\n      add\n      0x04\n      dup3\n      add\n      sload\n      dup2\n      mstore\n      pop\n      pop\n      swap1\n      pop\n        /* \"contracts/Certificate.sol\":4896:4897  0 */\n      0x00\n        /* \"contracts/Certificate.sol\":4875:4879  cert */\n      dup2\n        /* \"contracts/Certificate.sol\":4875:4884  cert.name */\n      0x20\n      add\n      mload\n        /* \"contracts/Certificate.sol\":4869:4892  bytes(cert.name).length */\n      mload\n        /* \"contracts/Certificate.sol\":4869:4897  bytes(cert.name).length == 0 */\n      sub\n        /* \"contracts/Certificate.sol\":4865:4981  if (bytes(cert.name).length == 0) {... */\n      tag_79\n      jumpi\n        /* \"contracts/Certificate.sol\":4930:4931  0 */\n      0x00\n        /* \"contracts/Certificate.sol\":4933:4958  CertificateStatus.Publish */\n      0x00\n        /* \"contracts/Certificate.sol\":4960:4961  0 */\n      0x00\n        /* \"contracts/Certificate.sol\":4963:4968  false */\n      0x00\n        /* \"contracts/Certificate.sol\":4914:4969  return (\"\", \"\", 0, CertificateStatus.Publish, 0, false) */\n      mload(0x40)\n      dup1\n      0x20\n      add\n      0x40\n      mstore\n      dup1\n      0x00\n      dup2\n      mstore\n      pop\n      swap4\n      swap3\n      swap2\n      swap1\n      mload(0x40)\n      dup1\n      0x20\n      add\n      0x40\n      mstore\n      dup1\n      0x00\n      dup2\n      mstore\n      pop\n      swap4\n      swap3\n      swap2\n      swap1\n      swap7\n      pop\n      swap7\n      pop\n      swap7\n      pop\n      swap7\n      pop\n      swap7\n      pop\n      swap7\n      pop\n      pop\n      jump(tag_64)\n        /* \"contracts/Certificate.sol\":4865:4981  if (bytes(cert.name).length == 0) {... */\n    tag_79:\n        /* \"contracts/Certificate.sol\":5085:5102  bool isNotExpired */\n      0x00\n        /* \"contracts/Certificate.sol\":5124:5139  block.timestamp */\n      timestamp\n        /* \"contracts/Certificate.sol\":5105:5109  cert */\n      dup3\n        /* \"contracts/Certificate.sol\":5105:5121  cert.expiredDate */\n      0x80\n      add\n      mload\n        /* \"contracts/Certificate.sol\":5105:5139  cert.expiredDate > block.timestamp */\n      gt\n        /* \"contracts/Certificate.sol\":5085:5139  bool isNotExpired = cert.expiredDate > block.timestamp */\n      swap1\n      pop\n        /* \"contracts/Certificate.sol\":5150:5166  bool isPublished */\n      0x00\n        /* \"contracts/Certificate.sol\":5184:5209  CertificateStatus.Publish */\n      0x00\n        /* \"contracts/Certificate.sol\":5169:5209  cert.status == CertificateStatus.Publish */\n      0x01\n      dup2\n      gt\n      iszero\n      tag_80\n      jumpi\n      tag_81\n      tag_53\n      jump\t// in\n    tag_81:\n    tag_80:\n        /* \"contracts/Certificate.sol\":5169:5173  cert */\n      dup4\n        /* \"contracts/Certificate.sol\":5169:5180  cert.status */\n      0x60\n      add\n      mload\n        /* \"contracts/Certificate.sol\":5169:5209  cert.status == CertificateStatus.Publish */\n      0x01\n      dup2\n      gt\n      iszero\n      tag_82\n      jumpi\n      tag_83\n      tag_53\n      jump\t// in\n    tag_83:\n    tag_82:\n      eq\n        /* \"contracts/Certificate.sol\":5150:5209  bool isPublished = cert.status == CertificateStatus.Publish */\n      swap1\n      pop\n        /* \"contracts/Certificate.sol\":5252:5256  cert */\n      dup3\n        /* \"contracts/Certificate.sol\":5252:5262  cert.title */\n      0x00\n      add\n      mload\n        /* \"contracts/Certificate.sol\":5277:5281  cert */\n      dup4\n        /* \"contracts/Certificate.sol\":5277:5286  cert.name */\n      0x20\n      add\n      mload\n        /* \"contracts/Certificate.sol\":5301:5305  cert */\n      dup5\n        /* \"contracts/Certificate.sol\":5301:5315  cert.issueDate */\n      0x40\n      add\n      mload\n        /* \"contracts/Certificate.sol\":5330:5334  cert */\n      dup6\n        /* \"contracts/Certificate.sol\":5330:5341  cert.status */\n      0x60\n      add\n      mload\n        /* \"contracts/Certificate.sol\":5356:5360  cert */\n      dup7\n        /* \"contracts/Certificate.sol\":5356:5372  cert.expiredDate */\n      0x80\n      add\n      mload\n        /* \"contracts/Certificate.sol\":5387:5399  isNotExpired */\n      dup7\n        /* \"contracts/Certificate.sol\":5387:5414  isNotExpired && isPublished */\n      dup1\n      iszero\n      tag_84\n      jumpi\n      pop\n        /* \"contracts/Certificate.sol\":5403:5414  isPublished */\n      dup6\n        /* \"contracts/Certificate.sol\":5387:5414  isNotExpired && isPublished */\n    tag_84:\n        /* \"contracts/Certificate.sol\":5230:5425  return (... */\n      swap9\n      pop\n      swap9\n      pop\n      swap9\n      pop\n      swap9\n      pop\n      swap9\n      pop\n      swap9\n      pop\n      pop\n      pop\n      pop\n        /* \"contracts/Certificate.sol\":4487:5433  function verifyCertificate(bytes32 _certificateId) public view returns (... */\n    tag_64:\n      swap2\n      swap4\n      swap6\n      pop\n      swap2\n      swap4\n      swap6\n      jump\t// out\n        /* \"contracts/Certificate.sol\":630:650  address public owner */\n    tag_26:\n      0x01\n      0x00\n      swap1\n      sload\n      swap1\n      0x0100\n      exp\n      swap1\n      div\n      0xffffffffffffffffffffffffffffffffffffffff\n      and\n      dup2\n      jump\t// out\n        /* \"contracts/Certificate.sol\":3525:3990  function updateCertificateStatus(bytes32 _certificateId, CertificateStatus _newStatus) public onlyOwner {... */\n    tag_32:\n        /* \"contracts/Certificate.sol\":1374:1379  owner */\n      0x01\n      0x00\n      swap1\n      sload\n      swap1\n      0x0100\n      exp\n      swap1\n      div\n      0xffffffffffffffffffffffffffffffffffffffff\n      and\n        /* \"contracts/Certificate.sol\":1360:1379  msg.sender == owner */\n      0xffffffffffffffffffffffffffffffffffffffff\n      and\n        /* \"contracts/Certificate.sol\":1360:1370  msg.sender */\n      caller\n        /* \"contracts/Certificate.sol\":1360:1379  msg.sender == owner */\n      0xffffffffffffffffffffffffffffffffffffffff\n      and\n      eq\n        /* \"contracts/Certificate.sol\":1352:1432  require(msg.sender == owner, \"Only the contract owner can perform this action.\") */\n      tag_86\n      jumpi\n      mload(0x40)\n      0x08c379a000000000000000000000000000000000000000000000000000000000\n      dup2\n      mstore\n      0x04\n      add\n      tag_87\n      swap1\n      tag_41\n      jump\t// in\n    tag_87:\n      mload(0x40)\n      dup1\n      swap2\n      sub\n      swap1\n      revert\n    tag_86:\n        /* \"contracts/Certificate.sol\":3736:3737  0 */\n      0x00\n        /* \"contracts/Certificate.sol\":3692:3704  certificates */\n      0x00\n        /* \"contracts/Certificate.sol\":3692:3720  certificates[_certificateId] */\n      0x00\n        /* \"contracts/Certificate.sol\":3705:3719  _certificateId */\n      dup5\n        /* \"contracts/Certificate.sol\":3692:3720  certificates[_certificateId] */\n      dup2\n      mstore\n      0x20\n      add\n      swap1\n      dup2\n      mstore\n      0x20\n      add\n      0x00\n      keccak256\n        /* \"contracts/Certificate.sol\":3692:3725  certificates[_certificateId].name */\n      0x01\n      add\n        /* \"contracts/Certificate.sol\":3686:3733  bytes(certificates[_certificateId].name).length */\n      dup1\n      sload\n      tag_89\n      swap1\n      tag_44\n      jump\t// in\n    tag_89:\n      swap1\n      pop\n        /* \"contracts/Certificate.sol\":3686:3737  bytes(certificates[_certificateId].name).length > 0 */\n      gt\n        /* \"contracts/Certificate.sol\":3678:3769  require(bytes(certificates[_certificateId].name).length > 0, \"Certificate does not exist.\") */\n      tag_90\n      jumpi\n      mload(0x40)\n      0x08c379a000000000000000000000000000000000000000000000000000000000\n      dup2\n      mstore\n      0x04\n      add\n      tag_91\n      swap1\n      tag_92\n      jump\t// in\n    tag_91:\n      mload(0x40)\n      dup1\n      swap2\n      sub\n      swap1\n      revert\n    tag_90:\n        /* \"contracts/Certificate.sol\":3854:3864  _newStatus */\n      dup1\n        /* \"contracts/Certificate.sol\":3816:3828  certificates */\n      0x00\n        /* \"contracts/Certificate.sol\":3816:3844  certificates[_certificateId] */\n      0x00\n        /* \"contracts/Certificate.sol\":3829:3843  _certificateId */\n      dup5\n        /* \"contracts/Certificate.sol\":3816:3844  certificates[_certificateId] */\n      dup2\n      mstore\n      0x20\n      add\n      swap1\n      dup2\n      mstore\n      0x20\n      add\n      0x00\n      keccak256\n        /* \"contracts/Certificate.sol\":3816:3851  certificates[_certificateId].status */\n      0x03\n      add\n      0x00\n        /* \"contracts/Certificate.sol\":3816:3864  certificates[_certificateId].status = _newStatus */\n      0x0100\n      exp\n      dup2\n      sload\n      dup2\n      0xff\n      mul\n      not\n      and\n      swap1\n      dup4\n      0x01\n      dup2\n      gt\n      iszero\n      tag_93\n      jumpi\n      tag_94\n      tag_53\n      jump\t// in\n    tag_94:\n    tag_93:\n      mul\n      or\n      swap1\n      sstore\n      pop\n        /* \"contracts/Certificate.sol\":3943:3957  _certificateId */\n      dup2\n        /* \"contracts/Certificate.sol\":3918:3982  CertificateStatusUpdated(_certificateId, _newStatus, msg.sender) */\n      0x732720185d98a39ea88255e2e95e63fbafcaa08a661f7c2e654947dbd67d55ec\n        /* \"contracts/Certificate.sol\":3959:3969  _newStatus */\n      dup3\n        /* \"contracts/Certificate.sol\":3971:3981  msg.sender */\n      caller\n        /* \"contracts/Certificate.sol\":3918:3982  CertificateStatusUpdated(_certificateId, _newStatus, msg.sender) */\n      mload(0x40)\n      tag_95\n      swap3\n      swap2\n      swap1\n      tag_96\n      jump\t// in\n    tag_95:\n      mload(0x40)\n      dup1\n      swap2\n      sub\n      swap1\n      log2\n        /* \"contracts/Certificate.sol\":3525:3990  function updateCertificateStatus(bytes32 _certificateId, CertificateStatus _newStatus) public onlyOwner {... */\n      pop\n      pop\n      jump\t// out\n        /* \"contracts/Certificate.sol\":5801:6292  function getCertificate(bytes32 _certificateId) public view returns (... */\n    tag_35:\n        /* \"contracts/Certificate.sol\":5880:5899  string memory title */\n      0x60\n        /* \"contracts/Certificate.sol\":5910:5928  string memory name */\n      dup1\n        /* \"contracts/Certificate.sol\":5939:5956  uint256 issueDate */\n      0x00\n        /* \"contracts/Certificate.sol\":5967:5991  CertificateStatus status */\n      0x00\n        /* \"contracts/Certificate.sol\":6002:6021  uint256 expiredDate */\n      0x00\n        /* \"contracts/Certificate.sol\":6098:6099  0 */\n      0x00\n        /* \"contracts/Certificate.sol\":6054:6066  certificates */\n      0x00\n        /* \"contracts/Certificate.sol\":6054:6082  certificates[_certificateId] */\n      0x00\n        /* \"contracts/Certificate.sol\":6067:6081  _certificateId */\n      dup9\n        /* \"contracts/Certificate.sol\":6054:6082  certificates[_certificateId] */\n      dup2\n      mstore\n      0x20\n      add\n      swap1\n      dup2\n      mstore\n      0x20\n      add\n      0x00\n      keccak256\n        /* \"contracts/Certificate.sol\":6054:6087  certificates[_certificateId].name */\n      0x01\n      add\n        /* \"contracts/Certificate.sol\":6048:6095  bytes(certificates[_certificateId].name).length */\n      dup1\n      sload\n      tag_98\n      swap1\n      tag_44\n      jump\t// in\n    tag_98:\n      swap1\n      pop\n        /* \"contracts/Certificate.sol\":6048:6099  bytes(certificates[_certificateId].name).length > 0 */\n      gt\n        /* \"contracts/Certificate.sol\":6040:6131  require(bytes(certificates[_certificateId].name).length > 0, \"Certificate does not exist.\") */\n      tag_99\n      jumpi\n      mload(0x40)\n      0x08c379a000000000000000000000000000000000000000000000000000000000\n      dup2\n      mstore\n      0x04\n      add\n      tag_100\n      swap1\n      tag_92\n      jump\t// in\n    tag_100:\n      mload(0x40)\n      dup1\n      swap2\n      sub\n      swap1\n      revert\n    tag_99:\n        /* \"contracts/Certificate.sol\":6142:6165  Certificate memory cert */\n      0x00\n        /* \"contracts/Certificate.sol\":6168:6180  certificates */\n      0x00\n        /* \"contracts/Certificate.sol\":6168:6196  certificates[_certificateId] */\n      0x00\n        /* \"contracts/Certificate.sol\":6181:6195  _certificateId */\n      dup9\n        /* \"contracts/Certificate.sol\":6168:6196  certificates[_certificateId] */\n      dup2\n      mstore\n      0x20\n      add\n      swap1\n      dup2\n      mstore\n      0x20\n      add\n      0x00\n      keccak256\n        /* \"contracts/Certificate.sol\":6142:6196  Certificate memory cert = certificates[_certificateId] */\n      mload(0x40)\n      dup1\n      0xa0\n      add\n      0x40\n      mstore\n      swap1\n      dup2\n      0x00\n      dup3\n      add\n      dup1\n      sload\n      tag_101\n      swap1\n      tag_44\n      jump\t// in\n    tag_101:\n      dup1\n      0x1f\n      add\n      0x20\n      dup1\n      swap2\n      div\n      mul\n      0x20\n      add\n      mload(0x40)\n      swap1\n      dup2\n      add\n      0x40\n      mstore\n      dup1\n      swap3\n      swap2\n      swap1\n      dup2\n      dup2\n      mstore\n      0x20\n      add\n      dup3\n      dup1\n      sload\n      tag_102\n      swap1\n      tag_44\n      jump\t// in\n    tag_102:\n      dup1\n      iszero\n      tag_103\n      jumpi\n      dup1\n      0x1f\n      lt\n      tag_104\n      jumpi\n      0x0100\n      dup1\n      dup4\n      sload\n      div\n      mul\n      dup4\n      mstore\n      swap2\n      0x20\n      add\n      swap2\n      jump(tag_103)\n    tag_104:\n      dup3\n      add\n      swap2\n      swap1\n      0x00\n      mstore\n      keccak256(0x00, 0x20)\n      swap1\n    tag_105:\n      dup2\n      sload\n      dup2\n      mstore\n      swap1\n      0x01\n      add\n      swap1\n      0x20\n      add\n      dup1\n      dup4\n      gt\n      tag_105\n      jumpi\n      dup3\n      swap1\n      sub\n      0x1f\n      and\n      dup3\n      add\n      swap2\n    tag_103:\n      pop\n      pop\n      pop\n      pop\n      pop\n      dup2\n      mstore\n      0x20\n      add\n      0x01\n      dup3\n      add\n      dup1\n      sload\n      tag_106\n      swap1\n      tag_44\n      jump\t// in\n    tag_106:\n      dup1\n      0x1f\n      add\n      0x20\n      dup1\n      swap2\n      div\n      mul\n      0x20\n      add\n      mload(0x40)\n      swap1\n      dup2\n      add\n      0x40\n      mstore\n      dup1\n      swap3\n      swap2\n      swap1\n      dup2\n      dup2\n      mstore\n      0x20\n      add\n      dup3\n      dup1\n      sload\n      tag_107\n      swap1\n      tag_44\n      jump\t// in\n    tag_107:\n      dup1\n      iszero\n      tag_108\n      jumpi\n      dup1\n      0x1f\n      lt\n      tag_109\n      jumpi\n      0x0100\n      dup1\n      dup4\n      sload\n      div\n      mul\n      dup4\n      mstore\n      swap2\n      0x20\n      add\n      swap2\n      jump(tag_108)\n    tag_109:\n      dup3\n      add\n      swap2\n      swap1\n      0x00\n      mstore\n      keccak256(0x00, 0x20)\n      swap1\n    tag_110:\n      dup2\n      sload\n      dup2\n      mstore\n      swap1\n      0x01\n      add\n      swap1\n      0x20\n      add\n      dup1\n      dup4\n      gt\n      tag_110\n      jumpi\n      dup3\n      swap1\n      sub\n      0x1f\n      and\n      dup3\n      add\n      swap2\n    tag_108:\n      pop\n      pop\n      pop\n      pop\n      pop\n      dup2\n      mstore\n      0x20\n      add\n      0x02\n      dup3\n      add\n      sload\n      dup2\n      mstore\n      0x20\n      add\n      0x03\n      dup3\n      add\n      0x00\n      swap1\n      sload\n      swap1\n      0x0100\n      exp\n      swap1\n      div\n      0xff\n      and\n      0x01\n      dup2\n      gt\n      iszero\n      tag_111\n      jumpi\n      tag_112\n      tag_53\n      jump\t// in\n    tag_112:\n    tag_111:\n      0x01\n      dup2\n      gt\n      iszero\n      tag_113\n      jumpi\n      tag_114\n      tag_53\n      jump\t// in\n    tag_114:\n    tag_113:\n      dup2\n      mstore\n      0x20\n      add\n      0x04\n      dup3\n      add\n      sload\n      dup2\n      mstore\n      pop\n      pop\n      swap1\n      pop\n        /* \"contracts/Certificate.sol\":6215:6219  cert */\n      dup1\n        /* \"contracts/Certificate.sol\":6215:6225  cert.title */\n      0x00\n      add\n      mload\n        /* \"contracts/Certificate.sol\":6227:6231  cert */\n      dup2\n        /* \"contracts/Certificate.sol\":6227:6236  cert.name */\n      0x20\n      add\n      mload\n        /* \"contracts/Certificate.sol\":6238:6242  cert */\n      dup3\n        /* \"contracts/Certificate.sol\":6238:6252  cert.issueDate */\n      0x40\n      add\n      mload\n        /* \"contracts/Certificate.sol\":6254:6258  cert */\n      dup4\n        /* \"contracts/Certificate.sol\":6254:6265  cert.status */\n      0x60\n      add\n      mload\n        /* \"contracts/Certificate.sol\":6267:6271  cert */\n      dup5\n        /* \"contracts/Certificate.sol\":6267:6283  cert.expiredDate */\n      0x80\n      add\n      mload\n        /* \"contracts/Certificate.sol\":6207:6284  return (cert.title, cert.name, cert.issueDate, cert.status, cert.expiredDate) */\n      swap6\n      pop\n      swap6\n      pop\n      swap6\n      pop\n      swap6\n      pop\n      swap6\n      pop\n      pop\n        /* \"contracts/Certificate.sol\":5801:6292  function getCertificate(bytes32 _certificateId) public view returns (... */\n      swap2\n      swap4\n      swap6\n      swap1\n      swap3\n      swap5\n      pop\n      jump\t// out\n        /* \"#utility.yul\":7:82   */\n    tag_115:\n        /* \"#utility.yul\":40:46   */\n      0x00\n        /* \"#utility.yul\":73:75   */\n      0x40\n        /* \"#utility.yul\":67:76   */\n      mload\n        /* \"#utility.yul\":57:76   */\n      swap1\n      pop\n        /* \"#utility.yul\":7:82   */\n      swap1\n      jump\t// out\n        /* \"#utility.yul\":88:205   */\n    tag_116:\n        /* \"#utility.yul\":197:198   */\n      0x00\n        /* \"#utility.yul\":194:195   */\n      0x00\n        /* \"#utility.yul\":187:199   */\n      revert\n        /* \"#utility.yul\":211:328   */\n    tag_117:\n        /* \"#utility.yul\":320:321   */\n      0x00\n        /* \"#utility.yul\":317:318   */\n      0x00\n        /* \"#utility.yul\":310:322   */\n      revert\n        /* \"#utility.yul\":334:411   */\n    tag_118:\n        /* \"#utility.yul\":371:378   */\n      0x00\n        /* \"#utility.yul\":400:405   */\n      dup2\n        /* \"#utility.yul\":389:405   */\n      swap1\n      pop\n        /* \"#utility.yul\":334:411   */\n      swap2\n      swap1\n      pop\n      jump\t// out\n        /* \"#utility.yul\":417:539   */\n    tag_119:\n        /* \"#utility.yul\":490:514   */\n      tag_183\n        /* \"#utility.yul\":508:513   */\n      dup2\n        /* \"#utility.yul\":490:514   */\n      tag_118\n      jump\t// in\n    tag_183:\n        /* \"#utility.yul\":483:488   */\n      dup2\n        /* \"#utility.yul\":480:515   */\n      eq\n        /* \"#utility.yul\":470:533   */\n      tag_184\n      jumpi\n        /* \"#utility.yul\":529:530   */\n      0x00\n        /* \"#utility.yul\":526:527   */\n      0x00\n        /* \"#utility.yul\":519:531   */\n      revert\n        /* \"#utility.yul\":470:533   */\n    tag_184:\n        /* \"#utility.yul\":417:539   */\n      pop\n      jump\t// out\n        /* \"#utility.yul\":545:684   */\n    tag_120:\n        /* \"#utility.yul\":591:596   */\n      0x00\n        /* \"#utility.yul\":629:635   */\n      dup2\n        /* \"#utility.yul\":616:636   */\n      calldataload\n        /* \"#utility.yul\":607:636   */\n      swap1\n      pop\n        /* \"#utility.yul\":645:678   */\n      tag_186\n        /* \"#utility.yul\":672:677   */\n      dup2\n        /* \"#utility.yul\":645:678   */\n      tag_119\n      jump\t// in\n    tag_186:\n        /* \"#utility.yul\":545:684   */\n      swap3\n      swap2\n      pop\n      pop\n      jump\t// out\n        /* \"#utility.yul\":690:807   */\n    tag_121:\n        /* \"#utility.yul\":799:800   */\n      0x00\n        /* \"#utility.yul\":796:797   */\n      0x00\n        /* \"#utility.yul\":789:801   */\n      revert\n        /* \"#utility.yul\":813:930   */\n    tag_122:\n        /* \"#utility.yul\":922:923   */\n      0x00\n        /* \"#utility.yul\":919:920   */\n      0x00\n        /* \"#utility.yul\":912:924   */\n      revert\n        /* \"#utility.yul\":936:1038   */\n    tag_123:\n        /* \"#utility.yul\":977:983   */\n      0x00\n        /* \"#utility.yul\":1028:1030   */\n      0x1f\n        /* \"#utility.yul\":1024:1031   */\n      not\n        /* \"#utility.yul\":1019:1021   */\n      0x1f\n        /* \"#utility.yul\":1012:1017   */\n      dup4\n        /* \"#utility.yul\":1008:1022   */\n      add\n        /* \"#utility.yul\":1004:1032   */\n      and\n        /* \"#utility.yul\":994:1032   */\n      swap1\n      pop\n        /* \"#utility.yul\":936:1038   */\n      swap2\n      swap1\n      pop\n      jump\t// out\n        /* \"#utility.yul\":1044:1224   */\n    tag_124:\n        /* \"#utility.yul\":1092:1169   */\n      0x4e487b7100000000000000000000000000000000000000000000000000000000\n        /* \"#utility.yul\":1089:1090   */\n      0x00\n        /* \"#utility.yul\":1082:1170   */\n      mstore\n        /* \"#utility.yul\":1189:1193   */\n      0x41\n        /* \"#utility.yul\":1186:1187   */\n      0x04\n        /* \"#utility.yul\":1179:1194   */\n      mstore\n        /* \"#utility.yul\":1213:1217   */\n      0x24\n        /* \"#utility.yul\":1210:1211   */\n      0x00\n        /* \"#utility.yul\":1203:1218   */\n      revert\n        /* \"#utility.yul\":1230:1511   */\n    tag_125:\n        /* \"#utility.yul\":1313:1340   */\n      tag_192\n        /* \"#utility.yul\":1335:1339   */\n      dup3\n        /* \"#utility.yul\":1313:1340   */\n      tag_123\n      jump\t// in\n    tag_192:\n        /* \"#utility.yul\":1305:1311   */\n      dup2\n        /* \"#utility.yul\":1301:1341   */\n      add\n        /* \"#utility.yul\":1443:1449   */\n      dup2\n        /* \"#utility.yul\":1431:1441   */\n      dup2\n        /* \"#utility.yul\":1428:1450   */\n      lt\n        /* \"#utility.yul\":1407:1425   */\n      0xffffffffffffffff\n        /* \"#utility.yul\":1395:1405   */\n      dup3\n        /* \"#utility.yul\":1392:1426   */\n      gt\n        /* \"#utility.yul\":1389:1451   */\n      or\n        /* \"#utility.yul\":1386:1474   */\n      iszero\n      tag_193\n      jumpi\n        /* \"#utility.yul\":1454:1472   */\n      tag_194\n      tag_124\n      jump\t// in\n    tag_194:\n        /* \"#utility.yul\":1386:1474   */\n    tag_193:\n        /* \"#utility.yul\":1494:1504   */\n      dup1\n        /* \"#utility.yul\":1490:1492   */\n      0x40\n        /* \"#utility.yul\":1483:1505   */\n      mstore\n        /* \"#utility.yul\":1273:1511   */\n      pop\n        /* \"#utility.yul\":1230:1511   */\n      pop\n      pop\n      jump\t// out\n        /* \"#utility.yul\":1517:1646   */\n    tag_126:\n        /* \"#utility.yul\":1551:1557   */\n      0x00\n        /* \"#utility.yul\":1578:1598   */\n      tag_196\n      tag_115\n      jump\t// in\n    tag_196:\n        /* \"#utility.yul\":1568:1598   */\n      swap1\n      pop\n        /* \"#utility.yul\":1607:1640   */\n      tag_197\n        /* \"#utility.yul\":1635:1639   */\n      dup3\n        /* \"#utility.yul\":1627:1633   */\n      dup3\n        /* \"#utility.yul\":1607:1640   */\n      tag_125\n      jump\t// in\n    tag_197:\n        /* \"#utility.yul\":1517:1646   */\n      swap2\n      swap1\n      pop\n      jump\t// out\n        /* \"#utility.yul\":1652:1960   */\n    tag_127:\n        /* \"#utility.yul\":1714:1718   */\n      0x00\n        /* \"#utility.yul\":1804:1822   */\n      0xffffffffffffffff\n        /* \"#utility.yul\":1796:1802   */\n      dup3\n        /* \"#utility.yul\":1793:1823   */\n      gt\n        /* \"#utility.yul\":1790:1846   */\n      iszero\n      tag_199\n      jumpi\n        /* \"#utility.yul\":1826:1844   */\n      tag_200\n      tag_124\n      jump\t// in\n    tag_200:\n        /* \"#utility.yul\":1790:1846   */\n    tag_199:\n        /* \"#utility.yul\":1864:1893   */\n      tag_201\n        /* \"#utility.yul\":1886:1892   */\n      dup3\n        /* \"#utility.yul\":1864:1893   */\n      tag_123\n      jump\t// in\n    tag_201:\n        /* \"#utility.yul\":1856:1893   */\n      swap1\n      pop\n        /* \"#utility.yul\":1948:1952   */\n      0x20\n        /* \"#utility.yul\":1942:1946   */\n      dup2\n        /* \"#utility.yul\":1938:1953   */\n      add\n        /* \"#utility.yul\":1930:1953   */\n      swap1\n      pop\n        /* \"#utility.yul\":1652:1960   */\n      swap2\n      swap1\n      pop\n      jump\t// out\n        /* \"#utility.yul\":1966:2114   */\n    tag_128:\n        /* \"#utility.yul\":2064:2070   */\n      dup3\n        /* \"#utility.yul\":2059:2062   */\n      dup2\n        /* \"#utility.yul\":2054:2057   */\n      dup4\n        /* \"#utility.yul\":2041:2071   */\n      calldatacopy\n        /* \"#utility.yul\":2105:2106   */\n      0x00\n        /* \"#utility.yul\":2096:2102   */\n      dup4\n        /* \"#utility.yul\":2091:2094   */\n      dup4\n        /* \"#utility.yul\":2087:2103   */\n      add\n        /* \"#utility.yul\":2080:2107   */\n      mstore\n        /* \"#utility.yul\":1966:2114   */\n      pop\n      pop\n      pop\n      jump\t// out\n        /* \"#utility.yul\":2120:2545   */\n    tag_129:\n        /* \"#utility.yul\":2198:2203   */\n      0x00\n        /* \"#utility.yul\":2223:2289   */\n      tag_204\n        /* \"#utility.yul\":2239:2288   */\n      tag_205\n        /* \"#utility.yul\":2281:2287   */\n      dup5\n        /* \"#utility.yul\":2239:2288   */\n      tag_127\n      jump\t// in\n    tag_205:\n        /* \"#utility.yul\":2223:2289   */\n      tag_126\n      jump\t// in\n    tag_204:\n        /* \"#utility.yul\":2214:2289   */\n      swap1\n      pop\n        /* \"#utility.yul\":2312:2318   */\n      dup3\n        /* \"#utility.yul\":2305:2310   */\n      dup2\n        /* \"#utility.yul\":2298:2319   */\n      mstore\n        /* \"#utility.yul\":2350:2354   */\n      0x20\n        /* \"#utility.yul\":2343:2348   */\n      dup2\n        /* \"#utility.yul\":2339:2355   */\n      add\n        /* \"#utility.yul\":2388:2391   */\n      dup5\n        /* \"#utility.yul\":2379:2385   */\n      dup5\n        /* \"#utility.yul\":2374:2377   */\n      dup5\n        /* \"#utility.yul\":2370:2386   */\n      add\n        /* \"#utility.yul\":2367:2392   */\n      gt\n        /* \"#utility.yul\":2364:2476   */\n      iszero\n      tag_206\n      jumpi\n        /* \"#utility.yul\":2395:2474   */\n      tag_207\n      tag_122\n      jump\t// in\n    tag_207:\n        /* \"#utility.yul\":2364:2476   */\n    tag_206:\n        /* \"#utility.yul\":2485:2539   */\n      tag_208\n        /* \"#utility.yul\":2532:2538   */\n      dup5\n        /* \"#utility.yul\":2527:2530   */\n      dup3\n        /* \"#utility.yul\":2522:2525   */\n      dup6\n        /* \"#utility.yul\":2485:2539   */\n      tag_128\n      jump\t// in\n    tag_208:\n        /* \"#utility.yul\":2204:2545   */\n      pop\n        /* \"#utility.yul\":2120:2545   */\n      swap4\n      swap3\n      pop\n      pop\n      pop\n      jump\t// out\n        /* \"#utility.yul\":2565:2905   */\n    tag_130:\n        /* \"#utility.yul\":2621:2626   */\n      0x00\n        /* \"#utility.yul\":2670:2673   */\n      dup3\n        /* \"#utility.yul\":2663:2667   */\n      0x1f\n        /* \"#utility.yul\":2655:2661   */\n      dup4\n        /* \"#utility.yul\":2651:2668   */\n      add\n        /* \"#utility.yul\":2647:2674   */\n      slt\n        /* \"#utility.yul\":2637:2759   */\n      tag_210\n      jumpi\n        /* \"#utility.yul\":2678:2757   */\n      tag_211\n      tag_121\n      jump\t// in\n    tag_211:\n        /* \"#utility.yul\":2637:2759   */\n    tag_210:\n        /* \"#utility.yul\":2795:2801   */\n      dup2\n        /* \"#utility.yul\":2782:2802   */\n      calldataload\n        /* \"#utility.yul\":2820:2899   */\n      tag_212\n        /* \"#utility.yul\":2895:2898   */\n      dup5\n        /* \"#utility.yul\":2887:2893   */\n      dup3\n        /* \"#utility.yul\":2880:2884   */\n      0x20\n        /* \"#utility.yul\":2872:2878   */\n      dup7\n        /* \"#utility.yul\":2868:2885   */\n      add\n        /* \"#utility.yul\":2820:2899   */\n      tag_129\n      jump\t// in\n    tag_212:\n        /* \"#utility.yul\":2811:2899   */\n      swap2\n      pop\n        /* \"#utility.yul\":2627:2905   */\n      pop\n        /* \"#utility.yul\":2565:2905   */\n      swap3\n      swap2\n      pop\n      pop\n      jump\t// out\n        /* \"#utility.yul\":2911:2988   */\n    tag_131:\n        /* \"#utility.yul\":2948:2955   */\n      0x00\n        /* \"#utility.yul\":2977:2982   */\n      dup2\n        /* \"#utility.yul\":2966:2982   */\n      swap1\n      pop\n        /* \"#utility.yul\":2911:2988   */\n      swap2\n      swap1\n      pop\n      jump\t// out\n        /* \"#utility.yul\":2994:3116   */\n    tag_132:\n        /* \"#utility.yul\":3067:3091   */\n      tag_215\n        /* \"#utility.yul\":3085:3090   */\n      dup2\n        /* \"#utility.yul\":3067:3091   */\n      tag_131\n      jump\t// in\n    tag_215:\n        /* \"#utility.yul\":3060:3065   */\n      dup2\n        /* \"#utility.yul\":3057:3092   */\n      eq\n        /* \"#utility.yul\":3047:3110   */\n      tag_216\n      jumpi\n        /* \"#utility.yul\":3106:3107   */\n      0x00\n        /* \"#utility.yul\":3103:3104   */\n      0x00\n        /* \"#utility.yul\":3096:3108   */\n      revert\n        /* \"#utility.yul\":3047:3110   */\n    tag_216:\n        /* \"#utility.yul\":2994:3116   */\n      pop\n      jump\t// out\n        /* \"#utility.yul\":3122:3261   */\n    tag_133:\n        /* \"#utility.yul\":3168:3173   */\n      0x00\n        /* \"#utility.yul\":3206:3212   */\n      dup2\n        /* \"#utility.yul\":3193:3213   */\n      calldataload\n        /* \"#utility.yul\":3184:3213   */\n      swap1\n      pop\n        /* \"#utility.yul\":3222:3255   */\n      tag_218\n        /* \"#utility.yul\":3249:3254   */\n      dup2\n        /* \"#utility.yul\":3222:3255   */\n      tag_132\n      jump\t// in\n    tag_218:\n        /* \"#utility.yul\":3122:3261   */\n      swap3\n      swap2\n      pop\n      pop\n      jump\t// out\n        /* \"#utility.yul\":3267:4392   */\n    tag_11:\n        /* \"#utility.yul\":3373:3379   */\n      0x00\n        /* \"#utility.yul\":3381:3387   */\n      0x00\n        /* \"#utility.yul\":3389:3395   */\n      0x00\n        /* \"#utility.yul\":3397:3403   */\n      0x00\n        /* \"#utility.yul\":3446:3449   */\n      0x80\n        /* \"#utility.yul\":3434:3443   */\n      dup6\n        /* \"#utility.yul\":3425:3432   */\n      dup8\n        /* \"#utility.yul\":3421:3444   */\n      sub\n        /* \"#utility.yul\":3417:3450   */\n      slt\n        /* \"#utility.yul\":3414:3534   */\n      iszero\n      tag_220\n      jumpi\n        /* \"#utility.yul\":3453:3532   */\n      tag_221\n      tag_116\n      jump\t// in\n    tag_221:\n        /* \"#utility.yul\":3414:3534   */\n    tag_220:\n        /* \"#utility.yul\":3573:3574   */\n      0x00\n        /* \"#utility.yul\":3598:3651   */\n      tag_222\n        /* \"#utility.yul\":3643:3650   */\n      dup8\n        /* \"#utility.yul\":3634:3640   */\n      dup3\n        /* \"#utility.yul\":3623:3632   */\n      dup9\n        /* \"#utility.yul\":3619:3641   */\n      add\n        /* \"#utility.yul\":3598:3651   */\n      tag_120\n      jump\t// in\n    tag_222:\n        /* \"#utility.yul\":3588:3651   */\n      swap5\n      pop\n        /* \"#utility.yul\":3544:3661   */\n      pop\n        /* \"#utility.yul\":3728:3730   */\n      0x20\n        /* \"#utility.yul\":3717:3726   */\n      dup6\n        /* \"#utility.yul\":3713:3731   */\n      add\n        /* \"#utility.yul\":3700:3732   */\n      calldataload\n        /* \"#utility.yul\":3759:3777   */\n      0xffffffffffffffff\n        /* \"#utility.yul\":3751:3757   */\n      dup2\n        /* \"#utility.yul\":3748:3778   */\n      gt\n        /* \"#utility.yul\":3745:3862   */\n      iszero\n      tag_223\n      jumpi\n        /* \"#utility.yul\":3781:3860   */\n      tag_224\n      tag_117\n      jump\t// in\n    tag_224:\n        /* \"#utility.yul\":3745:3862   */\n    tag_223:\n        /* \"#utility.yul\":3886:3949   */\n      tag_225\n        /* \"#utility.yul\":3941:3948   */\n      dup8\n        /* \"#utility.yul\":3932:3938   */\n      dup3\n        /* \"#utility.yul\":3921:3930   */\n      dup9\n        /* \"#utility.yul\":3917:3939   */\n      add\n        /* \"#utility.yul\":3886:3949   */\n      tag_130\n      jump\t// in\n    tag_225:\n        /* \"#utility.yul\":3876:3949   */\n      swap4\n      pop\n        /* \"#utility.yul\":3671:3959   */\n      pop\n        /* \"#utility.yul\":4026:4028   */\n      0x40\n        /* \"#utility.yul\":4015:4024   */\n      dup6\n        /* \"#utility.yul\":4011:4029   */\n      add\n        /* \"#utility.yul\":3998:4030   */\n      calldataload\n        /* \"#utility.yul\":4057:4075   */\n      0xffffffffffffffff\n        /* \"#utility.yul\":4049:4055   */\n      dup2\n        /* \"#utility.yul\":4046:4076   */\n      gt\n        /* \"#utility.yul\":4043:4160   */\n      iszero\n      tag_226\n      jumpi\n        /* \"#utility.yul\":4079:4158   */\n      tag_227\n      tag_117\n      jump\t// in\n    tag_227:\n        /* \"#utility.yul\":4043:4160   */\n    tag_226:\n        /* \"#utility.yul\":4184:4247   */\n      tag_228\n        /* \"#utility.yul\":4239:4246   */\n      dup8\n        /* \"#utility.yul\":4230:4236   */\n      dup3\n        /* \"#utility.yul\":4219:4228   */\n      dup9\n        /* \"#utility.yul\":4215:4237   */\n      add\n        /* \"#utility.yul\":4184:4247   */\n      tag_130\n      jump\t// in\n    tag_228:\n        /* \"#utility.yul\":4174:4247   */\n      swap3\n      pop\n        /* \"#utility.yul\":3969:4257   */\n      pop\n        /* \"#utility.yul\":4296:4298   */\n      0x60\n        /* \"#utility.yul\":4322:4375   */\n      tag_229\n        /* \"#utility.yul\":4367:4374   */\n      dup8\n        /* \"#utility.yul\":4358:4364   */\n      dup3\n        /* \"#utility.yul\":4347:4356   */\n      dup9\n        /* \"#utility.yul\":4343:4365   */\n      add\n        /* \"#utility.yul\":4322:4375   */\n      tag_133\n      jump\t// in\n    tag_229:\n        /* \"#utility.yul\":4312:4375   */\n      swap2\n      pop\n        /* \"#utility.yul\":4267:4385   */\n      pop\n        /* \"#utility.yul\":3267:4392   */\n      swap3\n      swap6\n      swap2\n      swap5\n      pop\n      swap3\n      pop\n      jump\t// out\n        /* \"#utility.yul\":4398:5232   */\n    tag_15:\n        /* \"#utility.yul\":4486:4492   */\n      0x00\n        /* \"#utility.yul\":4494:4500   */\n      0x00\n        /* \"#utility.yul\":4543:4545   */\n      0x40\n        /* \"#utility.yul\":4531:4540   */\n      dup4\n        /* \"#utility.yul\":4522:4529   */\n      dup6\n        /* \"#utility.yul\":4518:4541   */\n      sub\n        /* \"#utility.yul\":4514:4546   */\n      slt\n        /* \"#utility.yul\":4511:4630   */\n      iszero\n      tag_231\n      jumpi\n        /* \"#utility.yul\":4549:4628   */\n      tag_232\n      tag_116\n      jump\t// in\n    tag_232:\n        /* \"#utility.yul\":4511:4630   */\n    tag_231:\n        /* \"#utility.yul\":4697:4698   */\n      0x00\n        /* \"#utility.yul\":4686:4695   */\n      dup4\n        /* \"#utility.yul\":4682:4699   */\n      add\n        /* \"#utility.yul\":4669:4700   */\n      calldataload\n        /* \"#utility.yul\":4727:4745   */\n      0xffffffffffffffff\n        /* \"#utility.yul\":4719:4725   */\n      dup2\n        /* \"#utility.yul\":4716:4746   */\n      gt\n        /* \"#utility.yul\":4713:4830   */\n      iszero\n      tag_233\n      jumpi\n        /* \"#utility.yul\":4749:4828   */\n      tag_234\n      tag_117\n      jump\t// in\n    tag_234:\n        /* \"#utility.yul\":4713:4830   */\n    tag_233:\n        /* \"#utility.yul\":4854:4917   */\n      tag_235\n        /* \"#utility.yul\":4909:4916   */\n      dup6\n        /* \"#utility.yul\":4900:4906   */\n      dup3\n        /* \"#utility.yul\":4889:4898   */\n      dup7\n        /* \"#utility.yul\":4885:4907   */\n      add\n        /* \"#utility.yul\":4854:4917   */\n      tag_130\n      jump\t// in\n    tag_235:\n        /* \"#utility.yul\":4844:4917   */\n      swap3\n      pop\n        /* \"#utility.yul\":4640:4927   */\n      pop\n        /* \"#utility.yul\":4994:4996   */\n      0x20\n        /* \"#utility.yul\":4983:4992   */\n      dup4\n        /* \"#utility.yul\":4979:4997   */\n      add\n        /* \"#utility.yul\":4966:4998   */\n      calldataload\n        /* \"#utility.yul\":5025:5043   */\n      0xffffffffffffffff\n        /* \"#utility.yul\":5017:5023   */\n      dup2\n        /* \"#utility.yul\":5014:5044   */\n      gt\n        /* \"#utility.yul\":5011:5128   */\n      iszero\n      tag_236\n      jumpi\n        /* \"#utility.yul\":5047:5126   */\n      tag_237\n      tag_117\n      jump\t// in\n    tag_237:\n        /* \"#utility.yul\":5011:5128   */\n    tag_236:\n        /* \"#utility.yul\":5152:5215   */\n      tag_238\n        /* \"#utility.yul\":5207:5214   */\n      dup6\n        /* \"#utility.yul\":5198:5204   */\n      dup3\n        /* \"#utility.yul\":5187:5196   */\n      dup7\n        /* \"#utility.yul\":5183:5205   */\n      add\n        /* \"#utility.yul\":5152:5215   */\n      tag_130\n      jump\t// in\n    tag_238:\n        /* \"#utility.yul\":5142:5215   */\n      swap2\n      pop\n        /* \"#utility.yul\":4937:5225   */\n      pop\n        /* \"#utility.yul\":4398:5232   */\n      swap3\n      pop\n      swap3\n      swap1\n      pop\n      jump\t// out\n        /* \"#utility.yul\":5238:5356   */\n    tag_134:\n        /* \"#utility.yul\":5325:5349   */\n      tag_240\n        /* \"#utility.yul\":5343:5348   */\n      dup2\n        /* \"#utility.yul\":5325:5349   */\n      tag_118\n      jump\t// in\n    tag_240:\n        /* \"#utility.yul\":5320:5323   */\n      dup3\n        /* \"#utility.yul\":5313:5350   */\n      mstore\n        /* \"#utility.yul\":5238:5356   */\n      pop\n      pop\n      jump\t// out\n        /* \"#utility.yul\":5362:5584   */\n    tag_18:\n        /* \"#utility.yul\":5455:5459   */\n      0x00\n        /* \"#utility.yul\":5493:5495   */\n      0x20\n        /* \"#utility.yul\":5482:5491   */\n      dup3\n        /* \"#utility.yul\":5478:5496   */\n      add\n        /* \"#utility.yul\":5470:5496   */\n      swap1\n      pop\n        /* \"#utility.yul\":5506:5577   */\n      tag_242\n        /* \"#utility.yul\":5574:5575   */\n      0x00\n        /* \"#utility.yul\":5563:5572   */\n      dup4\n        /* \"#utility.yul\":5559:5576   */\n      add\n        /* \"#utility.yul\":5550:5556   */\n      dup5\n        /* \"#utility.yul\":5506:5577   */\n      tag_134\n      jump\t// in\n    tag_242:\n        /* \"#utility.yul\":5362:5584   */\n      swap3\n      swap2\n      pop\n      pop\n      jump\t// out\n        /* \"#utility.yul\":5590:5919   */\n    tag_21:\n        /* \"#utility.yul\":5649:5655   */\n      0x00\n        /* \"#utility.yul\":5698:5700   */\n      0x20\n        /* \"#utility.yul\":5686:5695   */\n      dup3\n        /* \"#utility.yul\":5677:5684   */\n      dup5\n        /* \"#utility.yul\":5673:5696   */\n      sub\n        /* \"#utility.yul\":5669:5701   */\n      slt\n        /* \"#utility.yul\":5666:5785   */\n      iszero\n      tag_244\n      jumpi\n        /* \"#utility.yul\":5704:5783   */\n      tag_245\n      tag_116\n      jump\t// in\n    tag_245:\n        /* \"#utility.yul\":5666:5785   */\n    tag_244:\n        /* \"#utility.yul\":5824:5825   */\n      0x00\n        /* \"#utility.yul\":5849:5902   */\n      tag_246\n        /* \"#utility.yul\":5894:5901   */\n      dup5\n        /* \"#utility.yul\":5885:5891   */\n      dup3\n        /* \"#utility.yul\":5874:5883   */\n      dup6\n        /* \"#utility.yul\":5870:5892   */\n      add\n        /* \"#utility.yul\":5849:5902   */\n      tag_120\n      jump\t// in\n    tag_246:\n        /* \"#utility.yul\":5839:5902   */\n      swap2\n      pop\n        /* \"#utility.yul\":5795:5912   */\n      pop\n        /* \"#utility.yul\":5590:5919   */\n      swap3\n      swap2\n      pop\n      pop\n      jump\t// out\n        /* \"#utility.yul\":5925:6024   */\n    tag_135:\n        /* \"#utility.yul\":5977:5983   */\n      0x00\n        /* \"#utility.yul\":6011:6016   */\n      dup2\n        /* \"#utility.yul\":6005:6017   */\n      mload\n        /* \"#utility.yul\":5995:6017   */\n      swap1\n      pop\n        /* \"#utility.yul\":5925:6024   */\n      swap2\n      swap1\n      pop\n      jump\t// out\n        /* \"#utility.yul\":6030:6199   */\n    tag_136:\n        /* \"#utility.yul\":6114:6125   */\n      0x00\n        /* \"#utility.yul\":6148:6154   */\n      dup3\n        /* \"#utility.yul\":6143:6146   */\n      dup3\n        /* \"#utility.yul\":6136:6155   */\n      mstore\n        /* \"#utility.yul\":6188:6192   */\n      0x20\n        /* \"#utility.yul\":6183:6186   */\n      dup3\n        /* \"#utility.yul\":6179:6193   */\n      add\n        /* \"#utility.yul\":6164:6193   */\n      swap1\n      pop\n        /* \"#utility.yul\":6030:6199   */\n      swap3\n      swap2\n      pop\n      pop\n      jump\t// out\n        /* \"#utility.yul\":6205:6344   */\n    tag_137:\n        /* \"#utility.yul\":6294:6300   */\n      dup3\n        /* \"#utility.yul\":6289:6292   */\n      dup2\n        /* \"#utility.yul\":6284:6287   */\n      dup4\n        /* \"#utility.yul\":6278:6301   */\n      mcopy\n        /* \"#utility.yul\":6335:6336   */\n      0x00\n        /* \"#utility.yul\":6326:6332   */\n      dup4\n        /* \"#utility.yul\":6321:6324   */\n      dup4\n        /* \"#utility.yul\":6317:6333   */\n      add\n        /* \"#utility.yul\":6310:6337   */\n      mstore\n        /* \"#utility.yul\":6205:6344   */\n      pop\n      pop\n      pop\n      jump\t// out\n        /* \"#utility.yul\":6350:6727   */\n    tag_138:\n        /* \"#utility.yul\":6438:6441   */\n      0x00\n        /* \"#utility.yul\":6466:6505   */\n      tag_251\n        /* \"#utility.yul\":6499:6504   */\n      dup3\n        /* \"#utility.yul\":6466:6505   */\n      tag_135\n      jump\t// in\n    tag_251:\n        /* \"#utility.yul\":6521:6592   */\n      tag_252\n        /* \"#utility.yul\":6585:6591   */\n      dup2\n        /* \"#utility.yul\":6580:6583   */\n      dup6\n        /* \"#utility.yul\":6521:6592   */\n      tag_136\n      jump\t// in\n    tag_252:\n        /* \"#utility.yul\":6514:6592   */\n      swap4\n      pop\n        /* \"#utility.yul\":6601:6666   */\n      tag_253\n        /* \"#utility.yul\":6659:6665   */\n      dup2\n        /* \"#utility.yul\":6654:6657   */\n      dup6\n        /* \"#utility.yul\":6647:6651   */\n      0x20\n        /* \"#utility.yul\":6640:6645   */\n      dup7\n        /* \"#utility.yul\":6636:6652   */\n      add\n        /* \"#utility.yul\":6601:6666   */\n      tag_137\n      jump\t// in\n    tag_253:\n        /* \"#utility.yul\":6691:6720   */\n      tag_254\n        /* \"#utility.yul\":6713:6719   */\n      dup2\n        /* \"#utility.yul\":6691:6720   */\n      tag_123\n      jump\t// in\n    tag_254:\n        /* \"#utility.yul\":6686:6689   */\n      dup5\n        /* \"#utility.yul\":6682:6721   */\n      add\n        /* \"#utility.yul\":6675:6721   */\n      swap2\n      pop\n        /* \"#utility.yul\":6442:6727   */\n      pop\n        /* \"#utility.yul\":6350:6727   */\n      swap3\n      swap2\n      pop\n      pop\n      jump\t// out\n        /* \"#utility.yul\":6733:6851   */\n    tag_139:\n        /* \"#utility.yul\":6820:6844   */\n      tag_256\n        /* \"#utility.yul\":6838:6843   */\n      dup2\n        /* \"#utility.yul\":6820:6844   */\n      tag_131\n      jump\t// in\n    tag_256:\n        /* \"#utility.yul\":6815:6818   */\n      dup3\n        /* \"#utility.yul\":6808:6845   */\n      mstore\n        /* \"#utility.yul\":6733:6851   */\n      pop\n      pop\n      jump\t// out\n        /* \"#utility.yul\":6857:7037   */\n    tag_53:\n        /* \"#utility.yul\":6905:6982   */\n      0x4e487b7100000000000000000000000000000000000000000000000000000000\n        /* \"#utility.yul\":6902:6903   */\n      0x00\n        /* \"#utility.yul\":6895:6983   */\n      mstore\n        /* \"#utility.yul\":7002:7006   */\n      0x21\n        /* \"#utility.yul\":6999:7000   */\n      0x04\n        /* \"#utility.yul\":6992:7007   */\n      mstore\n        /* \"#utility.yul\":7026:7030   */\n      0x24\n        /* \"#utility.yul\":7023:7024   */\n      0x00\n        /* \"#utility.yul\":7016:7031   */\n      revert\n        /* \"#utility.yul\":7043:7167   */\n    tag_140:\n        /* \"#utility.yul\":7135:7136   */\n      0x02\n        /* \"#utility.yul\":7128:7133   */\n      dup2\n        /* \"#utility.yul\":7125:7137   */\n      lt\n        /* \"#utility.yul\":7115:7161   */\n      tag_259\n      jumpi\n        /* \"#utility.yul\":7141:7159   */\n      tag_260\n      tag_53\n      jump\t// in\n    tag_260:\n        /* \"#utility.yul\":7115:7161   */\n    tag_259:\n        /* \"#utility.yul\":7043:7167   */\n      pop\n      jump\t// out\n        /* \"#utility.yul\":7173:7322   */\n    tag_141:\n        /* \"#utility.yul\":7229:7236   */\n      0x00\n        /* \"#utility.yul\":7258:7263   */\n      dup2\n        /* \"#utility.yul\":7247:7263   */\n      swap1\n      pop\n        /* \"#utility.yul\":7264:7316   */\n      tag_262\n        /* \"#utility.yul\":7310:7315   */\n      dup3\n        /* \"#utility.yul\":7264:7316   */\n      tag_140\n      jump\t// in\n    tag_262:\n        /* \"#utility.yul\":7173:7322   */\n      swap2\n      swap1\n      pop\n      jump\t// out\n        /* \"#utility.yul\":7328:7477   */\n    tag_142:\n        /* \"#utility.yul\":7395:7404   */\n      0x00\n        /* \"#utility.yul\":7428:7471   */\n      tag_264\n        /* \"#utility.yul\":7465:7470   */\n      dup3\n        /* \"#utility.yul\":7428:7471   */\n      tag_141\n      jump\t// in\n    tag_264:\n        /* \"#utility.yul\":7415:7471   */\n      swap1\n      pop\n        /* \"#utility.yul\":7328:7477   */\n      swap2\n      swap1\n      pop\n      jump\t// out\n        /* \"#utility.yul\":7483:7648   */\n    tag_143:\n        /* \"#utility.yul\":7587:7641   */\n      tag_266\n        /* \"#utility.yul\":7635:7640   */\n      dup2\n        /* \"#utility.yul\":7587:7641   */\n      tag_142\n      jump\t// in\n    tag_266:\n        /* \"#utility.yul\":7582:7585   */\n      dup3\n        /* \"#utility.yul\":7575:7642   */\n      mstore\n        /* \"#utility.yul\":7483:7648   */\n      pop\n      pop\n      jump\t// out\n        /* \"#utility.yul\":7654:7744   */\n    tag_144:\n        /* \"#utility.yul\":7688:7695   */\n      0x00\n        /* \"#utility.yul\":7731:7736   */\n      dup2\n        /* \"#utility.yul\":7724:7737   */\n      iszero\n        /* \"#utility.yul\":7717:7738   */\n      iszero\n        /* \"#utility.yul\":7706:7738   */\n      swap1\n      pop\n        /* \"#utility.yul\":7654:7744   */\n      swap2\n      swap1\n      pop\n      jump\t// out\n        /* \"#utility.yul\":7750:7859   */\n    tag_145:\n        /* \"#utility.yul\":7831:7852   */\n      tag_269\n        /* \"#utility.yul\":7846:7851   */\n      dup2\n        /* \"#utility.yul\":7831:7852   */\n      tag_144\n      jump\t// in\n    tag_269:\n        /* \"#utility.yul\":7826:7829   */\n      dup3\n        /* \"#utility.yul\":7819:7853   */\n      mstore\n        /* \"#utility.yul\":7750:7859   */\n      pop\n      pop\n      jump\t// out\n        /* \"#utility.yul\":7865:8844   */\n    tag_24:\n        /* \"#utility.yul\":8149:8153   */\n      0x00\n        /* \"#utility.yul\":8187:8190   */\n      0xc0\n        /* \"#utility.yul\":8176:8185   */\n      dup3\n        /* \"#utility.yul\":8172:8191   */\n      add\n        /* \"#utility.yul\":8164:8191   */\n      swap1\n      pop\n        /* \"#utility.yul\":8237:8246   */\n      dup2\n        /* \"#utility.yul\":8231:8235   */\n      dup2\n        /* \"#utility.yul\":8227:8247   */\n      sub\n        /* \"#utility.yul\":8223:8224   */\n      0x00\n        /* \"#utility.yul\":8212:8221   */\n      dup4\n        /* \"#utility.yul\":8208:8225   */\n      add\n        /* \"#utility.yul\":8201:8248   */\n      mstore\n        /* \"#utility.yul\":8265:8343   */\n      tag_271\n        /* \"#utility.yul\":8338:8342   */\n      dup2\n        /* \"#utility.yul\":8329:8335   */\n      dup10\n        /* \"#utility.yul\":8265:8343   */\n      tag_138\n      jump\t// in\n    tag_271:\n        /* \"#utility.yul\":8257:8343   */\n      swap1\n      pop\n        /* \"#utility.yul\":8390:8399   */\n      dup2\n        /* \"#utility.yul\":8384:8388   */\n      dup2\n        /* \"#utility.yul\":8380:8400   */\n      sub\n        /* \"#utility.yul\":8375:8377   */\n      0x20\n        /* \"#utility.yul\":8364:8373   */\n      dup4\n        /* \"#utility.yul\":8360:8378   */\n      add\n        /* \"#utility.yul\":8353:8401   */\n      mstore\n        /* \"#utility.yul\":8418:8496   */\n      tag_272\n        /* \"#utility.yul\":8491:8495   */\n      dup2\n        /* \"#utility.yul\":8482:8488   */\n      dup9\n        /* \"#utility.yul\":8418:8496   */\n      tag_138\n      jump\t// in\n    tag_272:\n        /* \"#utility.yul\":8410:8496   */\n      swap1\n      pop\n        /* \"#utility.yul\":8506:8578   */\n      tag_273\n        /* \"#utility.yul\":8574:8576   */\n      0x40\n        /* \"#utility.yul\":8563:8572   */\n      dup4\n        /* \"#utility.yul\":8559:8577   */\n      add\n        /* \"#utility.yul\":8550:8556   */\n      dup8\n        /* \"#utility.yul\":8506:8578   */\n      tag_139\n      jump\t// in\n    tag_273:\n        /* \"#utility.yul\":8588:8677   */\n      tag_274\n        /* \"#utility.yul\":8673:8675   */\n      0x60\n        /* \"#utility.yul\":8662:8671   */\n      dup4\n        /* \"#utility.yul\":8658:8676   */\n      add\n        /* \"#utility.yul\":8649:8655   */\n      dup7\n        /* \"#utility.yul\":8588:8677   */\n      tag_143\n      jump\t// in\n    tag_274:\n        /* \"#utility.yul\":8687:8760   */\n      tag_275\n        /* \"#utility.yul\":8755:8758   */\n      0x80\n        /* \"#utility.yul\":8744:8753   */\n      dup4\n        /* \"#utility.yul\":8740:8759   */\n      add\n        /* \"#utility.yul\":8731:8737   */\n      dup6\n        /* \"#utility.yul\":8687:8760   */\n      tag_139\n      jump\t// in\n    tag_275:\n        /* \"#utility.yul\":8770:8837   */\n      tag_276\n        /* \"#utility.yul\":8832:8835   */\n      0xa0\n        /* \"#utility.yul\":8821:8830   */\n      dup4\n        /* \"#utility.yul\":8817:8836   */\n      add\n        /* \"#utility.yul\":8808:8814   */\n      dup5\n        /* \"#utility.yul\":8770:8837   */\n      tag_145\n      jump\t// in\n    tag_276:\n        /* \"#utility.yul\":7865:8844   */\n      swap8\n      swap7\n      pop\n      pop\n      pop\n      pop\n      pop\n      pop\n      pop\n      jump\t// out\n        /* \"#utility.yul\":8850:8976   */\n    tag_146:\n        /* \"#utility.yul\":8887:8894   */\n      0x00\n        /* \"#utility.yul\":8927:8969   */\n      0xffffffffffffffffffffffffffffffffffffffff\n        /* \"#utility.yul\":8920:8925   */\n      dup3\n        /* \"#utility.yul\":8916:8970   */\n      and\n        /* \"#utility.yul\":8905:8970   */\n      swap1\n      pop\n        /* \"#utility.yul\":8850:8976   */\n      swap2\n      swap1\n      pop\n      jump\t// out\n        /* \"#utility.yul\":8982:9078   */\n    tag_147:\n        /* \"#utility.yul\":9019:9026   */\n      0x00\n        /* \"#utility.yul\":9048:9072   */\n      tag_279\n        /* \"#utility.yul\":9066:9071   */\n      dup3\n        /* \"#utility.yul\":9048:9072   */\n      tag_146\n      jump\t// in\n    tag_279:\n        /* \"#utility.yul\":9037:9072   */\n      swap1\n      pop\n        /* \"#utility.yul\":8982:9078   */\n      swap2\n      swap1\n      pop\n      jump\t// out\n        /* \"#utility.yul\":9084:9202   */\n    tag_148:\n        /* \"#utility.yul\":9171:9195   */\n      tag_281\n        /* \"#utility.yul\":9189:9194   */\n      dup2\n        /* \"#utility.yul\":9171:9195   */\n      tag_147\n      jump\t// in\n    tag_281:\n        /* \"#utility.yul\":9166:9169   */\n      dup3\n        /* \"#utility.yul\":9159:9196   */\n      mstore\n        /* \"#utility.yul\":9084:9202   */\n      pop\n      pop\n      jump\t// out\n        /* \"#utility.yul\":9208:9430   */\n    tag_28:\n        /* \"#utility.yul\":9301:9305   */\n      0x00\n        /* \"#utility.yul\":9339:9341   */\n      0x20\n        /* \"#utility.yul\":9328:9337   */\n      dup3\n        /* \"#utility.yul\":9324:9342   */\n      add\n        /* \"#utility.yul\":9316:9342   */\n      swap1\n      pop\n        /* \"#utility.yul\":9352:9423   */\n      tag_283\n        /* \"#utility.yul\":9420:9421   */\n      0x00\n        /* \"#utility.yul\":9409:9418   */\n      dup4\n        /* \"#utility.yul\":9405:9422   */\n      add\n        /* \"#utility.yul\":9396:9402   */\n      dup5\n        /* \"#utility.yul\":9352:9423   */\n      tag_148\n      jump\t// in\n    tag_283:\n        /* \"#utility.yul\":9208:9430   */\n      swap3\n      swap2\n      pop\n      pop\n      jump\t// out\n        /* \"#utility.yul\":9436:9554   */\n    tag_149:\n        /* \"#utility.yul\":9528:9529   */\n      0x02\n        /* \"#utility.yul\":9521:9526   */\n      dup2\n        /* \"#utility.yul\":9518:9530   */\n      lt\n        /* \"#utility.yul\":9508:9548   */\n      tag_285\n      jumpi\n        /* \"#utility.yul\":9544:9545   */\n      0x00\n        /* \"#utility.yul\":9541:9542   */\n      0x00\n        /* \"#utility.yul\":9534:9546   */\n      revert\n        /* \"#utility.yul\":9508:9548   */\n    tag_285:\n        /* \"#utility.yul\":9436:9554   */\n      pop\n      jump\t// out\n        /* \"#utility.yul\":9560:9737   */\n    tag_150:\n        /* \"#utility.yul\":9625:9630   */\n      0x00\n        /* \"#utility.yul\":9663:9669   */\n      dup2\n        /* \"#utility.yul\":9650:9670   */\n      calldataload\n        /* \"#utility.yul\":9641:9670   */\n      swap1\n      pop\n        /* \"#utility.yul\":9679:9731   */\n      tag_287\n        /* \"#utility.yul\":9725:9730   */\n      dup2\n        /* \"#utility.yul\":9679:9731   */\n      tag_149\n      jump\t// in\n    tag_287:\n        /* \"#utility.yul\":9560:9737   */\n      swap3\n      swap2\n      pop\n      pop\n      jump\t// out\n        /* \"#utility.yul\":9743:10255   */\n    tag_31:\n        /* \"#utility.yul\":9830:9836   */\n      0x00\n        /* \"#utility.yul\":9838:9844   */\n      0x00\n        /* \"#utility.yul\":9887:9889   */\n      0x40\n        /* \"#utility.yul\":9875:9884   */\n      dup4\n        /* \"#utility.yul\":9866:9873   */\n      dup6\n        /* \"#utility.yul\":9862:9885   */\n      sub\n        /* \"#utility.yul\":9858:9890   */\n      slt\n        /* \"#utility.yul\":9855:9974   */\n      iszero\n      tag_289\n      jumpi\n        /* \"#utility.yul\":9893:9972   */\n      tag_290\n      tag_116\n      jump\t// in\n    tag_290:\n        /* \"#utility.yul\":9855:9974   */\n    tag_289:\n        /* \"#utility.yul\":10013:10014   */\n      0x00\n        /* \"#utility.yul\":10038:10091   */\n      tag_291\n        /* \"#utility.yul\":10083:10090   */\n      dup6\n        /* \"#utility.yul\":10074:10080   */\n      dup3\n        /* \"#utility.yul\":10063:10072   */\n      dup7\n        /* \"#utility.yul\":10059:10081   */\n      add\n        /* \"#utility.yul\":10038:10091   */\n      tag_120\n      jump\t// in\n    tag_291:\n        /* \"#utility.yul\":10028:10091   */\n      swap3\n      pop\n        /* \"#utility.yul\":9984:10101   */\n      pop\n        /* \"#utility.yul\":10140:10142   */\n      0x20\n        /* \"#utility.yul\":10166:10238   */\n      tag_292\n        /* \"#utility.yul\":10230:10237   */\n      dup6\n        /* \"#utility.yul\":10221:10227   */\n      dup3\n        /* \"#utility.yul\":10210:10219   */\n      dup7\n        /* \"#utility.yul\":10206:10228   */\n      add\n        /* \"#utility.yul\":10166:10238   */\n      tag_150\n      jump\t// in\n    tag_292:\n        /* \"#utility.yul\":10156:10238   */\n      swap2\n      pop\n        /* \"#utility.yul\":10111:10248   */\n      pop\n        /* \"#utility.yul\":9743:10255   */\n      swap3\n      pop\n      swap3\n      swap1\n      pop\n      jump\t// out\n        /* \"#utility.yul\":10261:11141   */\n    tag_37:\n        /* \"#utility.yul\":10523:10527   */\n      0x00\n        /* \"#utility.yul\":10561:10564   */\n      0xa0\n        /* \"#utility.yul\":10550:10559   */\n      dup3\n        /* \"#utility.yul\":10546:10565   */\n      add\n        /* \"#utility.yul\":10538:10565   */\n      swap1\n      pop\n        /* \"#utility.yul\":10611:10620   */\n      dup2\n        /* \"#utility.yul\":10605:10609   */\n      dup2\n        /* \"#utility.yul\":10601:10621   */\n      sub\n        /* \"#utility.yul\":10597:10598   */\n      0x00\n        /* \"#utility.yul\":10586:10595   */\n      dup4\n        /* \"#utility.yul\":10582:10599   */\n      add\n        /* \"#utility.yul\":10575:10622   */\n      mstore\n        /* \"#utility.yul\":10639:10717   */\n      tag_294\n        /* \"#utility.yul\":10712:10716   */\n      dup2\n        /* \"#utility.yul\":10703:10709   */\n      dup9\n        /* \"#utility.yul\":10639:10717   */\n      tag_138\n      jump\t// in\n    tag_294:\n        /* \"#utility.yul\":10631:10717   */\n      swap1\n      pop\n        /* \"#utility.yul\":10764:10773   */\n      dup2\n        /* \"#utility.yul\":10758:10762   */\n      dup2\n        /* \"#utility.yul\":10754:10774   */\n      sub\n        /* \"#utility.yul\":10749:10751   */\n      0x20\n        /* \"#utility.yul\":10738:10747   */\n      dup4\n        /* \"#utility.yul\":10734:10752   */\n      add\n        /* \"#utility.yul\":10727:10775   */\n      mstore\n        /* \"#utility.yul\":10792:10870   */\n      tag_295\n        /* \"#utility.yul\":10865:10869   */\n      dup2\n        /* \"#utility.yul\":10856:10862   */\n      dup8\n        /* \"#utility.yul\":10792:10870   */\n      tag_138\n      jump\t// in\n    tag_295:\n        /* \"#utility.yul\":10784:10870   */\n      swap1\n      pop\n        /* \"#utility.yul\":10880:10952   */\n      tag_296\n        /* \"#utility.yul\":10948:10950   */\n      0x40\n        /* \"#utility.yul\":10937:10946   */\n      dup4\n        /* \"#utility.yul\":10933:10951   */\n      add\n        /* \"#utility.yul\":10924:10930   */\n      dup7\n        /* \"#utility.yul\":10880:10952   */\n      tag_139\n      jump\t// in\n    tag_296:\n        /* \"#utility.yul\":10962:11051   */\n      tag_297\n        /* \"#utility.yul\":11047:11049   */\n      0x60\n        /* \"#utility.yul\":11036:11045   */\n      dup4\n        /* \"#utility.yul\":11032:11050   */\n      add\n        /* \"#utility.yul\":11023:11029   */\n      dup6\n        /* \"#utility.yul\":10962:11051   */\n      tag_143\n      jump\t// in\n    tag_297:\n        /* \"#utility.yul\":11061:11134   */\n      tag_298\n        /* \"#utility.yul\":11129:11132   */\n      0x80\n        /* \"#utility.yul\":11118:11127   */\n      dup4\n        /* \"#utility.yul\":11114:11133   */\n      add\n        /* \"#utility.yul\":11105:11111   */\n      dup5\n        /* \"#utility.yul\":11061:11134   */\n      tag_139\n      jump\t// in\n    tag_298:\n        /* \"#utility.yul\":10261:11141   */\n      swap7\n      swap6\n      pop\n      pop\n      pop\n      pop\n      pop\n      pop\n      jump\t// out\n        /* \"#utility.yul\":11147:11382   */\n    tag_151:\n        /* \"#utility.yul\":11287:11321   */\n      0x4f6e6c792074686520636f6e7472616374206f776e65722063616e2070657266\n        /* \"#utility.yul\":11283:11284   */\n      0x00\n        /* \"#utility.yul\":11275:11281   */\n      dup3\n        /* \"#utility.yul\":11271:11285   */\n      add\n        /* \"#utility.yul\":11264:11322   */\n      mstore\n        /* \"#utility.yul\":11356:11374   */\n      0x6f726d207468697320616374696f6e2e00000000000000000000000000000000\n        /* \"#utility.yul\":11351:11353   */\n      0x20\n        /* \"#utility.yul\":11343:11349   */\n      dup3\n        /* \"#utility.yul\":11339:11354   */\n      add\n        /* \"#utility.yul\":11332:11375   */\n      mstore\n        /* \"#utility.yul\":11147:11382   */\n      pop\n      jump\t// out\n        /* \"#utility.yul\":11388:11754   */\n    tag_152:\n        /* \"#utility.yul\":11530:11533   */\n      0x00\n        /* \"#utility.yul\":11551:11618   */\n      tag_301\n        /* \"#utility.yul\":11615:11617   */\n      0x30\n        /* \"#utility.yul\":11610:11613   */\n      dup4\n        /* \"#utility.yul\":11551:11618   */\n      tag_136\n      jump\t// in\n    tag_301:\n        /* \"#utility.yul\":11544:11618   */\n      swap2\n      pop\n        /* \"#utility.yul\":11627:11720   */\n      tag_302\n        /* \"#utility.yul\":11716:11719   */\n      dup3\n        /* \"#utility.yul\":11627:11720   */\n      tag_151\n      jump\t// in\n    tag_302:\n        /* \"#utility.yul\":11745:11747   */\n      0x40\n        /* \"#utility.yul\":11740:11743   */\n      dup3\n        /* \"#utility.yul\":11736:11748   */\n      add\n        /* \"#utility.yul\":11729:11748   */\n      swap1\n      pop\n        /* \"#utility.yul\":11388:11754   */\n      swap2\n      swap1\n      pop\n      jump\t// out\n        /* \"#utility.yul\":11760:12179   */\n    tag_41:\n        /* \"#utility.yul\":11926:11930   */\n      0x00\n        /* \"#utility.yul\":11964:11966   */\n      0x20\n        /* \"#utility.yul\":11953:11962   */\n      dup3\n        /* \"#utility.yul\":11949:11967   */\n      add\n        /* \"#utility.yul\":11941:11967   */\n      swap1\n      pop\n        /* \"#utility.yul\":12013:12022   */\n      dup2\n        /* \"#utility.yul\":12007:12011   */\n      dup2\n        /* \"#utility.yul\":12003:12023   */\n      sub\n        /* \"#utility.yul\":11999:12000   */\n      0x00\n        /* \"#utility.yul\":11988:11997   */\n      dup4\n        /* \"#utility.yul\":11984:12001   */\n      add\n        /* \"#utility.yul\":11977:12024   */\n      mstore\n        /* \"#utility.yul\":12041:12172   */\n      tag_304\n        /* \"#utility.yul\":12167:12171   */\n      dup2\n        /* \"#utility.yul\":12041:12172   */\n      tag_152\n      jump\t// in\n    tag_304:\n        /* \"#utility.yul\":12033:12172   */\n      swap1\n      pop\n        /* \"#utility.yul\":11760:12179   */\n      swap2\n      swap1\n      pop\n      jump\t// out\n        /* \"#utility.yul\":12185:12365   */\n    tag_153:\n        /* \"#utility.yul\":12233:12310   */\n      0x4e487b7100000000000000000000000000000000000000000000000000000000\n        /* \"#utility.yul\":12230:12231   */\n      0x00\n        /* \"#utility.yul\":12223:12311   */\n      mstore\n        /* \"#utility.yul\":12330:12334   */\n      0x22\n        /* \"#utility.yul\":12327:12328   */\n      0x04\n        /* \"#utility.yul\":12320:12335   */\n      mstore\n        /* \"#utility.yul\":12354:12358   */\n      0x24\n        /* \"#utility.yul\":12351:12352   */\n      0x00\n        /* \"#utility.yul\":12344:12359   */\n      revert\n        /* \"#utility.yul\":12371:12691   */\n    tag_44:\n        /* \"#utility.yul\":12415:12421   */\n      0x00\n        /* \"#utility.yul\":12452:12453   */\n      0x02\n        /* \"#utility.yul\":12446:12450   */\n      dup3\n        /* \"#utility.yul\":12442:12454   */\n      div\n        /* \"#utility.yul\":12432:12454   */\n      swap1\n      pop\n        /* \"#utility.yul\":12499:12500   */\n      0x01\n        /* \"#utility.yul\":12493:12497   */\n      dup3\n        /* \"#utility.yul\":12489:12501   */\n      and\n        /* \"#utility.yul\":12520:12538   */\n      dup1\n        /* \"#utility.yul\":12510:12591   */\n      tag_307\n      jumpi\n        /* \"#utility.yul\":12576:12580   */\n      0x7f\n        /* \"#utility.yul\":12568:12574   */\n      dup3\n        /* \"#utility.yul\":12564:12581   */\n      and\n        /* \"#utility.yul\":12554:12581   */\n      swap2\n      pop\n        /* \"#utility.yul\":12510:12591   */\n    tag_307:\n        /* \"#utility.yul\":12638:12640   */\n      0x20\n        /* \"#utility.yul\":12630:12636   */\n      dup3\n        /* \"#utility.yul\":12627:12641   */\n      lt\n        /* \"#utility.yul\":12607:12625   */\n      dup2\n        /* \"#utility.yul\":12604:12642   */\n      sub\n        /* \"#utility.yul\":12601:12685   */\n      tag_308\n      jumpi\n        /* \"#utility.yul\":12657:12675   */\n      tag_309\n      tag_153\n      jump\t// in\n    tag_309:\n        /* \"#utility.yul\":12601:12685   */\n    tag_308:\n        /* \"#utility.yul\":12422:12691   */\n      pop\n        /* \"#utility.yul\":12371:12691   */\n      swap2\n      swap1\n      pop\n      jump\t// out\n        /* \"#utility.yul\":12697:12877   */\n    tag_154:\n        /* \"#utility.yul\":12837:12869   */\n      0x436572746966696361746520494420616c7265616479206578697374732e0000\n        /* \"#utility.yul\":12833:12834   */\n      0x00\n        /* \"#utility.yul\":12825:12831   */\n      dup3\n        /* \"#utility.yul\":12821:12835   */\n      add\n        /* \"#utility.yul\":12814:12870   */\n      mstore\n        /* \"#utility.yul\":12697:12877   */\n      pop\n      jump\t// out\n        /* \"#utility.yul\":12883:13249   */\n    tag_155:\n        /* \"#utility.yul\":13025:13028   */\n      0x00\n        /* \"#utility.yul\":13046:13113   */\n      tag_312\n        /* \"#utility.yul\":13110:13112   */\n      0x1e\n        /* \"#utility.yul\":13105:13108   */\n      dup4\n        /* \"#utility.yul\":13046:13113   */\n      tag_136\n      jump\t// in\n    tag_312:\n        /* \"#utility.yul\":13039:13113   */\n      swap2\n      pop\n        /* \"#utility.yul\":13122:13215   */\n      tag_313\n        /* \"#utility.yul\":13211:13214   */\n      dup3\n        /* \"#utility.yul\":13122:13215   */\n      tag_154\n      jump\t// in\n    tag_313:\n        /* \"#utility.yul\":13240:13242   */\n      0x20\n        /* \"#utility.yul\":13235:13238   */\n      dup3\n        /* \"#utility.yul\":13231:13243   */\n      add\n        /* \"#utility.yul\":13224:13243   */\n      swap1\n      pop\n        /* \"#utility.yul\":12883:13249   */\n      swap2\n      swap1\n      pop\n      jump\t// out\n        /* \"#utility.yul\":13255:13674   */\n    tag_47:\n        /* \"#utility.yul\":13421:13425   */\n      0x00\n        /* \"#utility.yul\":13459:13461   */\n      0x20\n        /* \"#utility.yul\":13448:13457   */\n      dup3\n        /* \"#utility.yul\":13444:13462   */\n      add\n        /* \"#utility.yul\":13436:13462   */\n      swap1\n      pop\n        /* \"#utility.yul\":13508:13517   */\n      dup2\n        /* \"#utility.yul\":13502:13506   */\n      dup2\n        /* \"#utility.yul\":13498:13518   */\n      sub\n        /* \"#utility.yul\":13494:13495   */\n      0x00\n        /* \"#utility.yul\":13483:13492   */\n      dup4\n        /* \"#utility.yul\":13479:13496   */\n      add\n        /* \"#utility.yul\":13472:13519   */\n      mstore\n        /* \"#utility.yul\":13536:13667   */\n      tag_315\n        /* \"#utility.yul\":13662:13666   */\n      dup2\n        /* \"#utility.yul\":13536:13667   */\n      tag_155\n      jump\t// in\n    tag_315:\n        /* \"#utility.yul\":13528:13667   */\n      swap1\n      pop\n        /* \"#utility.yul\":13255:13674   */\n      swap2\n      swap1\n      pop\n      jump\t// out\n        /* \"#utility.yul\":13680:13902   */\n    tag_156:\n        /* \"#utility.yul\":13820:13854   */\n      0x457870697265642064617465206d75737420626520696e207468652066757475\n        /* \"#utility.yul\":13816:13817   */\n      0x00\n        /* \"#utility.yul\":13808:13814   */\n      dup3\n        /* \"#utility.yul\":13804:13818   */\n      add\n        /* \"#utility.yul\":13797:13855   */\n      mstore\n        /* \"#utility.yul\":13889:13894   */\n      0x72652e0000000000000000000000000000000000000000000000000000000000\n        /* \"#utility.yul\":13884:13886   */\n      0x20\n        /* \"#utility.yul\":13876:13882   */\n      dup3\n        /* \"#utility.yul\":13872:13887   */\n      add\n        /* \"#utility.yul\":13865:13895   */\n      mstore\n        /* \"#utility.yul\":13680:13902   */\n      pop\n      jump\t// out\n        /* \"#utility.yul\":13908:14274   */\n    tag_157:\n        /* \"#utility.yul\":14050:14053   */\n      0x00\n        /* \"#utility.yul\":14071:14138   */\n      tag_318\n        /* \"#utility.yul\":14135:14137   */\n      0x23\n        /* \"#utility.yul\":14130:14133   */\n      dup4\n        /* \"#utility.yul\":14071:14138   */\n      tag_136\n      jump\t// in\n    tag_318:\n        /* \"#utility.yul\":14064:14138   */\n      swap2\n      pop\n        /* \"#utility.yul\":14147:14240   */\n      tag_319\n        /* \"#utility.yul\":14236:14239   */\n      dup3\n        /* \"#utility.yul\":14147:14240   */\n      tag_156\n      jump\t// in\n    tag_319:\n        /* \"#utility.yul\":14265:14267   */\n      0x40\n        /* \"#utility.yul\":14260:14263   */\n      dup3\n        /* \"#utility.yul\":14256:14268   */\n      add\n        /* \"#utility.yul\":14249:14268   */\n      swap1\n      pop\n        /* \"#utility.yul\":13908:14274   */\n      swap2\n      swap1\n      pop\n      jump\t// out\n        /* \"#utility.yul\":14280:14699   */\n    tag_50:\n        /* \"#utility.yul\":14446:14450   */\n      0x00\n        /* \"#utility.yul\":14484:14486   */\n      0x20\n        /* \"#utility.yul\":14473:14482   */\n      dup3\n        /* \"#utility.yul\":14469:14487   */\n      add\n        /* \"#utility.yul\":14461:14487   */\n      swap1\n      pop\n        /* \"#utility.yul\":14533:14542   */\n      dup2\n        /* \"#utility.yul\":14527:14531   */\n      dup2\n        /* \"#utility.yul\":14523:14543   */\n      sub\n        /* \"#utility.yul\":14519:14520   */\n      0x00\n        /* \"#utility.yul\":14508:14517   */\n      dup4\n        /* \"#utility.yul\":14504:14521   */\n      add\n        /* \"#utility.yul\":14497:14544   */\n      mstore\n        /* \"#utility.yul\":14561:14692   */\n      tag_321\n        /* \"#utility.yul\":14687:14691   */\n      dup2\n        /* \"#utility.yul\":14561:14692   */\n      tag_157\n      jump\t// in\n    tag_321:\n        /* \"#utility.yul\":14553:14692   */\n      swap1\n      pop\n        /* \"#utility.yul\":14280:14699   */\n      swap2\n      swap1\n      pop\n      jump\t// out\n        /* \"#utility.yul\":14705:14846   */\n    tag_158:\n        /* \"#utility.yul\":14754:14758   */\n      0x00\n        /* \"#utility.yul\":14777:14780   */\n      dup2\n        /* \"#utility.yul\":14769:14780   */\n      swap1\n      pop\n        /* \"#utility.yul\":14800:14803   */\n      dup2\n        /* \"#utility.yul\":14797:14798   */\n      0x00\n        /* \"#utility.yul\":14790:14804   */\n      mstore\n        /* \"#utility.yul\":14834:14838   */\n      0x20\n        /* \"#utility.yul\":14831:14832   */\n      0x00\n        /* \"#utility.yul\":14821:14839   */\n      keccak256\n        /* \"#utility.yul\":14813:14839   */\n      swap1\n      pop\n        /* \"#utility.yul\":14705:14846   */\n      swap2\n      swap1\n      pop\n      jump\t// out\n        /* \"#utility.yul\":14852:14945   */\n    tag_159:\n        /* \"#utility.yul\":14889:14895   */\n      0x00\n        /* \"#utility.yul\":14936:14938   */\n      0x20\n        /* \"#utility.yul\":14931:14933   */\n      0x1f\n        /* \"#utility.yul\":14924:14929   */\n      dup4\n        /* \"#utility.yul\":14920:14934   */\n      add\n        /* \"#utility.yul\":14916:14939   */\n      div\n        /* \"#utility.yul\":14906:14939   */\n      swap1\n      pop\n        /* \"#utility.yul\":14852:14945   */\n      swap2\n      swap1\n      pop\n      jump\t// out\n        /* \"#utility.yul\":14951:15058   */\n    tag_160:\n        /* \"#utility.yul\":14995:15003   */\n      0x00\n        /* \"#utility.yul\":15045:15050   */\n      dup3\n        /* \"#utility.yul\":15039:15043   */\n      dup3\n        /* \"#utility.yul\":15035:15051   */\n      shl\n        /* \"#utility.yul\":15014:15051   */\n      swap1\n      pop\n        /* \"#utility.yul\":14951:15058   */\n      swap3\n      swap2\n      pop\n      pop\n      jump\t// out\n        /* \"#utility.yul\":15064:15457   */\n    tag_161:\n        /* \"#utility.yul\":15133:15139   */\n      0x00\n        /* \"#utility.yul\":15183:15184   */\n      0x08\n        /* \"#utility.yul\":15171:15181   */\n      dup4\n        /* \"#utility.yul\":15167:15185   */\n      mul\n        /* \"#utility.yul\":15206:15303   */\n      tag_326\n        /* \"#utility.yul\":15236:15302   */\n      0xffffffffffffffffffffffffffffffffffffffffffffffffffffffffffffffff\n        /* \"#utility.yul\":15225:15234   */\n      dup3\n        /* \"#utility.yul\":15206:15303   */\n      tag_160\n      jump\t// in\n    tag_326:\n        /* \"#utility.yul\":15324:15363   */\n      tag_327\n        /* \"#utility.yul\":15354:15362   */\n      dup7\n        /* \"#utility.yul\":15343:15352   */\n      dup4\n        /* \"#utility.yul\":15324:15363   */\n      tag_160\n      jump\t// in\n    tag_327:\n        /* \"#utility.yul\":15312:15363   */\n      swap6\n      pop\n        /* \"#utility.yul\":15396:15400   */\n      dup1\n        /* \"#utility.yul\":15392:15401   */\n      not\n        /* \"#utility.yul\":15385:15390   */\n      dup5\n        /* \"#utility.yul\":15381:15402   */\n      and\n        /* \"#utility.yul\":15372:15402   */\n      swap4\n      pop\n        /* \"#utility.yul\":15445:15449   */\n      dup1\n        /* \"#utility.yul\":15435:15443   */\n      dup7\n        /* \"#utility.yul\":15431:15450   */\n      and\n        /* \"#utility.yul\":15424:15429   */\n      dup5\n        /* \"#utility.yul\":15421:15451   */\n      or\n        /* \"#utility.yul\":15411:15451   */\n      swap3\n      pop\n        /* \"#utility.yul\":15140:15457   */\n      pop\n      pop\n        /* \"#utility.yul\":15064:15457   */\n      swap4\n      swap3\n      pop\n      pop\n      pop\n      jump\t// out\n        /* \"#utility.yul\":15463:15523   */\n    tag_162:\n        /* \"#utility.yul\":15491:15494   */\n      0x00\n        /* \"#utility.yul\":15512:15517   */\n      dup2\n        /* \"#utility.yul\":15505:15517   */\n      swap1\n      pop\n        /* \"#utility.yul\":15463:15523   */\n      swap2\n      swap1\n      pop\n      jump\t// out\n        /* \"#utility.yul\":15529:15671   */\n    tag_163:\n        /* \"#utility.yul\":15579:15588   */\n      0x00\n        /* \"#utility.yul\":15612:15665   */\n      tag_330\n        /* \"#utility.yul\":15630:15664   */\n      tag_331\n        /* \"#utility.yul\":15639:15663   */\n      tag_332\n        /* \"#utility.yul\":15657:15662   */\n      dup5\n        /* \"#utility.yul\":15639:15663   */\n      tag_131\n      jump\t// in\n    tag_332:\n        /* \"#utility.yul\":15630:15664   */\n      tag_162\n      jump\t// in\n    tag_331:\n        /* \"#utility.yul\":15612:15665   */\n      tag_131\n      jump\t// in\n    tag_330:\n        /* \"#utility.yul\":15599:15665   */\n      swap1\n      pop\n        /* \"#utility.yul\":15529:15671   */\n      swap2\n      swap1\n      pop\n      jump\t// out\n        /* \"#utility.yul\":15677:15752   */\n    tag_164:\n        /* \"#utility.yul\":15720:15723   */\n      0x00\n        /* \"#utility.yul\":15741:15746   */\n      dup2\n        /* \"#utility.yul\":15734:15746   */\n      swap1\n      pop\n        /* \"#utility.yul\":15677:15752   */\n      swap2\n      swap1\n      pop\n      jump\t// out\n        /* \"#utility.yul\":15758:16027   */\n    tag_165:\n        /* \"#utility.yul\":15868:15907   */\n      tag_335\n        /* \"#utility.yul\":15899:15906   */\n      dup4\n        /* \"#utility.yul\":15868:15907   */\n      tag_163\n      jump\t// in\n    tag_335:\n        /* \"#utility.yul\":15929:16020   */\n      tag_336\n        /* \"#utility.yul\":15978:16019   */\n      tag_337\n        /* \"#utility.yul\":16002:16018   */\n      dup3\n        /* \"#utility.yul\":15978:16019   */\n      tag_164\n      jump\t// in\n    tag_337:\n        /* \"#utility.yul\":15970:15976   */\n      dup5\n        /* \"#utility.yul\":15963:15967   */\n      dup5\n        /* \"#utility.yul\":15957:15968   */\n      sload\n        /* \"#utility.yul\":15929:16020   */\n      tag_161\n      jump\t// in\n    tag_336:\n        /* \"#utility.yul\":15923:15927   */\n      dup3\n        /* \"#utility.yul\":15916:16021   */\n      sstore\n        /* \"#utility.yul\":15834:16027   */\n      pop\n        /* \"#utility.yul\":15758:16027   */\n      pop\n      pop\n      pop\n      jump\t// out\n        /* \"#utility.yul\":16033:16106   */\n    tag_166:\n        /* \"#utility.yul\":16078:16081   */\n      0x00\n        /* \"#utility.yul\":16099:16100   */\n      0x00\n        /* \"#utility.yul\":16092:16100   */\n      swap1\n      pop\n        /* \"#utility.yul\":16033:16106   */\n      swap1\n      jump\t// out\n        /* \"#utility.yul\":16112:16301   */\n    tag_167:\n        /* \"#utility.yul\":16189:16221   */\n      tag_340\n      tag_166\n      jump\t// in\n    tag_340:\n        /* \"#utility.yul\":16230:16295   */\n      tag_341\n        /* \"#utility.yul\":16288:16294   */\n      dup2\n        /* \"#utility.yul\":16280:16286   */\n      dup5\n        /* \"#utility.yul\":16274:16278   */\n      dup5\n        /* \"#utility.yul\":16230:16295   */\n      tag_165\n      jump\t// in\n    tag_341:\n        /* \"#utility.yul\":16165:16301   */\n      pop\n        /* \"#utility.yul\":16112:16301   */\n      pop\n      pop\n      jump\t// out\n        /* \"#utility.yul\":16307:16493   */\n    tag_168:\n        /* \"#utility.yul\":16367:16487   */\n    tag_343:\n        /* \"#utility.yul\":16384:16387   */\n      dup2\n        /* \"#utility.yul\":16377:16382   */\n      dup2\n        /* \"#utility.yul\":16374:16388   */\n      lt\n        /* \"#utility.yul\":16367:16487   */\n      iszero\n      tag_345\n      jumpi\n        /* \"#utility.yul\":16438:16477   */\n      tag_346\n        /* \"#utility.yul\":16475:16476   */\n      0x00\n        /* \"#utility.yul\":16468:16473   */\n      dup3\n        /* \"#utility.yul\":16438:16477   */\n      tag_167\n      jump\t// in\n    tag_346:\n        /* \"#utility.yul\":16411:16412   */\n      0x01\n        /* \"#utility.yul\":16404:16409   */\n      dup2\n        /* \"#utility.yul\":16400:16413   */\n      add\n        /* \"#utility.yul\":16391:16413   */\n      swap1\n      pop\n        /* \"#utility.yul\":16367:16487   */\n      jump(tag_343)\n    tag_345:\n        /* \"#utility.yul\":16307:16493   */\n      pop\n      pop\n      jump\t// out\n        /* \"#utility.yul\":16499:17042   */\n    tag_169:\n        /* \"#utility.yul\":16600:16602   */\n      0x1f\n        /* \"#utility.yul\":16595:16598   */\n      dup3\n        /* \"#utility.yul\":16592:16603   */\n      gt\n        /* \"#utility.yul\":16589:17035   */\n      iszero\n      tag_348\n      jumpi\n        /* \"#utility.yul\":16634:16672   */\n      tag_349\n        /* \"#utility.yul\":16666:16671   */\n      dup2\n        /* \"#utility.yul\":16634:16672   */\n      tag_158\n      jump\t// in\n    tag_349:\n        /* \"#utility.yul\":16718:16747   */\n      tag_350\n        /* \"#utility.yul\":16736:16746   */\n      dup5\n        /* \"#utility.yul\":16718:16747   */\n      tag_159\n      jump\t// in\n    tag_350:\n        /* \"#utility.yul\":16708:16716   */\n      dup2\n        /* \"#utility.yul\":16704:16748   */\n      add\n        /* \"#utility.yul\":16901:16903   */\n      0x20\n        /* \"#utility.yul\":16889:16899   */\n      dup6\n        /* \"#utility.yul\":16886:16904   */\n      lt\n        /* \"#utility.yul\":16883:16932   */\n      iszero\n      tag_351\n      jumpi\n        /* \"#utility.yul\":16922:16930   */\n      dup2\n        /* \"#utility.yul\":16907:16930   */\n      swap1\n      pop\n        /* \"#utility.yul\":16883:16932   */\n    tag_351:\n        /* \"#utility.yul\":16945:17025   */\n      tag_352\n        /* \"#utility.yul\":17001:17023   */\n      tag_353\n        /* \"#utility.yul\":17019:17022   */\n      dup6\n        /* \"#utility.yul\":17001:17023   */\n      tag_159\n      jump\t// in\n    tag_353:\n        /* \"#utility.yul\":16991:16999   */\n      dup4\n        /* \"#utility.yul\":16987:17024   */\n      add\n        /* \"#utility.yul\":16974:16985   */\n      dup3\n        /* \"#utility.yul\":16945:17025   */\n      tag_168\n      jump\t// in\n    tag_352:\n        /* \"#utility.yul\":16604:17035   */\n      pop\n      pop\n        /* \"#utility.yul\":16589:17035   */\n    tag_348:\n        /* \"#utility.yul\":16499:17042   */\n      pop\n      pop\n      pop\n      jump\t// out\n        /* \"#utility.yul\":17048:17165   */\n    tag_170:\n        /* \"#utility.yul\":17102:17110   */\n      0x00\n        /* \"#utility.yul\":17152:17157   */\n      dup3\n        /* \"#utility.yul\":17146:17150   */\n      dup3\n        /* \"#utility.yul\":17142:17158   */\n      shr\n        /* \"#utility.yul\":17121:17158   */\n      swap1\n      pop\n        /* \"#utility.yul\":17048:17165   */\n      swap3\n      swap2\n      pop\n      pop\n      jump\t// out\n        /* \"#utility.yul\":17171:17340   */\n    tag_171:\n        /* \"#utility.yul\":17215:17221   */\n      0x00\n        /* \"#utility.yul\":17248:17299   */\n      tag_356\n        /* \"#utility.yul\":17296:17297   */\n      0x00\n        /* \"#utility.yul\":17292:17298   */\n      not\n        /* \"#utility.yul\":17284:17289   */\n      dup5\n        /* \"#utility.yul\":17281:17282   */\n      0x08\n        /* \"#utility.yul\":17277:17290   */\n      mul\n        /* \"#utility.yul\":17248:17299   */\n      tag_170\n      jump\t// in\n    tag_356:\n        /* \"#utility.yul\":17244:17300   */\n      not\n        /* \"#utility.yul\":17329:17333   */\n      dup1\n        /* \"#utility.yul\":17323:17327   */\n      dup4\n        /* \"#utility.yul\":17319:17334   */\n      and\n        /* \"#utility.yul\":17309:17334   */\n      swap2\n      pop\n        /* \"#utility.yul\":17222:17340   */\n      pop\n        /* \"#utility.yul\":17171:17340   */\n      swap3\n      swap2\n      pop\n      pop\n      jump\t// out\n        /* \"#utility.yul\":17345:17640   */\n    tag_172:\n        /* \"#utility.yul\":17421:17425   */\n      0x00\n        /* \"#utility.yul\":17567:17596   */\n      tag_358\n        /* \"#utility.yul\":17592:17595   */\n      dup4\n        /* \"#utility.yul\":17586:17590   */\n      dup4\n        /* \"#utility.yul\":17567:17596   */\n      tag_171\n      jump\t// in\n    tag_358:\n        /* \"#utility.yul\":17559:17596   */\n      swap2\n      pop\n        /* \"#utility.yul\":17629:17632   */\n      dup3\n        /* \"#utility.yul\":17626:17627   */\n      0x02\n        /* \"#utility.yul\":17622:17633   */\n      mul\n        /* \"#utility.yul\":17616:17620   */\n      dup3\n        /* \"#utility.yul\":17613:17634   */\n      or\n        /* \"#utility.yul\":17605:17634   */\n      swap1\n      pop\n        /* \"#utility.yul\":17345:17640   */\n      swap3\n      swap2\n      pop\n      pop\n      jump\t// out\n        /* \"#utility.yul\":17645:19040   */\n    tag_55:\n        /* \"#utility.yul\":17762:17799   */\n      tag_360\n        /* \"#utility.yul\":17795:17798   */\n      dup3\n        /* \"#utility.yul\":17762:17799   */\n      tag_135\n      jump\t// in\n    tag_360:\n        /* \"#utility.yul\":17864:17882   */\n      0xffffffffffffffff\n        /* \"#utility.yul\":17856:17862   */\n      dup2\n        /* \"#utility.yul\":17853:17883   */\n      gt\n        /* \"#utility.yul\":17850:17906   */\n      iszero\n      tag_361\n      jumpi\n        /* \"#utility.yul\":17886:17904   */\n      tag_362\n      tag_124\n      jump\t// in\n    tag_362:\n        /* \"#utility.yul\":17850:17906   */\n    tag_361:\n        /* \"#utility.yul\":17930:17968   */\n      tag_363\n        /* \"#utility.yul\":17962:17966   */\n      dup3\n        /* \"#utility.yul\":17956:17967   */\n      sload\n        /* \"#utility.yul\":17930:17968   */\n      tag_44\n      jump\t// in\n    tag_363:\n        /* \"#utility.yul\":18015:18082   */\n      tag_364\n        /* \"#utility.yul\":18075:18081   */\n      dup3\n        /* \"#utility.yul\":18067:18073   */\n      dup3\n        /* \"#utility.yul\":18061:18065   */\n      dup6\n        /* \"#utility.yul\":18015:18082   */\n      tag_169\n      jump\t// in\n    tag_364:\n        /* \"#utility.yul\":18109:18110   */\n      0x00\n        /* \"#utility.yul\":18133:18137   */\n      0x20\n        /* \"#utility.yul\":18120:18137   */\n      swap1\n      pop\n        /* \"#utility.yul\":18165:18167   */\n      0x1f\n        /* \"#utility.yul\":18157:18163   */\n      dup4\n        /* \"#utility.yul\":18154:18168   */\n      gt\n        /* \"#utility.yul\":18182:18183   */\n      0x01\n        /* \"#utility.yul\":18177:18795   */\n      dup2\n      eq\n      tag_366\n      jumpi\n        /* \"#utility.yul\":18839:18840   */\n      0x00\n        /* \"#utility.yul\":18856:18862   */\n      dup5\n        /* \"#utility.yul\":18853:18930   */\n      iszero\n      tag_367\n      jumpi\n        /* \"#utility.yul\":18905:18914   */\n      dup3\n        /* \"#utility.yul\":18900:18903   */\n      dup8\n        /* \"#utility.yul\":18896:18915   */\n      add\n        /* \"#utility.yul\":18890:18916   */\n      mload\n        /* \"#utility.yul\":18881:18916   */\n      swap1\n      pop\n        /* \"#utility.yul\":18853:18930   */\n    tag_367:\n        /* \"#utility.yul\":18956:19023   */\n      tag_368\n        /* \"#utility.yul\":19016:19022   */\n      dup6\n        /* \"#utility.yul\":19009:19014   */\n      dup3\n        /* \"#utility.yul\":18956:19023   */\n      tag_172\n      jump\t// in\n    tag_368:\n        /* \"#utility.yul\":18950:18954   */\n      dup7\n        /* \"#utility.yul\":18943:19024   */\n      sstore\n        /* \"#utility.yul\":18812:19034   */\n      pop\n        /* \"#utility.yul\":18147:19034   */\n      jump(tag_365)\n        /* \"#utility.yul\":18177:18795   */\n    tag_366:\n        /* \"#utility.yul\":18229:18233   */\n      0x1f\n        /* \"#utility.yul\":18225:18234   */\n      not\n        /* \"#utility.yul\":18217:18223   */\n      dup5\n        /* \"#utility.yul\":18213:18235   */\n      and\n        /* \"#utility.yul\":18263:18300   */\n      tag_369\n        /* \"#utility.yul\":18295:18299   */\n      dup7\n        /* \"#utility.yul\":18263:18300   */\n      tag_158\n      jump\t// in\n    tag_369:\n        /* \"#utility.yul\":18322:18323   */\n      0x00\n        /* \"#utility.yul\":18336:18544   */\n    tag_370:\n        /* \"#utility.yul\":18350:18357   */\n      dup3\n        /* \"#utility.yul\":18347:18348   */\n      dup2\n        /* \"#utility.yul\":18344:18358   */\n      lt\n        /* \"#utility.yul\":18336:18544   */\n      iszero\n      tag_372\n      jumpi\n        /* \"#utility.yul\":18429:18438   */\n      dup5\n        /* \"#utility.yul\":18424:18427   */\n      dup10\n        /* \"#utility.yul\":18420:18439   */\n      add\n        /* \"#utility.yul\":18414:18440   */\n      mload\n        /* \"#utility.yul\":18406:18412   */\n      dup3\n        /* \"#utility.yul\":18399:18441   */\n      sstore\n        /* \"#utility.yul\":18480:18481   */\n      0x01\n        /* \"#utility.yul\":18472:18478   */\n      dup3\n        /* \"#utility.yul\":18468:18482   */\n      add\n        /* \"#utility.yul\":18458:18482   */\n      swap2\n      pop\n        /* \"#utility.yul\":18527:18529   */\n      0x20\n        /* \"#utility.yul\":18516:18525   */\n      dup6\n        /* \"#utility.yul\":18512:18530   */\n      add\n        /* \"#utility.yul\":18499:18530   */\n      swap5\n      pop\n        /* \"#utility.yul\":18373:18377   */\n      0x20\n        /* \"#utility.yul\":18370:18371   */\n      dup2\n        /* \"#utility.yul\":18366:18378   */\n      add\n        /* \"#utility.yul\":18361:18378   */\n      swap1\n      pop\n        /* \"#utility.yul\":18336:18544   */\n      jump(tag_370)\n    tag_372:\n        /* \"#utility.yul\":18572:18578   */\n      dup7\n        /* \"#utility.yul\":18563:18570   */\n      dup4\n        /* \"#utility.yul\":18560:18579   */\n      lt\n        /* \"#utility.yul\":18557:18736   */\n      iszero\n      tag_373\n      jumpi\n        /* \"#utility.yul\":18630:18639   */\n      dup5\n        /* \"#utility.yul\":18625:18628   */\n      dup10\n        /* \"#utility.yul\":18621:18640   */\n      add\n        /* \"#utility.yul\":18615:18641   */\n      mload\n        /* \"#utility.yul\":18673:18721   */\n      tag_374\n        /* \"#utility.yul\":18715:18719   */\n      0x1f\n        /* \"#utility.yul\":18707:18713   */\n      dup10\n        /* \"#utility.yul\":18703:18720   */\n      and\n        /* \"#utility.yul\":18692:18701   */\n      dup3\n        /* \"#utility.yul\":18673:18721   */\n      tag_171\n      jump\t// in\n    tag_374:\n        /* \"#utility.yul\":18665:18671   */\n      dup4\n        /* \"#utility.yul\":18658:18722   */\n      sstore\n        /* \"#utility.yul\":18580:18736   */\n      pop\n        /* \"#utility.yul\":18557:18736   */\n    tag_373:\n        /* \"#utility.yul\":18782:18783   */\n      0x01\n        /* \"#utility.yul\":18778:18779   */\n      0x02\n        /* \"#utility.yul\":18770:18776   */\n      dup9\n        /* \"#utility.yul\":18766:18780   */\n      mul\n        /* \"#utility.yul\":18762:18784   */\n      add\n        /* \"#utility.yul\":18756:18760   */\n      dup9\n        /* \"#utility.yul\":18749:18785   */\n      sstore\n        /* \"#utility.yul\":18184:18795   */\n      pop\n      pop\n      pop\n        /* \"#utility.yul\":18147:19034   */\n    tag_365:\n      pop\n        /* \"#utility.yul\":17737:19040   */\n      pop\n      pop\n      pop\n        /* \"#utility.yul\":17645:19040   */\n      pop\n      pop\n      jump\t// out\n        /* \"#utility.yul\":19046:19892   */\n    tag_60:\n        /* \"#utility.yul\":19291:19295   */\n      0x00\n        /* \"#utility.yul\":19329:19332   */\n      0xa0\n        /* \"#utility.yul\":19318:19327   */\n      dup3\n        /* \"#utility.yul\":19314:19333   */\n      add\n        /* \"#utility.yul\":19306:19333   */\n      swap1\n      pop\n        /* \"#utility.yul\":19379:19388   */\n      dup2\n        /* \"#utility.yul\":19373:19377   */\n      dup2\n        /* \"#utility.yul\":19369:19389   */\n      sub\n        /* \"#utility.yul\":19365:19366   */\n      0x00\n        /* \"#utility.yul\":19354:19363   */\n      dup4\n        /* \"#utility.yul\":19350:19367   */\n      add\n        /* \"#utility.yul\":19343:19390   */\n      mstore\n        /* \"#utility.yul\":19407:19485   */\n      tag_376\n        /* \"#utility.yul\":19480:19484   */\n      dup2\n        /* \"#utility.yul\":19471:19477   */\n      dup9\n        /* \"#utility.yul\":19407:19485   */\n      tag_138\n      jump\t// in\n    tag_376:\n        /* \"#utility.yul\":19399:19485   */\n      swap1\n      pop\n        /* \"#utility.yul\":19532:19541   */\n      dup2\n        /* \"#utility.yul\":19526:19530   */\n      dup2\n        /* \"#utility.yul\":19522:19542   */\n      sub\n        /* \"#utility.yul\":19517:19519   */\n      0x20\n        /* \"#utility.yul\":19506:19515   */\n      dup4\n        /* \"#utility.yul\":19502:19520   */\n      add\n        /* \"#utility.yul\":19495:19543   */\n      mstore\n        /* \"#utility.yul\":19560:19638   */\n      tag_377\n        /* \"#utility.yul\":19633:19637   */\n      dup2\n        /* \"#utility.yul\":19624:19630   */\n      dup8\n        /* \"#utility.yul\":19560:19638   */\n      tag_138\n      jump\t// in\n    tag_377:\n        /* \"#utility.yul\":19552:19638   */\n      swap1\n      pop\n        /* \"#utility.yul\":19648:19720   */\n      tag_378\n        /* \"#utility.yul\":19716:19718   */\n      0x40\n        /* \"#utility.yul\":19705:19714   */\n      dup4\n        /* \"#utility.yul\":19701:19719   */\n      add\n        /* \"#utility.yul\":19692:19698   */\n      dup7\n        /* \"#utility.yul\":19648:19720   */\n      tag_139\n      jump\t// in\n    tag_378:\n        /* \"#utility.yul\":19730:19802   */\n      tag_379\n        /* \"#utility.yul\":19798:19800   */\n      0x60\n        /* \"#utility.yul\":19787:19796   */\n      dup4\n        /* \"#utility.yul\":19783:19801   */\n      add\n        /* \"#utility.yul\":19774:19780   */\n      dup6\n        /* \"#utility.yul\":19730:19802   */\n      tag_139\n      jump\t// in\n    tag_379:\n        /* \"#utility.yul\":19812:19885   */\n      tag_380\n        /* \"#utility.yul\":19880:19883   */\n      0x80\n        /* \"#utility.yul\":19869:19878   */\n      dup4\n        /* \"#utility.yul\":19865:19884   */\n      add\n        /* \"#utility.yul\":19856:19862   */\n      dup5\n        /* \"#utility.yul\":19812:19885   */\n      tag_148\n      jump\t// in\n    tag_380:\n        /* \"#utility.yul\":19046:19892   */\n      swap7\n      swap6\n      pop\n      pop\n      pop\n      pop\n      pop\n      pop\n      jump\t// out\n        /* \"#utility.yul\":19898:20046   */\n    tag_173:\n        /* \"#utility.yul\":20000:20011   */\n      0x00\n        /* \"#utility.yul\":20037:20040   */\n      dup2\n        /* \"#utility.yul\":20022:20040   */\n      swap1\n      pop\n        /* \"#utility.yul\":19898:20046   */\n      swap3\n      swap2\n      pop\n      pop\n      jump\t// out\n        /* \"#utility.yul\":20052:20442   */\n    tag_174:\n        /* \"#utility.yul\":20158:20161   */\n      0x00\n        /* \"#utility.yul\":20186:20225   */\n      tag_383\n        /* \"#utility.yul\":20219:20224   */\n      dup3\n        /* \"#utility.yul\":20186:20225   */\n      tag_135\n      jump\t// in\n    tag_383:\n        /* \"#utility.yul\":20241:20330   */\n      tag_384\n        /* \"#utility.yul\":20323:20329   */\n      dup2\n        /* \"#utility.yul\":20318:20321   */\n      dup6\n        /* \"#utility.yul\":20241:20330   */\n      tag_173\n      jump\t// in\n    tag_384:\n        /* \"#utility.yul\":20234:20330   */\n      swap4\n      pop\n        /* \"#utility.yul\":20339:20404   */\n      tag_385\n        /* \"#utility.yul\":20397:20403   */\n      dup2\n        /* \"#utility.yul\":20392:20395   */\n      dup6\n        /* \"#utility.yul\":20385:20389   */\n      0x20\n        /* \"#utility.yul\":20378:20383   */\n      dup7\n        /* \"#utility.yul\":20374:20390   */\n      add\n        /* \"#utility.yul\":20339:20404   */\n      tag_137\n      jump\t// in\n    tag_385:\n        /* \"#utility.yul\":20429:20435   */\n      dup1\n        /* \"#utility.yul\":20424:20427   */\n      dup5\n        /* \"#utility.yul\":20420:20436   */\n      add\n        /* \"#utility.yul\":20413:20436   */\n      swap2\n      pop\n        /* \"#utility.yul\":20162:20442   */\n      pop\n        /* \"#utility.yul\":20052:20442   */\n      swap3\n      swap2\n      pop\n      pop\n      jump\t// out\n        /* \"#utility.yul\":20448:20883   */\n    tag_63:\n        /* \"#utility.yul\":20628:20631   */\n      0x00\n        /* \"#utility.yul\":20650:20745   */\n      tag_387\n        /* \"#utility.yul\":20741:20744   */\n      dup3\n        /* \"#utility.yul\":20732:20738   */\n      dup6\n        /* \"#utility.yul\":20650:20745   */\n      tag_174\n      jump\t// in\n    tag_387:\n        /* \"#utility.yul\":20643:20745   */\n      swap2\n      pop\n        /* \"#utility.yul\":20762:20857   */\n      tag_388\n        /* \"#utility.yul\":20853:20856   */\n      dup3\n        /* \"#utility.yul\":20844:20850   */\n      dup5\n        /* \"#utility.yul\":20762:20857   */\n      tag_174\n      jump\t// in\n    tag_388:\n        /* \"#utility.yul\":20755:20857   */\n      swap2\n      pop\n        /* \"#utility.yul\":20874:20877   */\n      dup2\n        /* \"#utility.yul\":20867:20877   */\n      swap1\n      pop\n        /* \"#utility.yul\":20448:20883   */\n      swap4\n      swap3\n      pop\n      pop\n      pop\n      jump\t// out\n        /* \"#utility.yul\":20889:21066   */\n    tag_175:\n        /* \"#utility.yul\":21029:21058   */\n      0x436572746966696361746520646f6573206e6f742065786973742e0000000000\n        /* \"#utility.yul\":21025:21026   */\n      0x00\n        /* \"#utility.yul\":21017:21023   */\n      dup3\n        /* \"#utility.yul\":21013:21027   */\n      add\n        /* \"#utility.yul\":21006:21059   */\n      mstore\n        /* \"#utility.yul\":20889:21066   */\n      pop\n      jump\t// out\n        /* \"#utility.yul\":21072:21438   */\n    tag_176:\n        /* \"#utility.yul\":21214:21217   */\n      0x00\n        /* \"#utility.yul\":21235:21302   */\n      tag_391\n        /* \"#utility.yul\":21299:21301   */\n      0x1b\n        /* \"#utility.yul\":21294:21297   */\n      dup4\n        /* \"#utility.yul\":21235:21302   */\n      tag_136\n      jump\t// in\n    tag_391:\n        /* \"#utility.yul\":21228:21302   */\n      swap2\n      pop\n        /* \"#utility.yul\":21311:21404   */\n      tag_392\n        /* \"#utility.yul\":21400:21403   */\n      dup3\n        /* \"#utility.yul\":21311:21404   */\n      tag_175\n      jump\t// in\n    tag_392:\n        /* \"#utility.yul\":21429:21431   */\n      0x20\n        /* \"#utility.yul\":21424:21427   */\n      dup3\n        /* \"#utility.yul\":21420:21432   */\n      add\n        /* \"#utility.yul\":21413:21432   */\n      swap1\n      pop\n        /* \"#utility.yul\":21072:21438   */\n      swap2\n      swap1\n      pop\n      jump\t// out\n        /* \"#utility.yul\":21444:21863   */\n    tag_92:\n        /* \"#utility.yul\":21610:21614   */\n      0x00\n        /* \"#utility.yul\":21648:21650   */\n      0x20\n        /* \"#utility.yul\":21637:21646   */\n      dup3\n        /* \"#utility.yul\":21633:21651   */\n      add\n        /* \"#utility.yul\":21625:21651   */\n      swap1\n      pop\n        /* \"#utility.yul\":21697:21706   */\n      dup2\n        /* \"#utility.yul\":21691:21695   */\n      dup2\n        /* \"#utility.yul\":21687:21707   */\n      sub\n        /* \"#utility.yul\":21683:21684   */\n      0x00\n        /* \"#utility.yul\":21672:21681   */\n      dup4\n        /* \"#utility.yul\":21668:21685   */\n      add\n        /* \"#utility.yul\":21661:21708   */\n      mstore\n        /* \"#utility.yul\":21725:21856   */\n      tag_394\n        /* \"#utility.yul\":21851:21855   */\n      dup2\n        /* \"#utility.yul\":21725:21856   */\n      tag_176\n      jump\t// in\n    tag_394:\n        /* \"#utility.yul\":21717:21856   */\n      swap1\n      pop\n        /* \"#utility.yul\":21444:21863   */\n      swap2\n      swap1\n      pop\n      jump\t// out\n        /* \"#utility.yul\":21869:22235   */\n    tag_96:\n        /* \"#utility.yul\":22007:22011   */\n      0x00\n        /* \"#utility.yul\":22045:22047   */\n      0x40\n        /* \"#utility.yul\":22034:22043   */\n      dup3\n        /* \"#utility.yul\":22030:22048   */\n      add\n        /* \"#utility.yul\":22022:22048   */\n      swap1\n      pop\n        /* \"#utility.yul\":22058:22146   */\n      tag_396\n        /* \"#utility.yul\":22143:22144   */\n      0x00\n        /* \"#utility.yul\":22132:22141   */\n      dup4\n        /* \"#utility.yul\":22128:22145   */\n      add\n        /* \"#utility.yul\":22119:22125   */\n      dup6\n        /* \"#utility.yul\":22058:22146   */\n      tag_143\n      jump\t// in\n    tag_396:\n        /* \"#utility.yul\":22156:22228   */\n      tag_397\n        /* \"#utility.yul\":22224:22226   */\n      0x20\n        /* \"#utility.yul\":22213:22222   */\n      dup4\n        /* \"#utility.yul\":22209:22227   */\n      add\n        /* \"#utility.yul\":22200:22206   */\n      dup5\n        /* \"#utility.yul\":22156:22228   */\n      tag_148\n      jump\t// in\n    tag_397:\n        /* \"#utility.yul\":21869:22235   */\n      swap4\n      swap3\n      pop\n      pop\n      pop\n      jump\t// out\n\n    auxdata: 0xa2646970667358221220ab2c70c0a905134cc85b2c7be1860ffe67099347257a1f92d0c91e64a6c001c164736f6c634300081e0033\n}\n",
				"bytecode": {
					"linkReferences": {},
					"object": "6080604052348015600e575f5ffd5b503360015f6101000a81548173ffffffffffffffffffffffffffffffffffffffff021916908373ffffffffffffffffffffffffffffffffffffffff1602179055506115188061005c5f395ff3fe608060405234801561000f575f5ffd5b5060043610610060575f3560e01c806307e56310146100645780637fca072e14610080578063850c1768146100b05780638da5cb5b146100e5578063f1141ce014610103578063f333fe081461011f575b5f5ffd5b61007e60048036038101906100799190610b61565b610153565b005b61009a60048036038101906100959190610bfd565b610384565b6040516100a79190610c82565b60405180910390f35b6100ca60048036038101906100c59190610c9b565b6103b6565b6040516100dc96959493929190610dc2565b60405180910390f35b6100ed610603565b6040516100fa9190610e6e565b60405180910390f35b61011d60048036038101906101189190610eaa565b610628565b005b61013960048036038101906101349190610c9b565b610790565b60405161014a959493929190610ee8565b60405180910390f35b60015f9054906101000a900473ffffffffffffffffffffffffffffffffffffffff1673ffffffffffffffffffffffffffffffffffffffff163373ffffffffffffffffffffffffffffffffffffffff16146101e2576040517f08c379a00000000000000000000000000000000000000000000000000000000081526004016101d990610fb7565b60405180910390fd5b5f5f5f8681526020019081526020015f20600101805461020190611002565b905014610243576040517f08c379a000000000000000000000000000000000000000000000000000000000815260040161023a9061107c565b60405180910390fd5b428111610285576040517f08c379a000000000000000000000000000000000000000000000000000000000815260040161027c9061110a565b60405180910390fd5b6040518060a001604052808481526020018381526020014281526020015f60018111156102b5576102b4610d35565b5b8152602001828152505f5f8681526020019081526020015f205f820151815f0190816102e191906112c8565b5060208201518160010190816102f791906112c8565b50604082015181600201556060820151816003015f6101000a81548160ff0219169083600181111561032c5761032b610d35565b5b021790555060808201518160040155905050837f7c2d7d6cc87e3265a341a03245e1c8404113171fcaf3750b66d74d614a49932f8484428533604051610376959493929190611397565b60405180910390a250505050565b5f8282604051602001610398929190611430565b60405160208183030381529060405280519060200120905092915050565b6060805f5f5f5f5f5f5f8981526020019081526020015f206040518060a00160405290815f820180546103e890611002565b80601f016020809104026020016040519081016040528092919081815260200182805461041490611002565b801561045f5780601f106104365761010080835404028352916020019161045f565b820191905f5260205f20905b81548152906001019060200180831161044257829003601f168201915b5050505050815260200160018201805461047890611002565b80601f01602080910402602001604051908101604052809291908181526020018280546104a490611002565b80156104ef5780601f106104c6576101008083540402835291602001916104ef565b820191905f5260205f20905b8154815290600101906020018083116104d257829003601f168201915b5050505050815260200160028201548152602001600382015f9054906101000a900460ff16600181111561052657610525610d35565b5b600181111561053857610537610d35565b5b815260200160048201548152505090505f81602001515103610590575f5f5f5f60405180602001604052805f8152509392919060405180602001604052805f81525093929190965096509650965096509650506105fa565b5f4282608001511190505f5f60018111156105ae576105ad610d35565b5b836060015160018111156105c5576105c4610d35565b5b149050825f015183602001518460400151856060015186608001518680156105ea5750855b9850985098509850985098505050505b91939550919395565b60015f9054906101000a900473ffffffffffffffffffffffffffffffffffffffff1681565b60015f9054906101000a900473ffffffffffffffffffffffffffffffffffffffff1673ffffffffffffffffffffffffffffffffffffffff163373ffffffffffffffffffffffffffffffffffffffff16146106b7576040517f08c379a00000000000000000000000000000000000000000000000000000000081526004016106ae90610fb7565b60405180910390fd5b5f5f5f8481526020019081526020015f2060010180546106d690611002565b905011610718576040517f08c379a000000000000000000000000000000000000000000000000000000000815260040161070f9061149d565b60405180910390fd5b805f5f8481526020019081526020015f206003015f6101000a81548160ff0219169083600181111561074d5761074c610d35565b5b0217905550817f732720185d98a39ea88255e2e95e63fbafcaa08a661f7c2e654947dbd67d55ec82336040516107849291906114bb565b60405180910390a25050565b6060805f5f5f5f5f5f8881526020019081526020015f2060010180546107b590611002565b9050116107f7576040517f08c379a00000000000000000000000000000000000000000000000000000000081526004016107ee9061149d565b60405180910390fd5b5f5f5f8881526020019081526020015f206040518060a00160405290815f8201805461082290611002565b80601f016020809104026020016040519081016040528092919081815260200182805461084e90611002565b80156108995780601f1061087057610100808354040283529160200191610899565b820191905f5260205f20905b81548152906001019060200180831161087c57829003601f168201915b505050505081526020016001820180546108b290611002565b80601f01602080910402602001604051908101604052809291908181526020018280546108de90611002565b80156109295780601f1061090057610100808354040283529160200191610929565b820191905f5260205f20905b81548152906001019060200180831161090c57829003601f168201915b5050505050815260200160028201548152602001600382015f9054906101000a900460ff1660018111156109605761095f610d35565b5b600181111561097257610971610d35565b5b81526020016004820154815250509050805f01518160200151826040015183606001518460800151955095509550955095505091939590929450565b5f604051905090565b5f5ffd5b5f5ffd5b5f819050919050565b6109d1816109bf565b81146109db575f5ffd5b50565b5f813590506109ec816109c8565b92915050565b5f5ffd5b5f5ffd5b5f601f19601f8301169050919050565b7f4e487b71000000000000000000000000000000000000000000000000000000005f52604160045260245ffd5b610a40826109fa565b810181811067ffffffffffffffff82111715610a5f57610a5e610a0a565b5b80604052505050565b5f610a716109ae565b9050610a7d8282610a37565b919050565b5f67ffffffffffffffff821115610a9c57610a9b610a0a565b5b610aa5826109fa565b9050602081019050919050565b828183375f83830152505050565b5f610ad2610acd84610a82565b610a68565b905082815260208101848484011115610aee57610aed6109f6565b5b610af9848285610ab2565b509392505050565b5f82601f830112610b1557610b146109f2565b5b8135610b25848260208601610ac0565b91505092915050565b5f819050919050565b610b4081610b2e565b8114610b4a575f5ffd5b50565b5f81359050610b5b81610b37565b92915050565b5f5f5f5f60808587031215610b7957610b786109b7565b5b5f610b86878288016109de565b945050602085013567ffffffffffffffff811115610ba757610ba66109bb565b5b610bb387828801610b01565b935050604085013567ffffffffffffffff811115610bd457610bd36109bb565b5b610be087828801610b01565b9250506060610bf187828801610b4d565b91505092959194509250565b5f5f60408385031215610c1357610c126109b7565b5b5f83013567ffffffffffffffff811115610c3057610c2f6109bb565b5b610c3c85828601610b01565b925050602083013567ffffffffffffffff811115610c5d57610c5c6109bb565b5b610c6985828601610b01565b9150509250929050565b610c7c816109bf565b82525050565b5f602082019050610c955f830184610c73565b92915050565b5f60208284031215610cb057610caf6109b7565b5b5f610cbd848285016109de565b91505092915050565b5f81519050919050565b5f82825260208201905092915050565b8281835e5f83830152505050565b5f610cf882610cc6565b610d028185610cd0565b9350610d12818560208601610ce0565b610d1b816109fa565b840191505092915050565b610d2f81610b2e565b82525050565b7f4e487b71000000000000000000000000000000000000000000000000000000005f52602160045260245ffd5b60028110610d7357610d72610d35565b5b50565b5f819050610d8382610d62565b919050565b5f610d9282610d76565b9050919050565b610da281610d88565b82525050565b5f8115159050919050565b610dbc81610da8565b82525050565b5f60c0820190508181035f830152610dda8189610cee565b90508181036020830152610dee8188610cee565b9050610dfd6040830187610d26565b610e0a6060830186610d99565b610e176080830185610d26565b610e2460a0830184610db3565b979650505050505050565b5f73ffffffffffffffffffffffffffffffffffffffff82169050919050565b5f610e5882610e2f565b9050919050565b610e6881610e4e565b82525050565b5f602082019050610e815f830184610e5f565b92915050565b60028110610e93575f5ffd5b50565b5f81359050610ea481610e87565b92915050565b5f5f60408385031215610ec057610ebf6109b7565b5b5f610ecd858286016109de565b9250506020610ede85828601610e96565b9150509250929050565b5f60a0820190508181035f830152610f008188610cee565b90508181036020830152610f148187610cee565b9050610f236040830186610d26565b610f306060830185610d99565b610f3d6080830184610d26565b9695505050505050565b7f4f6e6c792074686520636f6e7472616374206f776e65722063616e20706572665f8201527f6f726d207468697320616374696f6e2e00000000000000000000000000000000602082015250565b5f610fa1603083610cd0565b9150610fac82610f47565b604082019050919050565b5f6020820190508181035f830152610fce81610f95565b9050919050565b7f4e487b71000000000000000000000000000000000000000000000000000000005f52602260045260245ffd5b5f600282049050600182168061101957607f821691505b60208210810361102c5761102b610fd5565b5b50919050565b7f436572746966696361746520494420616c7265616479206578697374732e00005f82015250565b5f611066601e83610cd0565b915061107182611032565b602082019050919050565b5f6020820190508181035f8301526110938161105a565b9050919050565b7f457870697265642064617465206d75737420626520696e2074686520667574755f8201527f72652e0000000000000000000000000000000000000000000000000000000000602082015250565b5f6110f4602383610cd0565b91506110ff8261109a565b604082019050919050565b5f6020820190508181035f830152611121816110e8565b9050919050565b5f819050815f5260205f209050919050565b5f6020601f8301049050919050565b5f82821b905092915050565b5f600883026111847fffffffffffffffffffffffffffffffffffffffffffffffffffffffffffffffff82611149565b61118e8683611149565b95508019841693508086168417925050509392505050565b5f819050919050565b5f6111c96111c46111bf84610b2e565b6111a6565b610b2e565b9050919050565b5f819050919050565b6111e2836111af565b6111f66111ee826111d0565b848454611155565b825550505050565b5f5f905090565b61120d6111fe565b6112188184846111d9565b505050565b5b8181101561123b576112305f82611205565b60018101905061121e565b5050565b601f8211156112805761125181611128565b61125a8461113a565b81016020851015611269578190505b61127d6112758561113a565b83018261121d565b50505b505050565b5f82821c905092915050565b5f6112a05f1984600802611285565b1980831691505092915050565b5f6112b88383611291565b9150826002028217905092915050565b6112d182610cc6565b67ffffffffffffffff8111156112ea576112e9610a0a565b5b6112f48254611002565b6112ff82828561123f565b5f60209050601f831160018114611330575f841561131e578287015190505b61132885826112ad565b86555061138f565b601f19841661133e86611128565b5f5b8281101561136557848901518255600182019150602085019450602081019050611340565b86831015611382578489015161137e601f891682611291565b8355505b6001600288020188555050505b505050505050565b5f60a0820190508181035f8301526113af8188610cee565b905081810360208301526113c38187610cee565b90506113d26040830186610d26565b6113df6060830185610d26565b6113ec6080830184610e5f565b9695505050505050565b5f81905092915050565b5f61140a82610cc6565b61141481856113f6565b9350611424818560208601610ce0565b80840191505092915050565b5f61143b8285611400565b91506114478284611400565b91508190509392505050565b7f436572746966696361746520646f6573206e6f742065786973742e00000000005f82015250565b5f611487601b83610cd0565b915061149282611453565b602082019050919050565b5f6020820190508181035f8301526114b48161147b565b9050919050565b5f6040820190506114ce5f830185610d99565b6114db6020830184610e5f565b939250505056fea2646970667358221220ab2c70c0a905134cc85b2c7be1860ffe67099347257a1f92d0c91e64a6c001c164736f6c634300081e0033",
					"opcodes": "PUSH1 0x80 PUSH1 0x40 MSTORE CALLVALUE DUP1 ISZERO PUSH1 0xE JUMPI PUSH0 PUSH0 REVERT JUMPDEST POP CALLER PUSH1 0x1 PUSH0 PUSH2 0x100 EXP DUP2 SLOAD DUP2 PUSH20 0xFFFFFFFFFFFFFFFFFFFFFFFFFFFFFFFFFFFFFFFF MUL NOT AND SWAP1 DUP4 PUSH20 0xFFFFFFFFFFFFFFFFFFFFFFFFFFFFFFFFFFFFFFFF AND MUL OR SWAP1 SSTORE POP PUSH2 0x1518 DUP1 PUSH2 0x5C PUSH0 CODECOPY PUSH0 RETURN INVALID PUSH1 0x80 PUSH1 0x40 MSTORE CALLVALUE DUP1 ISZERO PUSH2 0xF JUMPI PUSH0 PUSH0 REVERT JUMPDEST POP PUSH1 0x4 CALLDATASIZE LT PUSH2 0x60 JUMPI PUSH0 CALLDATALOAD PUSH1 0xE0 SHR DUP1 PUSH4 0x7E56310 EQ PUSH2 0x64 JUMPI DUP1 PUSH4 0x7FCA072E EQ PUSH2 0x80 JUMPI DUP1 PUSH4 0x850C1768 EQ PUSH2 0xB0 JUMPI DUP1 PUSH4 0x8DA5CB5B EQ PUSH2 0xE5 JUMPI DUP1 PUSH4 0xF1141CE0 EQ PUSH2 0x103 JUMPI DUP1 PUSH4 0xF333FE08 EQ PUSH2 0x11F JUMPI JUMPDEST PUSH0 PUSH0 REVERT JUMPDEST PUSH2 0x7E PUSH1 0x4 DUP1 CALLDATASIZE SUB DUP2 ADD SWAP1 PUSH2 0x79 SWAP2 SWAP1 PUSH2 0xB61 JUMP JUMPDEST PUSH2 0x153 JUMP JUMPDEST STOP JUMPDEST PUSH2 0x9A PUSH1 0x4 DUP1 CALLDATASIZE SUB DUP2 ADD SWAP1 PUSH2 0x95 SWAP2 SWAP1 PUSH2 0xBFD JUMP JUMPDEST PUSH2 0x384 JUMP JUMPDEST PUSH1 0x40 MLOAD PUSH2 0xA7 SWAP2 SWAP1 PUSH2 0xC82 JUMP JUMPDEST PUSH1 0x40 MLOAD DUP1 SWAP2 SUB SWAP1 RETURN JUMPDEST PUSH2 0xCA PUSH1 0x4 DUP1 CALLDATASIZE SUB DUP2 ADD SWAP1 PUSH2 0xC5 SWAP2 SWAP1 PUSH2 0xC9B JUMP JUMPDEST PUSH2 0x3B6 JUMP JUMPDEST PUSH1 0x40 MLOAD PUSH2 0xDC SWAP7 SWAP6 SWAP5 SWAP4 SWAP3 SWAP2 SWAP1 PUSH2 0xDC2 JUMP JUMPDEST PUSH1 0x40 MLOAD DUP1 SWAP2 SUB SWAP1 RETURN JUMPDEST PUSH2 0xED PUSH2 0x603 JUMP JUMPDEST PUSH1 0x40 MLOAD PUSH2 0xFA SWAP2 SWAP1 PUSH2 0xE6E JUMP JUMPDEST PUSH1 0x40 MLOAD DUP1 SWAP2 SUB SWAP1 RETURN JUMPDEST PUSH2 0x11D PUSH1 0x4 DUP1 CALLDATASIZE SUB DUP2 ADD SWAP1 PUSH2 0x118 SWAP2 SWAP1 PUSH2 0xEAA JUMP JUMPDEST PUSH2 0x628 JUMP JUMPDEST STOP JUMPDEST PUSH2 0x139 PUSH1 0x4 DUP1 CALLDATASIZE SUB DUP2 ADD SWAP1 PUSH2 0x134 SWAP2 SWAP1 PUSH2 0xC9B JUMP JUMPDEST PUSH2 0x790 JUMP JUMPDEST PUSH1 0x40 MLOAD PUSH2 0x14A SWAP6 SWAP5 SWAP4 SWAP3 SWAP2 SWAP1 PUSH2 0xEE8 JUMP JUMPDEST PUSH1 0x40 MLOAD DUP1 SWAP2 SUB SWAP1 RETURN JUMPDEST PUSH1 0x1 PUSH0 SWAP1 SLOAD SWAP1 PUSH2 0x100 EXP SWAP1 DIV PUSH20 0xFFFFFFFFFFFFFFFFFFFFFFFFFFFFFFFFFFFFFFFF AND PUSH20 0xFFFFFFFFFFFFFFFFFFFFFFFFFFFFFFFFFFFFFFFF AND CALLER PUSH20 0xFFFFFFFFFFFFFFFFFFFFFFFFFFFFFFFFFFFFFFFF AND EQ PUSH2 0x1E2 JUMPI PUSH1 0x40 MLOAD PUSH32 0x8C379A000000000000000000000000000000000000000000000000000000000 DUP2 MSTORE PUSH1 0x4 ADD PUSH2 0x1D9 SWAP1 PUSH2 0xFB7 JUMP JUMPDEST PUSH1 0x40 MLOAD DUP1 SWAP2 SUB SWAP1 REVERT JUMPDEST PUSH0 PUSH0 PUSH0 DUP7 DUP2 MSTORE PUSH1 0x20 ADD SWAP1 DUP2 MSTORE PUSH1 0x20 ADD PUSH0 KECCAK256 PUSH1 0x1 ADD DUP1 SLOAD PUSH2 0x201 SWAP1 PUSH2 0x1002 JUMP JUMPDEST SWAP1 POP EQ PUSH2 0x243 JUMPI PUSH1 0x40 MLOAD PUSH32 0x8C379A000000000000000000000000000000000000000000000000000000000 DUP2 MSTORE PUSH1 0x4 ADD PUSH2 0x23A SWAP1 PUSH2 0x107C JUMP JUMPDEST PUSH1 0x40 MLOAD DUP1 SWAP2 SUB SWAP1 REVERT JUMPDEST TIMESTAMP DUP2 GT PUSH2 0x285 JUMPI PUSH1 0x40 MLOAD PUSH32 0x8C379A000000000000000000000000000000000000000000000000000000000 DUP2 MSTORE PUSH1 0x4 ADD PUSH2 0x27C SWAP1 PUSH2 0x110A JUMP JUMPDEST PUSH1 0x40 MLOAD DUP1 SWAP2 SUB SWAP1 REVERT JUMPDEST PUSH1 0x40 MLOAD DUP1 PUSH1 0xA0 ADD PUSH1 0x40 MSTORE DUP1 DUP5 DUP2 MSTORE PUSH1 0x20 ADD DUP4 DUP2 MSTORE PUSH1 0x20 ADD TIMESTAMP DUP2 MSTORE PUSH1 0x20 ADD PUSH0 PUSH1 0x1 DUP2 GT ISZERO PUSH2 0x2B5 JUMPI PUSH2 0x2B4 PUSH2 0xD35 JUMP JUMPDEST JUMPDEST DUP2 MSTORE PUSH1 0x20 ADD DUP3 DUP2 MSTORE POP PUSH0 PUSH0 DUP7 DUP2 MSTORE PUSH1 0x20 ADD SWAP1 DUP2 MSTORE PUSH1 0x20 ADD PUSH0 KECCAK256 PUSH0 DUP3 ADD MLOAD DUP2 PUSH0 ADD SWAP1 DUP2 PUSH2 0x2E1 SWAP2 SWAP1 PUSH2 0x12C8 JUMP JUMPDEST POP PUSH1 0x20 DUP3 ADD MLOAD DUP2 PUSH1 0x1 ADD SWAP1 DUP2 PUSH2 0x2F7 SWAP2 SWAP1 PUSH2 0x12C8 JUMP JUMPDEST POP PUSH1 0x40 DUP3 ADD MLOAD DUP2 PUSH1 0x2 ADD SSTORE PUSH1 0x60 DUP3 ADD MLOAD DUP2 PUSH1 0x3 ADD PUSH0 PUSH2 0x100 EXP DUP2 SLOAD DUP2 PUSH1 0xFF MUL NOT AND SWAP1 DUP4 PUSH1 0x1 DUP2 GT ISZERO PUSH2 0x32C JUMPI PUSH2 0x32B PUSH2 0xD35 JUMP JUMPDEST JUMPDEST MUL OR SWAP1 SSTORE POP PUSH1 0x80 DUP3 ADD MLOAD DUP2 PUSH1 0x4 ADD SSTORE SWAP1 POP POP DUP4 PUSH32 0x7C2D7D6CC87E3265A341A03245E1C8404113171FCAF3750B66D74D614A49932F DUP5 DUP5 TIMESTAMP DUP6 CALLER PUSH1 0x40 MLOAD PUSH2 0x376 SWAP6 SWAP5 SWAP4 SWAP3 SWAP2 SWAP1 PUSH2 0x1397 JUMP JUMPDEST PUSH1 0x40 MLOAD DUP1 SWAP2 SUB SWAP1 LOG2 POP POP POP POP JUMP JUMPDEST PUSH0 DUP3 DUP3 PUSH1 0x40 MLOAD PUSH1 0x20 ADD PUSH2 0x398 SWAP3 SWAP2 SWAP1 PUSH2 0x1430 JUMP JUMPDEST PUSH1 0x40 MLOAD PUSH1 0x20 DUP2 DUP4 SUB SUB DUP2 MSTORE SWAP1 PUSH1 0x40 MSTORE DUP1 MLOAD SWAP1 PUSH1 0x20 ADD KECCAK256 SWAP1 POP SWAP3 SWAP2 POP POP JUMP JUMPDEST PUSH1 0x60 DUP1 PUSH0 PUSH0 PUSH0 PUSH0 PUSH0 PUSH0 PUSH0 DUP10 DUP2 MSTORE PUSH1 0x20 ADD SWAP1 DUP2 MSTORE PUSH1 0x20 ADD PUSH0 KECCAK256 PUSH1 0x40 MLOAD DUP1 PUSH1 0xA0 ADD PUSH1 0x40 MSTORE SWAP1 DUP2 PUSH0 DUP3 ADD DUP1 SLOAD PUSH2 0x3E8 SWAP1 PUSH2 0x1002 JUMP JUMPDEST DUP1 PUSH1 0x1F ADD PUSH1 0x20 DUP1 SWAP2 DIV MUL PUSH1 0x20 ADD PUSH1 0x40 MLOAD SWAP1 DUP2 ADD PUSH1 0x40 MSTORE DUP1 SWAP3 SWAP2 SWAP1 DUP2 DUP2 MSTORE PUSH1 0x20 ADD DUP3 DUP1 SLOAD PUSH2 0x414 SWAP1 PUSH2 0x1002 JUMP JUMPDEST DUP1 ISZERO PUSH2 0x45F JUMPI DUP1 PUSH1 0x1F LT PUSH2 0x436 JUMPI PUSH2 0x100 DUP1 DUP4 SLOAD DIV MUL DUP4 MSTORE SWAP2 PUSH1 0x20 ADD SWAP2 PUSH2 0x45F JUMP JUMPDEST DUP3 ADD SWAP2 SWAP1 PUSH0 MSTORE PUSH1 0x20 PUSH0 KECCAK256 SWAP1 JUMPDEST DUP2 SLOAD DUP2 MSTORE SWAP1 PUSH1 0x1 ADD SWAP1 PUSH1 0x20 ADD DUP1 DUP4 GT PUSH2 0x442 JUMPI DUP3 SWAP1 SUB PUSH1 0x1F AND DUP3 ADD SWAP2 JUMPDEST POP POP POP POP POP DUP2 MSTORE PUSH1 0x20 ADD PUSH1 0x1 DUP3 ADD DUP1 SLOAD PUSH2 0x478 SWAP1 PUSH2 0x1002 JUMP JUMPDEST DUP1 PUSH1 0x1F ADD PUSH1 0x20 DUP1 SWAP2 DIV MUL PUSH1 0x20 ADD PUSH1 0x40 MLOAD SWAP1 DUP2 ADD PUSH1 0x40 MSTORE DUP1 SWAP3 SWAP2 SWAP1 DUP2 DUP2 MSTORE PUSH1 0x20 ADD DUP3 DUP1 SLOAD PUSH2 0x4A4 SWAP1 PUSH2 0x1002 JUMP JUMPDEST DUP1 ISZERO PUSH2 0x4EF JUMPI DUP1 PUSH1 0x1F LT PUSH2 0x4C6 JUMPI PUSH2 0x100 DUP1 DUP4 SLOAD DIV MUL DUP4 MSTORE SWAP2 PUSH1 0x20 ADD SWAP2 PUSH2 0x4EF JUMP JUMPDEST DUP3 ADD SWAP2 SWAP1 PUSH0 MSTORE PUSH1 0x20 PUSH0 KECCAK256 SWAP1 JUMPDEST DUP2 SLOAD DUP2 MSTORE SWAP1 PUSH1 0x1 ADD SWAP1 PUSH1 0x20 ADD DUP1 DUP4 GT PUSH2 0x4D2 JUMPI DUP3 SWAP1 SUB PUSH1 0x1F AND DUP3 ADD SWAP2 JUMPDEST POP POP POP POP POP DUP2 MSTORE PUSH1 0x20 ADD PUSH1 0x2 DUP3 ADD SLOAD DUP2 MSTORE PUSH1 0x20 ADD PUSH1 0x3 DUP3 ADD PUSH0 SWAP1 SLOAD SWAP1 PUSH2 0x100 EXP SWAP1 DIV PUSH1 0xFF AND PUSH1 0x1 DUP2 GT ISZERO PUSH2 0x526 JUMPI PUSH2 0x525 PUSH2 0xD35 JUMP JUMPDEST JUMPDEST PUSH1 0x1 DUP2 GT ISZERO PUSH2 0x538 JUMPI PUSH2 0x537 PUSH2 0xD35 JUMP JUMPDEST JUMPDEST DUP2 MSTORE PUSH1 0x20 ADD PUSH1 0x4 DUP3 ADD SLOAD DUP2 MSTORE POP POP SWAP1 POP PUSH0 DUP2 PUSH1 0x20 ADD MLOAD MLOAD SUB PUSH2 0x590 JUMPI PUSH0 PUSH0 PUSH0 PUSH0 PUSH1 0x40 MLOAD DUP1 PUSH1 0x20 ADD PUSH1 0x40 MSTORE DUP1 PUSH0 DUP2 MSTORE POP SWAP4 SWAP3 SWAP2 SWAP1 PUSH1 0x40 MLOAD DUP1 PUSH1 0x20 ADD PUSH1 0x40 MSTORE DUP1 PUSH0 DUP2 MSTORE POP SWAP4 SWAP3 SWAP2 SWAP1 SWAP7 POP SWAP7 POP SWAP7 POP SWAP7 POP SWAP7 POP SWAP7 POP POP PUSH2 0x5FA JUMP JUMPDEST PUSH0 TIMESTAMP DUP3 PUSH1 0x80 ADD MLOAD GT SWAP1 POP PUSH0 PUSH0 PUSH1 0x1 DUP2 GT ISZERO PUSH2 0x5AE JUMPI PUSH2 0x5AD PUSH2 0xD35 JUMP JUMPDEST JUMPDEST DUP4 PUSH1 0x60 ADD MLOAD PUSH1 0x1 DUP2 GT ISZERO PUSH2 0x5C5 JUMPI PUSH2 0x5C4 PUSH2 0xD35 JUMP JUMPDEST JUMPDEST EQ SWAP1 POP DUP3 PUSH0 ADD MLOAD DUP4 PUSH1 0x20 ADD MLOAD DUP5 PUSH1 0x40 ADD MLOAD DUP6 PUSH1 0x60 ADD MLOAD DUP7 PUSH1 0x80 ADD MLOAD DUP7 DUP1 ISZERO PUSH2 0x5EA JUMPI POP DUP6 JUMPDEST SWAP9 POP SWAP9 POP SWAP9 POP SWAP9 POP SWAP9 POP SWAP9 POP POP POP POP JUMPDEST SWAP2 SWAP4 SWAP6 POP SWAP2 SWAP4 SWAP6 JUMP JUMPDEST PUSH1 0x1 PUSH0 SWAP1 SLOAD SWAP1 PUSH2 0x100 EXP SWAP1 DIV PUSH20 0xFFFFFFFFFFFFFFFFFFFFFFFFFFFFFFFFFFFFFFFF AND DUP2 JUMP JUMPDEST PUSH1 0x1 PUSH0 SWAP1 SLOAD SWAP1 PUSH2 0x100 EXP SWAP1 DIV PUSH20 0xFFFFFFFFFFFFFFFFFFFFFFFFFFFFFFFFFFFFFFFF AND PUSH20 0xFFFFFFFFFFFFFFFFFFFFFFFFFFFFFFFFFFFFFFFF AND CALLER PUSH20 0xFFFFFFFFFFFFFFFFFFFFFFFFFFFFFFFFFFFFFFFF AND EQ PUSH2 0x6B7 JUMPI PUSH1 0x40 MLOAD PUSH32 0x8C379A000000000000000000000000000000000000000000000000000000000 DUP2 MSTORE PUSH1 0x4 ADD PUSH2 0x6AE SWAP1 PUSH2 0xFB7 JUMP JUMPDEST PUSH1 0x40 MLOAD DUP1 SWAP2 SUB SWAP1 REVERT JUMPDEST PUSH0 PUSH0 PUSH0 DUP5 DUP2 MSTORE PUSH1 0x20 ADD SWAP1 DUP2 MSTORE PUSH1 0x20 ADD PUSH0 KECCAK256 PUSH1 0x1 ADD DUP1 SLOAD PUSH2 0x6D6 SWAP1 PUSH2 0x1002 JUMP JUMPDEST SWAP1 POP GT PUSH2 0x718 JUMPI PUSH1 0x40 MLOAD PUSH32 0x8C379A000000000000000000000000000000000000000000000000000000000 DUP2 MSTORE PUSH1 0x4 ADD PUSH2 0x70F SWAP1 PUSH2 0x149D JUMP JUMPDEST PUSH1 0x40 MLOAD DUP1 SWAP2 SUB SWAP1 REVERT JUMPDEST DUP1 PUSH0 PUSH0 DUP5 DUP2 MSTORE PUSH1 0x20 ADD SWAP1 DUP2 MSTORE PUSH1 0x20 ADD PUSH0 KECCAK256 PUSH1 0x3 ADD PUSH0 PUSH2 0x100 EXP DUP2 SLOAD DUP2 PUSH1 0xFF MUL NOT AND SWAP1 DUP4 PUSH1 0x1 DUP2 GT ISZERO PUSH2 0x74D JUMPI PUSH2 0x74C PUSH2 0xD35 JUMP JUMPDEST JUMPDEST MUL OR SWAP1 SSTORE POP DUP2 PUSH32 0x732720185D98A39EA88255E2E95E63FBAFCAA08A661F7C2E654947DBD67D55EC DUP3 CALLER PUSH1 0x40 MLOAD PUSH2 0x784 SWAP3 SWAP2 SWAP1 PUSH2 0x14BB JUMP JUMPDEST PUSH1 0x40 MLOAD DUP1 SWAP2 SUB SWAP1 LOG2 POP POP JUMP JUMPDEST PUSH1 0x60 DUP1 PUSH0 PUSH0 PUSH0 PUSH0 PUSH0 PUSH0 DUP9 DUP2 MSTORE PUSH1 0x20 ADD SWAP1 DUP2 MSTORE PUSH1 0x20 ADD PUSH0 KECCAK256 PUSH1 0x1 ADD DUP1 SLOAD PUSH2 0x7B5 SWAP1 PUSH2 0x1002 JUMP JUMPDEST SWAP1 POP GT PUSH2 0x7F7 JUMPI PUSH1 0x40 MLOAD PUSH32 0x8C379A000000000000000000000000000000000000000000000000000000000 DUP2 MSTORE PUSH1 0x4 ADD PUSH2 0x7EE SWAP1 PUSH2 0x149D JUMP JUMPDEST PUSH1 0x40 MLOAD DUP1 SWAP2 SUB SWAP1 REVERT JUMPDEST PUSH0 PUSH0 PUSH0 DUP9 DUP2 MSTORE PUSH1 0x20 ADD SWAP1 DUP2 MSTORE PUSH1 0x20 ADD PUSH0 KECCAK256 PUSH1 0x40 MLOAD DUP1 PUSH1 0xA0 ADD PUSH1 0x40 MSTORE SWAP1 DUP2 PUSH0 DUP3 ADD DUP1 SLOAD PUSH2 0x822 SWAP1 PUSH2 0x1002 JUMP JUMPDEST DUP1 PUSH1 0x1F ADD PUSH1 0x20 DUP1 SWAP2 DIV MUL PUSH1 0x20 ADD PUSH1 0x40 MLOAD SWAP1 DUP2 ADD PUSH1 0x40 MSTORE DUP1 SWAP3 SWAP2 SWAP1 DUP2 DUP2 MSTORE PUSH1 0x20 ADD DUP3 DUP1 SLOAD PUSH2 0x84E SWAP1 PUSH2 0x1002 JUMP JUMPDEST DUP1 ISZERO PUSH2 0x899 JUMPI DUP1 PUSH1 0x1F LT PUSH2 0x870 JUMPI PUSH2 0x100 DUP1 DUP4 SLOAD DIV MUL DUP4 MSTORE SWAP2 PUSH1 0x20 ADD SWAP2 PUSH2 0x899 JUMP JUMPDEST DUP3 ADD SWAP2 SWAP1 PUSH0 MSTORE PUSH1 0x20 PUSH0 KECCAK256 SWAP1 JUMPDEST DUP2 SLOAD DUP2 MSTORE SWAP1 PUSH1 0x1 ADD SWAP1 PUSH1 0x20 ADD DUP1 DUP4 GT PUSH2 0x87C JUMPI DUP3 SWAP1 SUB PUSH1 0x1F AND DUP3 ADD SWAP2 JUMPDEST POP POP POP POP POP DUP2 MSTORE PUSH1 0x20 ADD PUSH1 0x1 DUP3 ADD DUP1 SLOAD PUSH2 0x8B2 SWAP1 PUSH2 0x1002 JUMP JUMPDEST DUP1 PUSH1 0x1F ADD PUSH1 0x20 DUP1 SWAP2 DIV MUL PUSH1 0x20 ADD PUSH1 0x40 MLOAD SWAP1 DUP2 ADD PUSH1 0x40 MSTORE DUP1 SWAP3 SWAP2 SWAP1 DUP2 DUP2 MSTORE PUSH1 0x20 ADD DUP3 DUP1 SLOAD PUSH2 0x8DE SWAP1 PUSH2 0x1002 JUMP JUMPDEST DUP1 ISZERO PUSH2 0x929 JUMPI DUP1 PUSH1 0x1F LT PUSH2 0x900 JUMPI PUSH2 0x100 DUP1 DUP4 SLOAD DIV MUL DUP4 MSTORE SWAP2 PUSH1 0x20 ADD SWAP2 PUSH2 0x929 JUMP JUMPDEST DUP3 ADD SWAP2 SWAP1 PUSH0 MSTORE PUSH1 0x20 PUSH0 KECCAK256 SWAP1 JUMPDEST DUP2 SLOAD DUP2 MSTORE SWAP1 PUSH1 0x1 ADD SWAP1 PUSH1 0x20 ADD DUP1 DUP4 GT PUSH2 0x90C JUMPI DUP3 SWAP1 SUB PUSH1 0x1F AND DUP3 ADD SWAP2 JUMPDEST POP POP POP POP POP DUP2 MSTORE PUSH1 0x20 ADD PUSH1 0x2 DUP3 ADD SLOAD DUP2 MSTORE PUSH1 0x20 ADD PUSH1 0x3 DUP3 ADD PUSH0 SWAP1 SLOAD SWAP1 PUSH2 0x100 EXP SWAP1 DIV PUSH1 0xFF AND PUSH1 0x1 DUP2 GT ISZERO PUSH2 0x960 JUMPI PUSH2 0x95F PUSH2 0xD35 JUMP JUMPDEST JUMPDEST PUSH1 0x1 DUP2 GT ISZERO PUSH2 0x972 JUMPI PUSH2 0x971 PUSH2 0xD35 JUMP JUMPDEST JUMPDEST DUP2 MSTORE PUSH1 0x20 ADD PUSH1 0x4 DUP3 ADD SLOAD DUP2 MSTORE POP POP SWAP1 POP DUP1 PUSH0 ADD MLOAD DUP2 PUSH1 0x20 ADD MLOAD DUP3 PUSH1 0x40 ADD MLOAD DUP4 PUSH1 0x60 ADD MLOAD DUP5 PUSH1 0x80 ADD MLOAD SWAP6 POP SWAP6 POP SWAP6 POP SWAP6 POP SWAP6 POP POP SWAP2 SWAP4 SWAP6 SWAP1 SWAP3 SWAP5 POP JUMP JUMPDEST PUSH0 PUSH1 0x40 MLOAD SWAP1 POP SWAP1 JUMP JUMPDEST PUSH0 PUSH0 REVERT JUMPDEST PUSH0 PUSH0 REVERT JUMPDEST PUSH0 DUP2 SWAP1 POP SWAP2 SWAP1 POP JUMP JUMPDEST PUSH2 0x9D1 DUP2 PUSH2 0x9BF JUMP JUMPDEST DUP2 EQ PUSH2 0x9DB JUMPI PUSH0 PUSH0 REVERT JUMPDEST POP JUMP JUMPDEST PUSH0 DUP2 CALLDATALOAD SWAP1 POP PUSH2 0x9EC DUP2 PUSH2 0x9C8 JUMP JUMPDEST SWAP3 SWAP2 POP POP JUMP JUMPDEST PUSH0 PUSH0 REVERT JUMPDEST PUSH0 PUSH0 REVERT JUMPDEST PUSH0 PUSH1 0x1F NOT PUSH1 0x1F DUP4 ADD AND SWAP1 POP SWAP2 SWAP1 POP JUMP JUMPDEST PUSH32 0x4E487B7100000000000000000000000000000000000000000000000000000000 PUSH0 MSTORE PUSH1 0x41 PUSH1 0x4 MSTORE PUSH1 0x24 PUSH0 REVERT JUMPDEST PUSH2 0xA40 DUP3 PUSH2 0x9FA JUMP JUMPDEST DUP2 ADD DUP2 DUP2 LT PUSH8 0xFFFFFFFFFFFFFFFF DUP3 GT OR ISZERO PUSH2 0xA5F JUMPI PUSH2 0xA5E PUSH2 0xA0A JUMP JUMPDEST JUMPDEST DUP1 PUSH1 0x40 MSTORE POP POP POP JUMP JUMPDEST PUSH0 PUSH2 0xA71 PUSH2 0x9AE JUMP JUMPDEST SWAP1 POP PUSH2 0xA7D DUP3 DUP3 PUSH2 0xA37 JUMP JUMPDEST SWAP2 SWAP1 POP JUMP JUMPDEST PUSH0 PUSH8 0xFFFFFFFFFFFFFFFF DUP3 GT ISZERO PUSH2 0xA9C JUMPI PUSH2 0xA9B PUSH2 0xA0A JUMP JUMPDEST JUMPDEST PUSH2 0xAA5 DUP3 PUSH2 0x9FA JUMP JUMPDEST SWAP1 POP PUSH1 0x20 DUP2 ADD SWAP1 POP SWAP2 SWAP1 POP JUMP JUMPDEST DUP3 DUP2 DUP4 CALLDATACOPY PUSH0 DUP4 DUP4 ADD MSTORE POP POP POP JUMP JUMPDEST PUSH0 PUSH2 0xAD2 PUSH2 0xACD DUP5 PUSH2 0xA82 JUMP JUMPDEST PUSH2 0xA68 JUMP JUMPDEST SWAP1 POP DUP3 DUP2 MSTORE PUSH1 0x20 DUP2 ADD DUP5 DUP5 DUP5 ADD GT ISZERO PUSH2 0xAEE JUMPI PUSH2 0xAED PUSH2 0x9F6 JUMP JUMPDEST JUMPDEST PUSH2 0xAF9 DUP5 DUP3 DUP6 PUSH2 0xAB2 JUMP JUMPDEST POP SWAP4 SWAP3 POP POP POP JUMP JUMPDEST PUSH0 DUP3 PUSH1 0x1F DUP4 ADD SLT PUSH2 0xB15 JUMPI PUSH2 0xB14 PUSH2 0x9F2 JUMP JUMPDEST JUMPDEST DUP2 CALLDATALOAD PUSH2 0xB25 DUP5 DUP3 PUSH1 0x20 DUP7 ADD PUSH2 0xAC0 JUMP JUMPDEST SWAP2 POP POP SWAP3 SWAP2 POP POP JUMP JUMPDEST PUSH0 DUP2 SWAP1 POP SWAP2 SWAP1 POP JUMP JUMPDEST PUSH2 0xB40 DUP2 PUSH2 0xB2E JUMP JUMPDEST DUP2 EQ PUSH2 0xB4A JUMPI PUSH0 PUSH0 REVERT JUMPDEST POP JUMP JUMPDEST PUSH0 DUP2 CALLDATALOAD SWAP1 POP PUSH2 0xB5B DUP2 PUSH2 0xB37 JUMP JUMPDEST SWAP3 SWAP2 POP POP JUMP JUMPDEST PUSH0 PUSH0 PUSH0 PUSH0 PUSH1 0x80 DUP6 DUP8 SUB SLT ISZERO PUSH2 0xB79 JUMPI PUSH2 0xB78 PUSH2 0x9B7 JUMP JUMPDEST JUMPDEST PUSH0 PUSH2 0xB86 DUP8 DUP3 DUP9 ADD PUSH2 0x9DE JUMP JUMPDEST SWAP5 POP POP PUSH1 0x20 DUP6 ADD CALLDATALOAD PUSH8 0xFFFFFFFFFFFFFFFF DUP2 GT ISZERO PUSH2 0xBA7 JUMPI PUSH2 0xBA6 PUSH2 0x9BB JUMP JUMPDEST JUMPDEST PUSH2 0xBB3 DUP8 DUP3 DUP9 ADD PUSH2 0xB01 JUMP JUMPDEST SWAP4 POP POP PUSH1 0x40 DUP6 ADD CALLDATALOAD PUSH8 0xFFFFFFFFFFFFFFFF DUP2 GT ISZERO PUSH2 0xBD4 JUMPI PUSH2 0xBD3 PUSH2 0x9BB JUMP JUMPDEST JUMPDEST PUSH2 0xBE0 DUP8 DUP3 DUP9 ADD PUSH2 0xB01 JUMP JUMPDEST SWAP3 POP POP PUSH1 0x60 PUSH2 0xBF1 DUP8 DUP3 DUP9 ADD PUSH2 0xB4D JUMP JUMPDEST SWAP2 POP POP SWAP3 SWAP6 SWAP2 SWAP5 POP SWAP3 POP JUMP JUMPDEST PUSH0 PUSH0 PUSH1 0x40 DUP4 DUP6 SUB SLT ISZERO PUSH2 0xC13 JUMPI PUSH2 0xC12 PUSH2 0x9B7 JUMP JUMPDEST JUMPDEST PUSH0 DUP4 ADD CALLDATALOAD PUSH8 0xFFFFFFFFFFFFFFFF DUP2 GT ISZERO PUSH2 0xC30 JUMPI PUSH2 0xC2F PUSH2 0x9BB JUMP JUMPDEST JUMPDEST PUSH2 0xC3C DUP6 DUP3 DUP7 ADD PUSH2 0xB01 JUMP JUMPDEST SWAP3 POP POP PUSH1 0x20 DUP4 ADD CALLDATALOAD PUSH8 0xFFFFFFFFFFFFFFFF DUP2 GT ISZERO PUSH2 0xC5D JUMPI PUSH2 0xC5C PUSH2 0x9BB JUMP JUMPDEST JUMPDEST PUSH2 0xC69 DUP6 DUP3 DUP7 ADD PUSH2 0xB01 JUMP JUMPDEST SWAP2 POP POP SWAP3 POP SWAP3 SWAP1 POP JUMP JUMPDEST PUSH2 0xC7C DUP2 PUSH2 0x9BF JUMP JUMPDEST DUP3 MSTORE POP POP JUMP JUMPDEST PUSH0 PUSH1 0x20 DUP3 ADD SWAP1 POP PUSH2 0xC95 PUSH0 DUP4 ADD DUP5 PUSH2 0xC73 JUMP JUMPDEST SWAP3 SWAP2 POP POP JUMP JUMPDEST PUSH0 PUSH1 0x20 DUP3 DUP5 SUB SLT ISZERO PUSH2 0xCB0 JUMPI PUSH2 0xCAF PUSH2 0x9B7 JUMP JUMPDEST JUMPDEST PUSH0 PUSH2 0xCBD DUP5 DUP3 DUP6 ADD PUSH2 0x9DE JUMP JUMPDEST SWAP2 POP POP SWAP3 SWAP2 POP POP JUMP JUMPDEST PUSH0 DUP2 MLOAD SWAP1 POP SWAP2 SWAP1 POP JUMP JUMPDEST PUSH0 DUP3 DUP3 MSTORE PUSH1 0x20 DUP3 ADD SWAP1 POP SWAP3 SWAP2 POP POP JUMP JUMPDEST DUP3 DUP2 DUP4 MCOPY PUSH0 DUP4 DUP4 ADD MSTORE POP POP POP JUMP JUMPDEST PUSH0 PUSH2 0xCF8 DUP3 PUSH2 0xCC6 JUMP JUMPDEST PUSH2 0xD02 DUP2 DUP6 PUSH2 0xCD0 JUMP JUMPDEST SWAP4 POP PUSH2 0xD12 DUP2 DUP6 PUSH1 0x20 DUP7 ADD PUSH2 0xCE0 JUMP JUMPDEST PUSH2 0xD1B DUP2 PUSH2 0x9FA JUMP JUMPDEST DUP5 ADD SWAP2 POP POP SWAP3 SWAP2 POP POP JUMP JUMPDEST PUSH2 0xD2F DUP2 PUSH2 0xB2E JUMP JUMPDEST DUP3 MSTORE POP POP JUMP JUMPDEST PUSH32 0x4E487B7100000000000000000000000000000000000000000000000000000000 PUSH0 MSTORE PUSH1 0x21 PUSH1 0x4 MSTORE PUSH1 0x24 PUSH0 REVERT JUMPDEST PUSH1 0x2 DUP2 LT PUSH2 0xD73 JUMPI PUSH2 0xD72 PUSH2 0xD35 JUMP JUMPDEST JUMPDEST POP JUMP JUMPDEST PUSH0 DUP2 SWAP1 POP PUSH2 0xD83 DUP3 PUSH2 0xD62 JUMP JUMPDEST SWAP2 SWAP1 POP JUMP JUMPDEST PUSH0 PUSH2 0xD92 DUP3 PUSH2 0xD76 JUMP JUMPDEST SWAP1 POP SWAP2 SWAP1 POP JUMP JUMPDEST PUSH2 0xDA2 DUP2 PUSH2 0xD88 JUMP JUMPDEST DUP3 MSTORE POP POP JUMP JUMPDEST PUSH0 DUP2 ISZERO ISZERO SWAP1 POP SWAP2 SWAP1 POP JUMP JUMPDEST PUSH2 0xDBC DUP2 PUSH2 0xDA8 JUMP JUMPDEST DUP3 MSTORE POP POP JUMP JUMPDEST PUSH0 PUSH1 0xC0 DUP3 ADD SWAP1 POP DUP2 DUP2 SUB PUSH0 DUP4 ADD MSTORE PUSH2 0xDDA DUP2 DUP10 PUSH2 0xCEE JUMP JUMPDEST SWAP1 POP DUP2 DUP2 SUB PUSH1 0x20 DUP4 ADD MSTORE PUSH2 0xDEE DUP2 DUP9 PUSH2 0xCEE JUMP JUMPDEST SWAP1 POP PUSH2 0xDFD PUSH1 0x40 DUP4 ADD DUP8 PUSH2 0xD26 JUMP JUMPDEST PUSH2 0xE0A PUSH1 0x60 DUP4 ADD DUP7 PUSH2 0xD99 JUMP JUMPDEST PUSH2 0xE17 PUSH1 0x80 DUP4 ADD DUP6 PUSH2 0xD26 JUMP JUMPDEST PUSH2 0xE24 PUSH1 0xA0 DUP4 ADD DUP5 PUSH2 0xDB3 JUMP JUMPDEST SWAP8 SWAP7 POP POP POP POP POP POP POP JUMP JUMPDEST PUSH0 PUSH20 0xFFFFFFFFFFFFFFFFFFFFFFFFFFFFFFFFFFFFFFFF DUP3 AND SWAP1 POP SWAP2 SWAP1 POP JUMP JUMPDEST PUSH0 PUSH2 0xE58 DUP3 PUSH2 0xE2F JUMP JUMPDEST SWAP1 POP SWAP2 SWAP1 POP JUMP JUMPDEST PUSH2 0xE68 DUP2 PUSH2 0xE4E JUMP JUMPDEST DUP3 MSTORE POP POP JUMP JUMPDEST PUSH0 PUSH1 0x20 DUP3 ADD SWAP1 POP PUSH2 0xE81 PUSH0 DUP4 ADD DUP5 PUSH2 0xE5F JUMP JUMPDEST SWAP3 SWAP2 POP POP JUMP JUMPDEST PUSH1 0x2 DUP2 LT PUSH2 0xE93 JUMPI PUSH0 PUSH0 REVERT JUMPDEST POP JUMP JUMPDEST PUSH0 DUP2 CALLDATALOAD SWAP1 POP PUSH2 0xEA4 DUP2 PUSH2 0xE87 JUMP JUMPDEST SWAP3 SWAP2 POP POP JUMP JUMPDEST PUSH0 PUSH0 PUSH1 0x40 DUP4 DUP6 SUB SLT ISZERO PUSH2 0xEC0 JUMPI PUSH2 0xEBF PUSH2 0x9B7 JUMP JUMPDEST JUMPDEST PUSH0 PUSH2 0xECD DUP6 DUP3 DUP7 ADD PUSH2 0x9DE JUMP JUMPDEST SWAP3 POP POP PUSH1 0x20 PUSH2 0xEDE DUP6 DUP3 DUP7 ADD PUSH2 0xE96 JUMP JUMPDEST SWAP2 POP POP SWAP3 POP SWAP3 SWAP1 POP JUMP JUMPDEST PUSH0 PUSH1 0xA0 DUP3 ADD SWAP1 POP DUP2 DUP2 SUB PUSH0 DUP4 ADD MSTORE PUSH2 0xF00 DUP2 DUP9 PUSH2 0xCEE JUMP JUMPDEST SWAP1 POP DUP2 DUP2 SUB PUSH1 0x20 DUP4 ADD MSTORE PUSH2 0xF14 DUP2 DUP8 PUSH2 0xCEE JUMP JUMPDEST SWAP1 POP PUSH2 0xF23 PUSH1 0x40 DUP4 ADD DUP7 PUSH2 0xD26 JUMP JUMPDEST PUSH2 0xF30 PUSH1 0x60 DUP4 ADD DUP6 PUSH2 0xD99 JUMP JUMPDEST PUSH2 0xF3D PUSH1 0x80 DUP4 ADD DUP5 PUSH2 0xD26 JUMP JUMPDEST SWAP7 SWAP6 POP POP POP POP POP POP JUMP JUMPDEST PUSH32 0x4F6E6C792074686520636F6E7472616374206F776E65722063616E2070657266 PUSH0 DUP3 ADD MSTORE PUSH32 0x6F726D207468697320616374696F6E2E00000000000000000000000000000000 PUSH1 0x20 DUP3 ADD MSTORE POP JUMP JUMPDEST PUSH0 PUSH2 0xFA1 PUSH1 0x30 DUP4 PUSH2 0xCD0 JUMP JUMPDEST SWAP2 POP PUSH2 0xFAC DUP3 PUSH2 0xF47 JUMP JUMPDEST PUSH1 0x40 DUP3 ADD SWAP1 POP SWAP2 SWAP1 POP JUMP JUMPDEST PUSH0 PUSH1 0x20 DUP3 ADD SWAP1 POP DUP2 DUP2 SUB PUSH0 DUP4 ADD MSTORE PUSH2 0xFCE DUP2 PUSH2 0xF95 JUMP JUMPDEST SWAP1 POP SWAP2 SWAP1 POP JUMP JUMPDEST PUSH32 0x4E487B7100000000000000000000000000000000000000000000000000000000 PUSH0 MSTORE PUSH1 0x22 PUSH1 0x4 MSTORE PUSH1 0x24 PUSH0 REVERT JUMPDEST PUSH0 PUSH1 0x2 DUP3 DIV SWAP1 POP PUSH1 0x1 DUP3 AND DUP1 PUSH2 0x1019 JUMPI PUSH1 0x7F DUP3 AND SWAP2 POP JUMPDEST PUSH1 0x20 DUP3 LT DUP2 SUB PUSH2 0x102C JUMPI PUSH2 0x102B PUSH2 0xFD5 JUMP JUMPDEST JUMPDEST POP SWAP2 SWAP1 POP JUMP JUMPDEST PUSH32 0x436572746966696361746520494420616C7265616479206578697374732E0000 PUSH0 DUP3 ADD MSTORE POP JUMP JUMPDEST PUSH0 PUSH2 0x1066 PUSH1 0x1E DUP4 PUSH2 0xCD0 JUMP JUMPDEST SWAP2 POP PUSH2 0x1071 DUP3 PUSH2 0x1032 JUMP JUMPDEST PUSH1 0x20 DUP3 ADD SWAP1 POP SWAP2 SWAP1 POP JUMP JUMPDEST PUSH0 PUSH1 0x20 DUP3 ADD SWAP1 POP DUP2 DUP2 SUB PUSH0 DUP4 ADD MSTORE PUSH2 0x1093 DUP2 PUSH2 0x105A JUMP JUMPDEST SWAP1 POP SWAP2 SWAP1 POP JUMP JUMPDEST PUSH32 0x457870697265642064617465206D75737420626520696E207468652066757475 PUSH0 DUP3 ADD MSTORE PUSH32 0x72652E0000000000000000000000000000000000000000000000000000000000 PUSH1 0x20 DUP3 ADD MSTORE POP JUMP JUMPDEST PUSH0 PUSH2 0x10F4 PUSH1 0x23 DUP4 PUSH2 0xCD0 JUMP JUMPDEST SWAP2 POP PUSH2 0x10FF DUP3 PUSH2 0x109A JUMP JUMPDEST PUSH1 0x40 DUP3 ADD SWAP1 POP SWAP2 SWAP1 POP JUMP JUMPDEST PUSH0 PUSH1 0x20 DUP3 ADD SWAP1 POP DUP2 DUP2 SUB PUSH0 DUP4 ADD MSTORE PUSH2 0x1121 DUP2 PUSH2 0x10E8 JUMP JUMPDEST SWAP1 POP SWAP2 SWAP1 POP JUMP JUMPDEST PUSH0 DUP2 SWAP1 POP DUP2 PUSH0 MSTORE PUSH1 0x20 PUSH0 KECCAK256 SWAP1 POP SWAP2 SWAP1 POP JUMP JUMPDEST PUSH0 PUSH1 0x20 PUSH1 0x1F DUP4 ADD DIV SWAP1 POP SWAP2 SWAP1 POP JUMP JUMPDEST PUSH0 DUP3 DUP3 SHL SWAP1 POP SWAP3 SWAP2 POP POP JUMP JUMPDEST PUSH0 PUSH1 0x8 DUP4 MUL PUSH2 0x1184 PUSH32 0xFFFFFFFFFFFFFFFFFFFFFFFFFFFFFFFFFFFFFFFFFFFFFFFFFFFFFFFFFFFFFFFF DUP3 PUSH2 0x1149 JUMP JUMPDEST PUSH2 0x118E DUP7 DUP4 PUSH2 0x1149 JUMP JUMPDEST SWAP6 POP DUP1 NOT DUP5 AND SWAP4 POP DUP1 DUP7 AND DUP5 OR SWAP3 POP POP POP SWAP4 SWAP3 POP POP POP JUMP JUMPDEST PUSH0 DUP2 SWAP1 POP SWAP2 SWAP1 POP JUMP JUMPDEST PUSH0 PUSH2 0x11C9 PUSH2 0x11C4 PUSH2 0x11BF DUP5 PUSH2 0xB2E JUMP JUMPDEST PUSH2 0x11A6 JUMP JUMPDEST PUSH2 0xB2E JUMP JUMPDEST SWAP1 POP SWAP2 SWAP1 POP JUMP JUMPDEST PUSH0 DUP2 SWAP1 POP SWAP2 SWAP1 POP JUMP JUMPDEST PUSH2 0x11E2 DUP4 PUSH2 0x11AF JUMP JUMPDEST PUSH2 0x11F6 PUSH2 0x11EE DUP3 PUSH2 0x11D0 JUMP JUMPDEST DUP5 DUP5 SLOAD PUSH2 0x1155 JUMP JUMPDEST DUP3 SSTORE POP POP POP POP JUMP JUMPDEST PUSH0 PUSH0 SWAP1 POP SWAP1 JUMP JUMPDEST PUSH2 0x120D PUSH2 0x11FE JUMP JUMPDEST PUSH2 0x1218 DUP2 DUP5 DUP5 PUSH2 0x11D9 JUMP JUMPDEST POP POP POP JUMP JUMPDEST JUMPDEST DUP2 DUP2 LT ISZERO PUSH2 0x123B JUMPI PUSH2 0x1230 PUSH0 DUP3 PUSH2 0x1205 JUMP JUMPDEST PUSH1 0x1 DUP2 ADD SWAP1 POP PUSH2 0x121E JUMP JUMPDEST POP POP JUMP JUMPDEST PUSH1 0x1F DUP3 GT ISZERO PUSH2 0x1280 JUMPI PUSH2 0x1251 DUP2 PUSH2 0x1128 JUMP JUMPDEST PUSH2 0x125A DUP5 PUSH2 0x113A JUMP JUMPDEST DUP2 ADD PUSH1 0x20 DUP6 LT ISZERO PUSH2 0x1269 JUMPI DUP2 SWAP1 POP JUMPDEST PUSH2 0x127D PUSH2 0x1275 DUP6 PUSH2 0x113A JUMP JUMPDEST DUP4 ADD DUP3 PUSH2 0x121D JUMP JUMPDEST POP POP JUMPDEST POP POP POP JUMP JUMPDEST PUSH0 DUP3 DUP3 SHR SWAP1 POP SWAP3 SWAP2 POP POP JUMP JUMPDEST PUSH0 PUSH2 0x12A0 PUSH0 NOT DUP5 PUSH1 0x8 MUL PUSH2 0x1285 JUMP JUMPDEST NOT DUP1 DUP4 AND SWAP2 POP POP SWAP3 SWAP2 POP POP JUMP JUMPDEST PUSH0 PUSH2 0x12B8 DUP4 DUP4 PUSH2 0x1291 JUMP JUMPDEST SWAP2 POP DUP3 PUSH1 0x2 MUL DUP3 OR SWAP1 POP SWAP3 SWAP2 POP POP JUMP JUMPDEST PUSH2 0x12D1 DUP3 PUSH2 0xCC6 JUMP JUMPDEST PUSH8 0xFFFFFFFFFFFFFFFF DUP2 GT ISZERO PUSH2 0x12EA JUMPI PUSH2 0x12E9 PUSH2 0xA0A JUMP JUMPDEST JUMPDEST PUSH2 0x12F4 DUP3 SLOAD PUSH2 0x1002 JUMP JUMPDEST PUSH2 0x12FF DUP3 DUP3 DUP6 PUSH2 0x123F JUMP JUMPDEST PUSH0 PUSH1 0x20 SWAP1 POP PUSH1 0x1F DUP4 GT PUSH1 0x1 DUP2 EQ PUSH2 0x1330 JUMPI PUSH0 DUP5 ISZERO PUSH2 0x131E JUMPI DUP3 DUP8 ADD MLOAD SWAP1 POP JUMPDEST PUSH2 0x1328 DUP6 DUP3 PUSH2 0x12AD JUMP JUMPDEST DUP7 SSTORE POP PUSH2 0x138F JUMP JUMPDEST PUSH1 0x1F NOT DUP5 AND PUSH2 0x133E DUP7 PUSH2 0x1128 JUMP JUMPDEST PUSH0 JUMPDEST DUP3 DUP2 LT ISZERO PUSH2 0x1365 JUMPI DUP5 DUP10 ADD MLOAD DUP3 SSTORE PUSH1 0x1 DUP3 ADD SWAP2 POP PUSH1 0x20 DUP6 ADD SWAP5 POP PUSH1 0x20 DUP2 ADD SWAP1 POP PUSH2 0x1340 JUMP JUMPDEST DUP7 DUP4 LT ISZERO PUSH2 0x1382 JUMPI DUP5 DUP10 ADD MLOAD PUSH2 0x137E PUSH1 0x1F DUP10 AND DUP3 PUSH2 0x1291 JUMP JUMPDEST DUP4 SSTORE POP JUMPDEST PUSH1 0x1 PUSH1 0x2 DUP9 MUL ADD DUP9 SSTORE POP POP POP JUMPDEST POP POP POP POP POP POP JUMP JUMPDEST PUSH0 PUSH1 0xA0 DUP3 ADD SWAP1 POP DUP2 DUP2 SUB PUSH0 DUP4 ADD MSTORE PUSH2 0x13AF DUP2 DUP9 PUSH2 0xCEE JUMP JUMPDEST SWAP1 POP DUP2 DUP2 SUB PUSH1 0x20 DUP4 ADD MSTORE PUSH2 0x13C3 DUP2 DUP8 PUSH2 0xCEE JUMP JUMPDEST SWAP1 POP PUSH2 0x13D2 PUSH1 0x40 DUP4 ADD DUP7 PUSH2 0xD26 JUMP JUMPDEST PUSH2 0x13DF PUSH1 0x60 DUP4 ADD DUP6 PUSH2 0xD26 JUMP JUMPDEST PUSH2 0x13EC PUSH1 0x80 DUP4 ADD DUP5 PUSH2 0xE5F JUMP JUMPDEST SWAP7 SWAP6 POP POP POP POP POP POP JUMP JUMPDEST PUSH0 DUP2 SWAP1 POP SWAP3 SWAP2 POP POP JUMP JUMPDEST PUSH0 PUSH2 0x140A DUP3 PUSH2 0xCC6 JUMP JUMPDEST PUSH2 0x1414 DUP2 DUP6 PUSH2 0x13F6 JUMP JUMPDEST SWAP4 POP PUSH2 0x1424 DUP2 DUP6 PUSH1 0x20 DUP7 ADD PUSH2 0xCE0 JUMP JUMPDEST DUP1 DUP5 ADD SWAP2 POP POP SWAP3 SWAP2 POP POP JUMP JUMPDEST PUSH0 PUSH2 0x143B DUP3 DUP6 PUSH2 0x1400 JUMP JUMPDEST SWAP2 POP PUSH2 0x1447 DUP3 DUP5 PUSH2 0x1400 JUMP JUMPDEST SWAP2 POP DUP2 SWAP1 POP SWAP4 SWAP3 POP POP POP JUMP JUMPDEST PUSH32 0x436572746966696361746520646F6573206E6F742065786973742E0000000000 PUSH0 DUP3 ADD MSTORE POP JUMP JUMPDEST PUSH0 PUSH2 0x1487 PUSH1 0x1B DUP4 PUSH2 0xCD0 JUMP JUMPDEST SWAP2 POP PUSH2 0x1492 DUP3 PUSH2 0x1453 JUMP JUMPDEST PUSH1 0x20 DUP3 ADD SWAP1 POP SWAP2 SWAP1 POP JUMP JUMPDEST PUSH0 PUSH1 0x20 DUP3 ADD SWAP1 POP DUP2 DUP2 SUB PUSH0 DUP4 ADD MSTORE PUSH2 0x14B4 DUP2 PUSH2 0x147B JUMP JUMPDEST SWAP1 POP SWAP2 SWAP1 POP JUMP JUMPDEST PUSH0 PUSH1 0x40 DUP3 ADD SWAP1 POP PUSH2 0x14CE PUSH0 DUP4 ADD DUP6 PUSH2 0xD99 JUMP JUMPDEST PUSH2 0x14DB PUSH1 0x20 DUP4 ADD DUP5 PUSH2 0xE5F JUMP JUMPDEST SWAP4 SWAP3 POP POP POP JUMP INVALID LOG2 PUSH5 0x6970667358 0x22 SLT KECCAK256 0xAB 0x2C PUSH17 0xC0A905134CC85B2C7BE1860FFE67099347 0x25 PUSH27 0x1F92D0C91E64A6C001C164736F6C634300081E0033000000000000 "
				},
				"gasEstimates": {
					"creation": {
						"codeDepositCost": "1080000",
						"executionCost": "25383",
						"totalCost": "1105383"
					},
					"external": {
						"generateCertificateId(string,string)": "infinite",
						"getCertificate(bytes32)": "infinite",
						"issueCertificate(bytes32,string,string,uint256)": "infinite",
						"owner()": "2552",
						"updateCertificateStatus(bytes32,uint8)": "31531",
						"verifyCertificate(bytes32)": "infinite"
					}
				},
				"methodIdentifiers": {
					"generateCertificateId(string,string)": "7fca072e",
					"getCertificate(bytes32)": "f333fe08",
					"issueCertificate(bytes32,string,string,uint256)": "07e56310",
					"owner()": "8da5cb5b",
					"updateCertificateStatus(bytes32,uint8)": "f1141ce0",
					"verifyCertificate(bytes32)": "850c1768"
				}
			},
			"storageLayout": {
				"storage": [
					{
						"astId": 21,
						"contract": "contracts/Certificate.sol:CertificateManager",
						"label": "certificates",
						"offset": 0,
						"slot": "0",
						"type": "t_mapping(t_bytes32,t_struct(Certificate)16_storage)"
					},
					{
						"astId": 23,
						"contract": "contracts/Certificate.sol:CertificateManager",
						"label": "owner",
						"offset": 0,
						"slot": "1",
						"type": "t_address"
					}
				],
				"types": {
					"t_address": {
						"encoding": "inplace",
						"label": "address",
						"numberOfBytes": "20"
					},
					"t_bytes32": {
						"encoding": "inplace",
						"label": "bytes32",
						"numberOfBytes": "32"
					},
					"t_enum(CertificateStatus)4": {
						"encoding": "inplace",
						"label": "enum CertificateManager.CertificateStatus",
						"numberOfBytes": "1"
					},
					"t_mapping(t_bytes32,t_struct(Certificate)16_storage)": {
						"encoding": "mapping",
						"key": "t_bytes32",
						"label": "mapping(bytes32 => struct CertificateManager.Certificate)",
						"numberOfBytes": "32",
						"value": "t_struct(Certificate)16_storage"
					},
					"t_string_storage": {
						"encoding": "bytes",
						"label": "string",
						"numberOfBytes": "32"
					},
					"t_struct(Certificate)16_storage": {
						"encoding": "inplace",
						"label": "struct CertificateManager.Certificate",
						"members": [
							{
								"astId": 6,
								"contract": "contracts/Certificate.sol:CertificateManager",
								"label": "title",
								"offset": 0,
								"slot": "0",
								"type": "t_string_storage"
							},
							{
								"astId": 8,
								"contract": "contracts/Certificate.sol:CertificateManager",
								"label": "name",
								"offset": 0,
								"slot": "1",
								"type": "t_string_storage"
							},
							{
								"astId": 10,
								"contract": "contracts/Certificate.sol:CertificateManager",
								"label": "issueDate",
								"offset": 0,
								"slot": "2",
								"type": "t_uint256"
							},
							{
								"astId": 13,
								"contract": "contracts/Certificate.sol:CertificateManager",
								"label": "status",
								"offset": 0,
								"slot": "3",
								"type": "t_enum(CertificateStatus)4"
							},
							{
								"astId": 15,
								"contract": "contracts/Certificate.sol:CertificateManager",
								"label": "expiredDate",
								"offset": 0,
								"slot": "4",
								"type": "t_uint256"
							}
						],
						"numberOfBytes": "160"
					},
					"t_uint256": {
						"encoding": "inplace",
						"label": "uint256",
						"numberOfBytes": "32"
					}
				}
			},
			"userdoc": {
				"kind": "user",
				"methods": {},
				"version": 1
			}
		}
	}
}