{
	"data": {
		"bytecode": {
			"linkReferences": {},
			"object": "6080604052348015600e575f5ffd5b503360025f6101000a81548173ffffffffffffffffffffffffffffffffffffffff021916908373ffffffffffffffffffffffffffffffffffffffff160217905550611c928061005c5f395ff3fe608060405234801561000f575f5ffd5b5060043610610060575f3560e01c80632bca3225146100645780635c5872d3146100995780637fca072e146100b55780638da5cb5b146100e5578063f1141ce014610103578063f333fe081461011f575b5f5ffd5b61007e60048036038101906100799190610c0a565b610153565b60405161009096959493929190610d41565b60405180910390f35b6100b360048036038101906100ae9190611060565b6103e9565b005b6100cf60048036038101906100ca91906110fc565b6107df565b6040516100dc9190611181565b60405180910390f35b6100ed610811565b6040516100fa91906111d9565b60405180910390f35b61011d60048036038101906101189190611215565b610836565b005b61013960048036038101906101349190611253565b61099d565b60405161014a9594939291906113ca565b60405180910390f35b60605f5f5f60605f5f60015f8981526020019081526020015f205490505f5f1b81036101b2575f5f5f5f60405180602001604052805f8152509392919060405180602001604052805f81525090965096509650965096509650506103e0565b5f5f5f8381526020019081526020015f2090505f4282600301541190505f5f60018111156101e3576101e2610cb4565b5b836002015f9054906101000a900460ff16600181111561020657610205610cb4565b5b1490505f60405180602001604052805f81525090505f5f90505b846004018054905081101561031a578c85600401828154811061024657610245611429565b5b905f5260205f209060020201600101540361030d5784600401818154811061027157610270611429565b5b905f5260205f2090600202015f01805461028a90611483565b80601f01602080910402602001604051908101604052809291908181526020018280546102b690611483565b80156103015780601f106102d857610100808354040283529160200191610301565b820191905f5260205f20905b8154815290600101906020018083116102e457829003601f168201915b5050505050915061031a565b8080600101915050610220565b50835f018460010154856002015f9054906101000a900460ff168660030154848780156103445750865b85805461035090611483565b80601f016020809104026020016040519081016040528092919081815260200182805461037c90611483565b80156103c75780601f1061039e576101008083540402835291602001916103c7565b820191905f5260205f20905b8154815290600101906020018083116103aa57829003601f168201915b505050505095509a509a509a509a509a509a5050505050505b91939550919395565b60025f9054906101000a900473ffffffffffffffffffffffffffffffffffffffff1673ffffffffffffffffffffffffffffffffffffffff163373ffffffffffffffffffffffffffffffffffffffff1614610478576040517f08c379a000000000000000000000000000000000000000000000000000000000815260040161046f90611523565b60405180910390fd5b5f5f5f8681526020019081526020015f205f01805461049690611483565b9050146104d8576040517f08c379a00000000000000000000000000000000000000000000000000000000081526004016104cf9061158b565b60405180910390fd5b5f82511161051b576040517f08c379a000000000000000000000000000000000000000000000000000000000815260040161051290611619565b60405180910390fd5b42811161055d576040517f08c379a0000000000000000000000000000000000000000000000000000000008152600401610554906116a7565b60405180910390fd5b5f5f5f8681526020019081526020015f20905083815f0190816105809190611865565b504281600101819055505f816002015f6101000a81548160ff021916908360018111156105b0576105af610cb4565b5b02179055508181600301819055505f5f90505b8351811015610796575f8482815181106105e0576105df611429565b5b60200260200101516020015190505f8103610630576040517f08c379a00000000000000000000000000000000000000000000000000000000081526004016106279061197e565b60405180910390fd5b5f60018361063e91906119c9565b90505b85518110156106b7578186828151811061065e5761065d611429565b5b602002602001015160200151036106aa576040517f08c379a00000000000000000000000000000000000000000000000000000000081526004016106a190611a6c565b60405180910390fd5b8080600101915050610641565b505f5f1b60015f8381526020019081526020015f20541461070d576040517f08c379a000000000000000000000000000000000000000000000000000000000815260040161070490611afa565b60405180910390fd5b8260040185838151811061072457610723611429565b5b6020026020010151908060018154018082558091505060019003905f5260205f2090600202015f909190919091505f820151815f0190816107659190611865565b506020820151816001015550508660015f8381526020019081526020015f20819055505080806001019150506105c3565b50847fdc3842389d6e2a6d34297e870a60e4f4bb945c439b144dd680afd24278c6bde18542858751336040516107d0959493929190611b18565b60405180910390a25050505050565b5f82826040516020016107f3929190611baa565b60405160208183030381529060405280519060200120905092915050565b60025f9054906101000a900473ffffffffffffffffffffffffffffffffffffffff1681565b60025f9054906101000a900473ffffffffffffffffffffffffffffffffffffffff1673ffffffffffffffffffffffffffffffffffffffff163373ffffffffffffffffffffffffffffffffffffffff16146108c5576040517f08c379a00000000000000000000000000000000000000000000000000000000081526004016108bc90611523565b60405180910390fd5b5f5f5f8481526020019081526020015f205f0180546108e390611483565b905011610925576040517f08c379a000000000000000000000000000000000000000000000000000000000815260040161091c90611c17565b60405180910390fd5b805f5f8481526020019081526020015f206002015f6101000a81548160ff0219169083600181111561095a57610959610cb4565b5b0217905550817f732720185d98a39ea88255e2e95e63fbafcaa08a661f7c2e654947dbd67d55ec8233604051610991929190611c35565b60405180910390a25050565b60605f5f5f60605f5f5f8881526020019081526020015f205f0180546109c290611483565b905011610a04576040517f08c379a00000000000000000000000000000000000000000000000000000000081526004016109fb90611c17565b60405180910390fd5b5f5f5f8881526020019081526020015f209050805f018160010154826002015f9054906101000a900460ff16836003015484600401848054610a4590611483565b80601f0160208091040260200160405190810160405280929190818152602001828054610a7190611483565b8015610abc5780601f10610a9357610100808354040283529160200191610abc565b820191905f5260205f20905b815481529060010190602001808311610a9f57829003601f168201915b5050505050945080805480602002602001604051908101604052809291908181526020015f905b82821015610bac578382905f5260205f2090600202016040518060400160405290815f82018054610b1390611483565b80601f0160208091040260200160405190810160405280929190818152602001828054610b3f90611483565b8015610b8a5780601f10610b6157610100808354040283529160200191610b8a565b820191905f5260205f20905b815481529060010190602001808311610b6d57829003601f168201915b5050505050815260200160018201548152505081526020019060010190610ae3565b505050509050955095509550955095505091939590929450565b5f604051905090565b5f5ffd5b5f5ffd5b5f819050919050565b610be981610bd7565b8114610bf3575f5ffd5b50565b5f81359050610c0481610be0565b92915050565b5f60208284031215610c1f57610c1e610bcf565b5b5f610c2c84828501610bf6565b91505092915050565b5f81519050919050565b5f82825260208201905092915050565b8281835e5f83830152505050565b5f601f19601f8301169050919050565b5f610c7782610c35565b610c818185610c3f565b9350610c91818560208601610c4f565b610c9a81610c5d565b840191505092915050565b610cae81610bd7565b82525050565b7f4e487b71000000000000000000000000000000000000000000000000000000005f52602160045260245ffd5b60028110610cf257610cf1610cb4565b5b50565b5f819050610d0282610ce1565b919050565b5f610d1182610cf5565b9050919050565b610d2181610d07565b82525050565b5f8115159050919050565b610d3b81610d27565b82525050565b5f60c0820190508181035f830152610d598189610c6d565b9050610d686020830188610ca5565b610d756040830187610d18565b610d826060830186610ca5565b8181036080830152610d948185610c6d565b9050610da360a0830184610d32565b979650505050505050565b5f819050919050565b610dc081610dae565b8114610dca575f5ffd5b50565b5f81359050610ddb81610db7565b92915050565b5f5ffd5b5f5ffd5b7f4e487b71000000000000000000000000000000000000000000000000000000005f52604160045260245ffd5b610e1f82610c5d565b810181811067ffffffffffffffff82111715610e3e57610e3d610de9565b5b80604052505050565b5f610e50610bc6565b9050610e5c8282610e16565b919050565b5f67ffffffffffffffff821115610e7b57610e7a610de9565b5b610e8482610c5d565b9050602081019050919050565b828183375f83830152505050565b5f610eb1610eac84610e61565b610e47565b905082815260208101848484011115610ecd57610ecc610de5565b5b610ed8848285610e91565b509392505050565b5f82601f830112610ef457610ef3610de1565b5b8135610f04848260208601610e9f565b91505092915050565b5f67ffffffffffffffff821115610f2757610f26610de9565b5b602082029050602081019050919050565b5f5ffd5b5f5ffd5b5f5ffd5b5f60408284031215610f5957610f58610f3c565b5b610f636040610e47565b90505f82013567ffffffffffffffff811115610f8257610f81610f40565b5b610f8e84828501610ee0565b5f830152506020610fa184828501610bf6565b60208301525092915050565b5f610fbf610fba84610f0d565b610e47565b90508083825260208201905060208402830185811115610fe257610fe1610f38565b5b835b8181101561102957803567ffffffffffffffff81111561100757611006610de1565b5b8086016110148982610f44565b85526020850194505050602081019050610fe4565b5050509392505050565b5f82601f83011261104757611046610de1565b5b8135611057848260208601610fad565b91505092915050565b5f5f5f5f6080858703121561107857611077610bcf565b5b5f61108587828801610dcd565b945050602085013567ffffffffffffffff8111156110a6576110a5610bd3565b5b6110b287828801610ee0565b935050604085013567ffffffffffffffff8111156110d3576110d2610bd3565b5b6110df87828801611033565b92505060606110f087828801610bf6565b91505092959194509250565b5f5f6040838503121561111257611111610bcf565b5b5f83013567ffffffffffffffff81111561112f5761112e610bd3565b5b61113b85828601610ee0565b925050602083013567ffffffffffffffff81111561115c5761115b610bd3565b5b61116885828601610ee0565b9150509250929050565b61117b81610dae565b82525050565b5f6020820190506111945f830184611172565b92915050565b5f73ffffffffffffffffffffffffffffffffffffffff82169050919050565b5f6111c38261119a565b9050919050565b6111d3816111b9565b82525050565b5f6020820190506111ec5f8301846111ca565b92915050565b600281106111fe575f5ffd5b50565b5f8135905061120f816111f2565b92915050565b5f5f6040838503121561122b5761122a610bcf565b5b5f61123885828601610dcd565b925050602061124985828601611201565b9150509250929050565b5f6020828403121561126857611267610bcf565b5b5f61127584828501610dcd565b91505092915050565b5f81519050919050565b5f82825260208201905092915050565b5f819050602082019050919050565b5f82825260208201905092915050565b5f6112c182610c35565b6112cb81856112a7565b93506112db818560208601610c4f565b6112e481610c5d565b840191505092915050565b6112f881610bd7565b82525050565b5f604083015f8301518482035f86015261131882826112b7565b915050602083015161132d60208601826112ef565b508091505092915050565b5f61134383836112fe565b905092915050565b5f602082019050919050565b5f6113618261127e565b61136b8185611288565b93508360208202850161137d85611298565b805f5b858110156113b857848403895281516113998582611338565b94506113a48361134b565b925060208a01995050600181019050611380565b50829750879550505050505092915050565b5f60a0820190508181035f8301526113e28188610c6d565b90506113f16020830187610ca5565b6113fe6040830186610d18565b61140b6060830185610ca5565b818103608083015261141d8184611357565b90509695505050505050565b7f4e487b71000000000000000000000000000000000000000000000000000000005f52603260045260245ffd5b7f4e487b71000000000000000000000000000000000000000000000000000000005f52602260045260245ffd5b5f600282049050600182168061149a57607f821691505b6020821081036114ad576114ac611456565b5b50919050565b7f4f6e6c792074686520636f6e7472616374206f776e65722063616e20706572665f8201527f6f726d207468697320616374696f6e2e00000000000000000000000000000000602082015250565b5f61150d603083610c3f565b9150611518826114b3565b604082019050919050565b5f6020820190508181035f83015261153a81611501565b9050919050565b7f436572746966696361746520494420616c7265616479206578697374732e00005f82015250565b5f611575601e83610c3f565b915061158082611541565b602082019050919050565b5f6020820190508181035f8301526115a281611569565b9050919050565b7f4174206c65617374206f6e65207061727469636970616e7420697320726571755f8201527f697265642e000000000000000000000000000000000000000000000000000000602082015250565b5f611603602583610c3f565b915061160e826115a9565b604082019050919050565b5f6020820190508181035f830152611630816115f7565b9050919050565b7f457870697265642064617465206d75737420626520696e2074686520667574755f8201527f72652e0000000000000000000000000000000000000000000000000000000000602082015250565b5f611691602383610c3f565b915061169c82611637565b604082019050919050565b5f6020820190508181035f8301526116be81611685565b9050919050565b5f819050815f5260205f209050919050565b5f6020601f8301049050919050565b5f82821b905092915050565b5f600883026117217fffffffffffffffffffffffffffffffffffffffffffffffffffffffffffffffff826116e6565b61172b86836116e6565b95508019841693508086168417925050509392505050565b5f819050919050565b5f61176661176161175c84610bd7565b611743565b610bd7565b9050919050565b5f819050919050565b61177f8361174c565b61179361178b8261176d565b8484546116f2565b825550505050565b5f5f905090565b6117aa61179b565b6117b5818484611776565b505050565b5b818110156117d8576117cd5f826117a2565b6001810190506117bb565b5050565b601f82111561181d576117ee816116c5565b6117f7846116d7565b81016020851015611806578190505b61181a611812856116d7565b8301826117ba565b50505b505050565b5f82821c905092915050565b5f61183d5f1984600802611822565b1980831691505092915050565b5f611855838361182e565b9150826002028217905092915050565b61186e82610c35565b67ffffffffffffffff81111561188757611886610de9565b5b6118918254611483565b61189c8282856117dc565b5f60209050601f8311600181146118cd575f84156118bb578287015190505b6118c5858261184a565b86555061192c565b601f1984166118db866116c5565b5f5b82811015611902578489015182556001820191506020850194506020810190506118dd565b8683101561191f578489015161191b601f89168261182e565b8355505b6001600288020188555050505b505050505050565b7f4e494d2063616e6e6f74206265207a65726f2e000000000000000000000000005f82015250565b5f611968601383610c3f565b915061197382611934565b602082019050919050565b5f6020820190508181035f8301526119958161195c565b9050919050565b7f4e487b71000000000000000000000000000000000000000000000000000000005f52601160045260245ffd5b5f6119d382610bd7565b91506119de83610bd7565b92508282019050808211156119f6576119f561199c565b5b92915050565b7f4475706c6963617465204e494d20666f756e6420696e207061727469636970615f8201527f6e74732061727261792e00000000000000000000000000000000000000000000602082015250565b5f611a56602a83610c3f565b9150611a61826119fc565b604082019050919050565b5f6020820190508181035f830152611a8381611a4a565b9050919050565b7f4e494d2f52616e646f6d204e756d62657220616c7265616479207265676973745f8201527f65726564207769746820616e6f746865722063657274696669636174652e0000602082015250565b5f611ae4603e83610c3f565b9150611aef82611a8a565b604082019050919050565b5f6020820190508181035f830152611b1181611ad8565b9050919050565b5f60a0820190508181035f830152611b308188610c6d565b9050611b3f6020830187610ca5565b611b4c6040830186610ca5565b611b596060830185610ca5565b611b6660808301846111ca565b9695505050505050565b5f81905092915050565b5f611b8482610c35565b611b8e8185611b70565b9350611b9e818560208601610c4f565b80840191505092915050565b5f611bb58285611b7a565b9150611bc18284611b7a565b91508190509392505050565b7f436572746966696361746520646f6573206e6f742065786973742e00000000005f82015250565b5f611c01601b83610c3f565b9150611c0c82611bcd565b602082019050919050565b5f6020820190508181035f830152611c2e81611bf5565b9050919050565b5f604082019050611c485f830185610d18565b611c5560208301846111ca565b939250505056fea26469706673582212209860af2fe17c187ea558b16b8061fe76de2d5408ca9f4a291e792497ecacb88364736f6c634300081e0033",
			"opcodes": "PUSH1 0x80 PUSH1 0x40 MSTORE CALLVALUE DUP1 ISZERO PUSH1 0xE JUMPI PUSH0 PUSH0 REVERT JUMPDEST POP CALLER PUSH1 0x2 PUSH0 PUSH2 0x100 EXP DUP2 SLOAD DUP2 PUSH20 0xFFFFFFFFFFFFFFFFFFFFFFFFFFFFFFFFFFFFFFFF MUL NOT AND SWAP1 DUP4 PUSH20 0xFFFFFFFFFFFFFFFFFFFFFFFFFFFFFFFFFFFFFFFF AND MUL OR SWAP1 SSTORE POP PUSH2 0x1C92 DUP1 PUSH2 0x5C PUSH0 CODECOPY PUSH0 RETURN INVALID PUSH1 0x80 PUSH1 0x40 MSTORE CALLVALUE DUP1 ISZERO PUSH2 0xF JUMPI PUSH0 PUSH0 REVERT JUMPDEST POP PUSH1 0x4 CALLDATASIZE LT PUSH2 0x60 JUMPI PUSH0 CALLDATALOAD PUSH1 0xE0 SHR DUP1 PUSH4 0x2BCA3225 EQ PUSH2 0x64 JUMPI DUP1 PUSH4 0x5C5872D3 EQ PUSH2 0x99 JUMPI DUP1 PUSH4 0x7FCA072E EQ PUSH2 0xB5 JUMPI DUP1 PUSH4 0x8DA5CB5B EQ PUSH2 0xE5 JUMPI DUP1 PUSH4 0xF1141CE0 EQ PUSH2 0x103 JUMPI DUP1 PUSH4 0xF333FE08 EQ PUSH2 0x11F JUMPI JUMPDEST PUSH0 PUSH0 REVERT JUMPDEST PUSH2 0x7E PUSH1 0x4 DUP1 CALLDATASIZE SUB DUP2 ADD SWAP1 PUSH2 0x79 SWAP2 SWAP1 PUSH2 0xC0A JUMP JUMPDEST PUSH2 0x153 JUMP JUMPDEST PUSH1 0x40 MLOAD PUSH2 0x90 SWAP7 SWAP6 SWAP5 SWAP4 SWAP3 SWAP2 SWAP1 PUSH2 0xD41 JUMP JUMPDEST PUSH1 0x40 MLOAD DUP1 SWAP2 SUB SWAP1 RETURN JUMPDEST PUSH2 0xB3 PUSH1 0x4 DUP1 CALLDATASIZE SUB DUP2 ADD SWAP1 PUSH2 0xAE SWAP2 SWAP1 PUSH2 0x1060 JUMP JUMPDEST PUSH2 0x3E9 JUMP JUMPDEST STOP JUMPDEST PUSH2 0xCF PUSH1 0x4 DUP1 CALLDATASIZE SUB DUP2 ADD SWAP1 PUSH2 0xCA SWAP2 SWAP1 PUSH2 0x10FC JUMP JUMPDEST PUSH2 0x7DF JUMP JUMPDEST PUSH1 0x40 MLOAD PUSH2 0xDC SWAP2 SWAP1 PUSH2 0x1181 JUMP JUMPDEST PUSH1 0x40 MLOAD DUP1 SWAP2 SUB SWAP1 RETURN JUMPDEST PUSH2 0xED PUSH2 0x811 JUMP JUMPDEST PUSH1 0x40 MLOAD PUSH2 0xFA SWAP2 SWAP1 PUSH2 0x11D9 JUMP JUMPDEST PUSH1 0x40 MLOAD DUP1 SWAP2 SUB SWAP1 RETURN JUMPDEST PUSH2 0x11D PUSH1 0x4 DUP1 CALLDATASIZE SUB DUP2 ADD SWAP1 PUSH2 0x118 SWAP2 SWAP1 PUSH2 0x1215 JUMP JUMPDEST PUSH2 0x836 JUMP JUMPDEST STOP JUMPDEST PUSH2 0x139 PUSH1 0x4 DUP1 CALLDATASIZE SUB DUP2 ADD SWAP1 PUSH2 0x134 SWAP2 SWAP1 PUSH2 0x1253 JUMP JUMPDEST PUSH2 0x99D JUMP JUMPDEST PUSH1 0x40 MLOAD PUSH2 0x14A SWAP6 SWAP5 SWAP4 SWAP3 SWAP2 SWAP1 PUSH2 0x13CA JUMP JUMPDEST PUSH1 0x40 MLOAD DUP1 SWAP2 SUB SWAP1 RETURN JUMPDEST PUSH1 0x60 PUSH0 PUSH0 PUSH0 PUSH1 0x60 PUSH0 PUSH0 PUSH1 0x1 PUSH0 DUP10 DUP2 MSTORE PUSH1 0x20 ADD SWAP1 DUP2 MSTORE PUSH1 0x20 ADD PUSH0 KECCAK256 SLOAD SWAP1 POP PUSH0 PUSH0 SHL DUP2 SUB PUSH2 0x1B2 JUMPI PUSH0 PUSH0 PUSH0 PUSH0 PUSH1 0x40 MLOAD DUP1 PUSH1 0x20 ADD PUSH1 0x40 MSTORE DUP1 PUSH0 DUP2 MSTORE POP SWAP4 SWAP3 SWAP2 SWAP1 PUSH1 0x40 MLOAD DUP1 PUSH1 0x20 ADD PUSH1 0x40 MSTORE DUP1 PUSH0 DUP2 MSTORE POP SWAP1 SWAP7 POP SWAP7 POP SWAP7 POP SWAP7 POP SWAP7 POP SWAP7 POP POP PUSH2 0x3E0 JUMP JUMPDEST PUSH0 PUSH0 PUSH0 DUP4 DUP2 MSTORE PUSH1 0x20 ADD SWAP1 DUP2 MSTORE PUSH1 0x20 ADD PUSH0 KECCAK256 SWAP1 POP PUSH0 TIMESTAMP DUP3 PUSH1 0x3 ADD SLOAD GT SWAP1 POP PUSH0 PUSH0 PUSH1 0x1 DUP2 GT ISZERO PUSH2 0x1E3 JUMPI PUSH2 0x1E2 PUSH2 0xCB4 JUMP JUMPDEST JUMPDEST DUP4 PUSH1 0x2 ADD PUSH0 SWAP1 SLOAD SWAP1 PUSH2 0x100 EXP SWAP1 DIV PUSH1 0xFF AND PUSH1 0x1 DUP2 GT ISZERO PUSH2 0x206 JUMPI PUSH2 0x205 PUSH2 0xCB4 JUMP JUMPDEST JUMPDEST EQ SWAP1 POP PUSH0 PUSH1 0x40 MLOAD DUP1 PUSH1 0x20 ADD PUSH1 0x40 MSTORE DUP1 PUSH0 DUP2 MSTORE POP SWAP1 POP PUSH0 PUSH0 SWAP1 POP JUMPDEST DUP5 PUSH1 0x4 ADD DUP1 SLOAD SWAP1 POP DUP2 LT ISZERO PUSH2 0x31A JUMPI DUP13 DUP6 PUSH1 0x4 ADD DUP3 DUP2 SLOAD DUP2 LT PUSH2 0x246 JUMPI PUSH2 0x245 PUSH2 0x1429 JUMP JUMPDEST JUMPDEST SWAP1 PUSH0 MSTORE PUSH1 0x20 PUSH0 KECCAK256 SWAP1 PUSH1 0x2 MUL ADD PUSH1 0x1 ADD SLOAD SUB PUSH2 0x30D JUMPI DUP5 PUSH1 0x4 ADD DUP2 DUP2 SLOAD DUP2 LT PUSH2 0x271 JUMPI PUSH2 0x270 PUSH2 0x1429 JUMP JUMPDEST JUMPDEST SWAP1 PUSH0 MSTORE PUSH1 0x20 PUSH0 KECCAK256 SWAP1 PUSH1 0x2 MUL ADD PUSH0 ADD DUP1 SLOAD PUSH2 0x28A SWAP1 PUSH2 0x1483 JUMP JUMPDEST DUP1 PUSH1 0x1F ADD PUSH1 0x20 DUP1 SWAP2 DIV MUL PUSH1 0x20 ADD PUSH1 0x40 MLOAD SWAP1 DUP2 ADD PUSH1 0x40 MSTORE DUP1 SWAP3 SWAP2 SWAP1 DUP2 DUP2 MSTORE PUSH1 0x20 ADD DUP3 DUP1 SLOAD PUSH2 0x2B6 SWAP1 PUSH2 0x1483 JUMP JUMPDEST DUP1 ISZERO PUSH2 0x301 JUMPI DUP1 PUSH1 0x1F LT PUSH2 0x2D8 JUMPI PUSH2 0x100 DUP1 DUP4 SLOAD DIV MUL DUP4 MSTORE SWAP2 PUSH1 0x20 ADD SWAP2 PUSH2 0x301 JUMP JUMPDEST DUP3 ADD SWAP2 SWAP1 PUSH0 MSTORE PUSH1 0x20 PUSH0 KECCAK256 SWAP1 JUMPDEST DUP2 SLOAD DUP2 MSTORE SWAP1 PUSH1 0x1 ADD SWAP1 PUSH1 0x20 ADD DUP1 DUP4 GT PUSH2 0x2E4 JUMPI DUP3 SWAP1 SUB PUSH1 0x1F AND DUP3 ADD SWAP2 JUMPDEST POP POP POP POP POP SWAP2 POP PUSH2 0x31A JUMP JUMPDEST DUP1 DUP1 PUSH1 0x1 ADD SWAP2 POP POP PUSH2 0x220 JUMP JUMPDEST POP DUP4 PUSH0 ADD DUP5 PUSH1 0x1 ADD SLOAD DUP6 PUSH1 0x2 ADD PUSH0 SWAP1 SLOAD SWAP1 PUSH2 0x100 EXP SWAP1 DIV PUSH1 0xFF AND DUP7 PUSH1 0x3 ADD SLOAD DUP5 DUP8 DUP1 ISZERO PUSH2 0x344 JUMPI POP DUP7 JUMPDEST DUP6 DUP1 SLOAD PUSH2 0x350 SWAP1 PUSH2 0x1483 JUMP JUMPDEST DUP1 PUSH1 0x1F ADD PUSH1 0x20 DUP1 SWAP2 DIV MUL PUSH1 0x20 ADD PUSH1 0x40 MLOAD SWAP1 DUP2 ADD PUSH1 0x40 MSTORE DUP1 SWAP3 SWAP2 SWAP1 DUP2 DUP2 MSTORE PUSH1 0x20 ADD DUP3 DUP1 SLOAD PUSH2 0x37C SWAP1 PUSH2 0x1483 JUMP JUMPDEST DUP1 ISZERO PUSH2 0x3C7 JUMPI DUP1 PUSH1 0x1F LT PUSH2 0x39E JUMPI PUSH2 0x100 DUP1 DUP4 SLOAD DIV MUL DUP4 MSTORE SWAP2 PUSH1 0x20 ADD SWAP2 PUSH2 0x3C7 JUMP JUMPDEST DUP3 ADD SWAP2 SWAP1 PUSH0 MSTORE PUSH1 0x20 PUSH0 KECCAK256 SWAP1 JUMPDEST DUP2 SLOAD DUP2 MSTORE SWAP1 PUSH1 0x1 ADD SWAP1 PUSH1 0x20 ADD DUP1 DUP4 GT PUSH2 0x3AA JUMPI DUP3 SWAP1 SUB PUSH1 0x1F AND DUP3 ADD SWAP2 JUMPDEST POP POP POP POP POP SWAP6 POP SWAP11 POP SWAP11 POP SWAP11 POP SWAP11 POP SWAP11 POP SWAP11 POP POP POP POP POP POP JUMPDEST SWAP2 SWAP4 SWAP6 POP SWAP2 SWAP4 SWAP6 JUMP JUMPDEST PUSH1 0x2 PUSH0 SWAP1 SLOAD SWAP1 PUSH2 0x100 EXP SWAP1 DIV PUSH20 0xFFFFFFFFFFFFFFFFFFFFFFFFFFFFFFFFFFFFFFFF AND PUSH20 0xFFFFFFFFFFFFFFFFFFFFFFFFFFFFFFFFFFFFFFFF AND CALLER PUSH20 0xFFFFFFFFFFFFFFFFFFFFFFFFFFFFFFFFFFFFFFFF AND EQ PUSH2 0x478 JUMPI PUSH1 0x40 MLOAD PUSH32 0x8C379A000000000000000000000000000000000000000000000000000000000 DUP2 MSTORE PUSH1 0x4 ADD PUSH2 0x46F SWAP1 PUSH2 0x1523 JUMP JUMPDEST PUSH1 0x40 MLOAD DUP1 SWAP2 SUB SWAP1 REVERT JUMPDEST PUSH0 PUSH0 PUSH0 DUP7 DUP2 MSTORE PUSH1 0x20 ADD SWAP1 DUP2 MSTORE PUSH1 0x20 ADD PUSH0 KECCAK256 PUSH0 ADD DUP1 SLOAD PUSH2 0x496 SWAP1 PUSH2 0x1483 JUMP JUMPDEST SWAP1 POP EQ PUSH2 0x4D8 JUMPI PUSH1 0x40 MLOAD PUSH32 0x8C379A000000000000000000000000000000000000000000000000000000000 DUP2 MSTORE PUSH1 0x4 ADD PUSH2 0x4CF SWAP1 PUSH2 0x158B JUMP JUMPDEST PUSH1 0x40 MLOAD DUP1 SWAP2 SUB SWAP1 REVERT JUMPDEST PUSH0 DUP3 MLOAD GT PUSH2 0x51B JUMPI PUSH1 0x40 MLOAD PUSH32 0x8C379A000000000000000000000000000000000000000000000000000000000 DUP2 MSTORE PUSH1 0x4 ADD PUSH2 0x512 SWAP1 PUSH2 0x1619 JUMP JUMPDEST PUSH1 0x40 MLOAD DUP1 SWAP2 SUB SWAP1 REVERT JUMPDEST TIMESTAMP DUP2 GT PUSH2 0x55D JUMPI PUSH1 0x40 MLOAD PUSH32 0x8C379A000000000000000000000000000000000000000000000000000000000 DUP2 MSTORE PUSH1 0x4 ADD PUSH2 0x554 SWAP1 PUSH2 0x16A7 JUMP JUMPDEST PUSH1 0x40 MLOAD DUP1 SWAP2 SUB SWAP1 REVERT JUMPDEST PUSH0 PUSH0 PUSH0 DUP7 DUP2 MSTORE PUSH1 0x20 ADD SWAP1 DUP2 MSTORE PUSH1 0x20 ADD PUSH0 KECCAK256 SWAP1 POP DUP4 DUP2 PUSH0 ADD SWAP1 DUP2 PUSH2 0x580 SWAP2 SWAP1 PUSH2 0x1865 JUMP JUMPDEST POP TIMESTAMP DUP2 PUSH1 0x1 ADD DUP2 SWAP1 SSTORE POP PUSH0 DUP2 PUSH1 0x2 ADD PUSH0 PUSH2 0x100 EXP DUP2 SLOAD DUP2 PUSH1 0xFF MUL NOT AND SWAP1 DUP4 PUSH1 0x1 DUP2 GT ISZERO PUSH2 0x5B0 JUMPI PUSH2 0x5AF PUSH2 0xCB4 JUMP JUMPDEST JUMPDEST MUL OR SWAP1 SSTORE POP DUP2 DUP2 PUSH1 0x3 ADD DUP2 SWAP1 SSTORE POP PUSH0 PUSH0 SWAP1 POP JUMPDEST DUP4 MLOAD DUP2 LT ISZERO PUSH2 0x796 JUMPI PUSH0 DUP5 DUP3 DUP2 MLOAD DUP2 LT PUSH2 0x5E0 JUMPI PUSH2 0x5DF PUSH2 0x1429 JUMP JUMPDEST JUMPDEST PUSH1 0x20 MUL PUSH1 0x20 ADD ADD MLOAD PUSH1 0x20 ADD MLOAD SWAP1 POP PUSH0 DUP2 SUB PUSH2 0x630 JUMPI PUSH1 0x40 MLOAD PUSH32 0x8C379A000000000000000000000000000000000000000000000000000000000 DUP2 MSTORE PUSH1 0x4 ADD PUSH2 0x627 SWAP1 PUSH2 0x197E JUMP JUMPDEST PUSH1 0x40 MLOAD DUP1 SWAP2 SUB SWAP1 REVERT JUMPDEST PUSH0 PUSH1 0x1 DUP4 PUSH2 0x63E SWAP2 SWAP1 PUSH2 0x19C9 JUMP JUMPDEST SWAP1 POP JUMPDEST DUP6 MLOAD DUP2 LT ISZERO PUSH2 0x6B7 JUMPI DUP2 DUP7 DUP3 DUP2 MLOAD DUP2 LT PUSH2 0x65E JUMPI PUSH2 0x65D PUSH2 0x1429 JUMP JUMPDEST JUMPDEST PUSH1 0x20 MUL PUSH1 0x20 ADD ADD MLOAD PUSH1 0x20 ADD MLOAD SUB PUSH2 0x6AA JUMPI PUSH1 0x40 MLOAD PUSH32 0x8C379A000000000000000000000000000000000000000000000000000000000 DUP2 MSTORE PUSH1 0x4 ADD PUSH2 0x6A1 SWAP1 PUSH2 0x1A6C JUMP JUMPDEST PUSH1 0x40 MLOAD DUP1 SWAP2 SUB SWAP1 REVERT JUMPDEST DUP1 DUP1 PUSH1 0x1 ADD SWAP2 POP POP PUSH2 0x641 JUMP JUMPDEST POP PUSH0 PUSH0 SHL PUSH1 0x1 PUSH0 DUP4 DUP2 MSTORE PUSH1 0x20 ADD SWAP1 DUP2 MSTORE PUSH1 0x20 ADD PUSH0 KECCAK256 SLOAD EQ PUSH2 0x70D JUMPI PUSH1 0x40 MLOAD PUSH32 0x8C379A000000000000000000000000000000000000000000000000000000000 DUP2 MSTORE PUSH1 0x4 ADD PUSH2 0x704 SWAP1 PUSH2 0x1AFA JUMP JUMPDEST PUSH1 0x40 MLOAD DUP1 SWAP2 SUB SWAP1 REVERT JUMPDEST DUP3 PUSH1 0x4 ADD DUP6 DUP4 DUP2 MLOAD DUP2 LT PUSH2 0x724 JUMPI PUSH2 0x723 PUSH2 0x1429 JUMP JUMPDEST JUMPDEST PUSH1 0x20 MUL PUSH1 0x20 ADD ADD MLOAD SWAP1 DUP1 PUSH1 0x1 DUP2 SLOAD ADD DUP1 DUP3 SSTORE DUP1 SWAP2 POP POP PUSH1 0x1 SWAP1 SUB SWAP1 PUSH0 MSTORE PUSH1 0x20 PUSH0 KECCAK256 SWAP1 PUSH1 0x2 MUL ADD PUSH0 SWAP1 SWAP2 SWAP1 SWAP2 SWAP1 SWAP2 POP PUSH0 DUP3 ADD MLOAD DUP2 PUSH0 ADD SWAP1 DUP2 PUSH2 0x765 SWAP2 SWAP1 PUSH2 0x1865 JUMP JUMPDEST POP PUSH1 0x20 DUP3 ADD MLOAD DUP2 PUSH1 0x1 ADD SSTORE POP POP DUP7 PUSH1 0x1 PUSH0 DUP4 DUP2 MSTORE PUSH1 0x20 ADD SWAP1 DUP2 MSTORE PUSH1 0x20 ADD PUSH0 KECCAK256 DUP2 SWAP1 SSTORE POP POP DUP1 DUP1 PUSH1 0x1 ADD SWAP2 POP POP PUSH2 0x5C3 JUMP JUMPDEST POP DUP5 PUSH32 0xDC3842389D6E2A6D34297E870A60E4F4BB945C439B144DD680AFD24278C6BDE1 DUP6 TIMESTAMP DUP6 DUP8 MLOAD CALLER PUSH1 0x40 MLOAD PUSH2 0x7D0 SWAP6 SWAP5 SWAP4 SWAP3 SWAP2 SWAP1 PUSH2 0x1B18 JUMP JUMPDEST PUSH1 0x40 MLOAD DUP1 SWAP2 SUB SWAP1 LOG2 POP POP POP POP POP JUMP JUMPDEST PUSH0 DUP3 DUP3 PUSH1 0x40 MLOAD PUSH1 0x20 ADD PUSH2 0x7F3 SWAP3 SWAP2 SWAP1 PUSH2 0x1BAA JUMP JUMPDEST PUSH1 0x40 MLOAD PUSH1 0x20 DUP2 DUP4 SUB SUB DUP2 MSTORE SWAP1 PUSH1 0x40 MSTORE DUP1 MLOAD SWAP1 PUSH1 0x20 ADD KECCAK256 SWAP1 POP SWAP3 SWAP2 POP POP JUMP JUMPDEST PUSH1 0x2 PUSH0 SWAP1 SLOAD SWAP1 PUSH2 0x100 EXP SWAP1 DIV PUSH20 0xFFFFFFFFFFFFFFFFFFFFFFFFFFFFFFFFFFFFFFFF AND DUP2 JUMP JUMPDEST PUSH1 0x2 PUSH0 SWAP1 SLOAD SWAP1 PUSH2 0x100 EXP SWAP1 DIV PUSH20 0xFFFFFFFFFFFFFFFFFFFFFFFFFFFFFFFFFFFFFFFF AND PUSH20 0xFFFFFFFFFFFFFFFFFFFFFFFFFFFFFFFFFFFFFFFF AND CALLER PUSH20 0xFFFFFFFFFFFFFFFFFFFFFFFFFFFFFFFFFFFFFFFF AND EQ PUSH2 0x8C5 JUMPI PUSH1 0x40 MLOAD PUSH32 0x8C379A000000000000000000000000000000000000000000000000000000000 DUP2 MSTORE PUSH1 0x4 ADD PUSH2 0x8BC SWAP1 PUSH2 0x1523 JUMP JUMPDEST PUSH1 0x40 MLOAD DUP1 SWAP2 SUB SWAP1 REVERT JUMPDEST PUSH0 PUSH0 PUSH0 DUP5 DUP2 MSTORE PUSH1 0x20 ADD SWAP1 DUP2 MSTORE PUSH1 0x20 ADD PUSH0 KECCAK256 PUSH0 ADD DUP1 SLOAD PUSH2 0x8E3 SWAP1 PUSH2 0x1483 JUMP JUMPDEST SWAP1 POP GT PUSH2 0x925 JUMPI PUSH1 0x40 MLOAD PUSH32 0x8C379A000000000000000000000000000000000000000000000000000000000 DUP2 MSTORE PUSH1 0x4 ADD PUSH2 0x91C SWAP1 PUSH2 0x1C17 JUMP JUMPDEST PUSH1 0x40 MLOAD DUP1 SWAP2 SUB SWAP1 REVERT JUMPDEST DUP1 PUSH0 PUSH0 DUP5 DUP2 MSTORE PUSH1 0x20 ADD SWAP1 DUP2 MSTORE PUSH1 0x20 ADD PUSH0 KECCAK256 PUSH1 0x2 ADD PUSH0 PUSH2 0x100 EXP DUP2 SLOAD DUP2 PUSH1 0xFF MUL NOT AND SWAP1 DUP4 PUSH1 0x1 DUP2 GT ISZERO PUSH2 0x95A JUMPI PUSH2 0x959 PUSH2 0xCB4 JUMP JUMPDEST JUMPDEST MUL OR SWAP1 SSTORE POP DUP2 PUSH32 0x732720185D98A39EA88255E2E95E63FBAFCAA08A661F7C2E654947DBD67D55EC DUP3 CALLER PUSH1 0x40 MLOAD PUSH2 0x991 SWAP3 SWAP2 SWAP1 PUSH2 0x1C35 JUMP JUMPDEST PUSH1 0x40 MLOAD DUP1 SWAP2 SUB SWAP1 LOG2 POP POP JUMP JUMPDEST PUSH1 0x60 PUSH0 PUSH0 PUSH0 PUSH1 0x60 PUSH0 PUSH0 PUSH0 DUP9 DUP2 MSTORE PUSH1 0x20 ADD SWAP1 DUP2 MSTORE PUSH1 0x20 ADD PUSH0 KECCAK256 PUSH0 ADD DUP1 SLOAD PUSH2 0x9C2 SWAP1 PUSH2 0x1483 JUMP JUMPDEST SWAP1 POP GT PUSH2 0xA04 JUMPI PUSH1 0x40 MLOAD PUSH32 0x8C379A000000000000000000000000000000000000000000000000000000000 DUP2 MSTORE PUSH1 0x4 ADD PUSH2 0x9FB SWAP1 PUSH2 0x1C17 JUMP JUMPDEST PUSH1 0x40 MLOAD DUP1 SWAP2 SUB SWAP1 REVERT JUMPDEST PUSH0 PUSH0 PUSH0 DUP9 DUP2 MSTORE PUSH1 0x20 ADD SWAP1 DUP2 MSTORE PUSH1 0x20 ADD PUSH0 KECCAK256 SWAP1 POP DUP1 PUSH0 ADD DUP2 PUSH1 0x1 ADD SLOAD DUP3 PUSH1 0x2 ADD PUSH0 SWAP1 SLOAD SWAP1 PUSH2 0x100 EXP SWAP1 DIV PUSH1 0xFF AND DUP4 PUSH1 0x3 ADD SLOAD DUP5 PUSH1 0x4 ADD DUP5 DUP1 SLOAD PUSH2 0xA45 SWAP1 PUSH2 0x1483 JUMP JUMPDEST DUP1 PUSH1 0x1F ADD PUSH1 0x20 DUP1 SWAP2 DIV MUL PUSH1 0x20 ADD PUSH1 0x40 MLOAD SWAP1 DUP2 ADD PUSH1 0x40 MSTORE DUP1 SWAP3 SWAP2 SWAP1 DUP2 DUP2 MSTORE PUSH1 0x20 ADD DUP3 DUP1 SLOAD PUSH2 0xA71 SWAP1 PUSH2 0x1483 JUMP JUMPDEST DUP1 ISZERO PUSH2 0xABC JUMPI DUP1 PUSH1 0x1F LT PUSH2 0xA93 JUMPI PUSH2 0x100 DUP1 DUP4 SLOAD DIV MUL DUP4 MSTORE SWAP2 PUSH1 0x20 ADD SWAP2 PUSH2 0xABC JUMP JUMPDEST DUP3 ADD SWAP2 SWAP1 PUSH0 MSTORE PUSH1 0x20 PUSH0 KECCAK256 SWAP1 JUMPDEST DUP2 SLOAD DUP2 MSTORE SWAP1 PUSH1 0x1 ADD SWAP1 PUSH1 0x20 ADD DUP1 DUP4 GT PUSH2 0xA9F JUMPI DUP3 SWAP1 SUB PUSH1 0x1F AND DUP3 ADD SWAP2 JUMPDEST POP POP POP POP POP SWAP5 POP DUP1 DUP1 SLOAD DUP1 PUSH1 0x20 MUL PUSH1 0x20 ADD PUSH1 0x40 MLOAD SWAP1 DUP2 ADD PUSH1 0x40 MSTORE DUP1 SWAP3 SWAP2 SWAP1 DUP2 DUP2 MSTORE PUSH1 0x20 ADD PUSH0 SWAP1 JUMPDEST DUP3 DUP3 LT ISZERO PUSH2 0xBAC JUMPI DUP4 DUP3 SWAP1 PUSH0 MSTORE PUSH1 0x20 PUSH0 KECCAK256 SWAP1 PUSH1 0x2 MUL ADD PUSH1 0x40 MLOAD DUP1 PUSH1 0x40 ADD PUSH1 0x40 MSTORE SWAP1 DUP2 PUSH0 DUP3 ADD DUP1 SLOAD PUSH2 0xB13 SWAP1 PUSH2 0x1483 JUMP JUMPDEST DUP1 PUSH1 0x1F ADD PUSH1 0x20 DUP1 SWAP2 DIV MUL PUSH1 0x20 ADD PUSH1 0x40 MLOAD SWAP1 DUP2 ADD PUSH1 0x40 MSTORE DUP1 SWAP3 SWAP2 SWAP1 DUP2 DUP2 MSTORE PUSH1 0x20 ADD DUP3 DUP1 SLOAD PUSH2 0xB3F SWAP1 PUSH2 0x1483 JUMP JUMPDEST DUP1 ISZERO PUSH2 0xB8A JUMPI DUP1 PUSH1 0x1F LT PUSH2 0xB61 JUMPI PUSH2 0x100 DUP1 DUP4 SLOAD DIV MUL DUP4 MSTORE SWAP2 PUSH1 0x20 ADD SWAP2 PUSH2 0xB8A JUMP JUMPDEST DUP3 ADD SWAP2 SWAP1 PUSH0 MSTORE PUSH1 0x20 PUSH0 KECCAK256 SWAP1 JUMPDEST DUP2 SLOAD DUP2 MSTORE SWAP1 PUSH1 0x1 ADD SWAP1 PUSH1 0x20 ADD DUP1 DUP4 GT PUSH2 0xB6D JUMPI DUP3 SWAP1 SUB PUSH1 0x1F AND DUP3 ADD SWAP2 JUMPDEST POP POP POP POP POP DUP2 MSTORE PUSH1 0x20 ADD PUSH1 0x1 DUP3 ADD SLOAD DUP2 MSTORE POP POP DUP2 MSTORE PUSH1 0x20 ADD SWAP1 PUSH1 0x1 ADD SWAP1 PUSH2 0xAE3 JUMP JUMPDEST POP POP POP POP SWAP1 POP SWAP6 POP SWAP6 POP SWAP6 POP SWAP6 POP SWAP6 POP POP SWAP2 SWAP4 SWAP6 SWAP1 SWAP3 SWAP5 POP JUMP JUMPDEST PUSH0 PUSH1 0x40 MLOAD SWAP1 POP SWAP1 JUMP JUMPDEST PUSH0 PUSH0 REVERT JUMPDEST PUSH0 PUSH0 REVERT JUMPDEST PUSH0 DUP2 SWAP1 POP SWAP2 SWAP1 POP JUMP JUMPDEST PUSH2 0xBE9 DUP2 PUSH2 0xBD7 JUMP JUMPDEST DUP2 EQ PUSH2 0xBF3 JUMPI PUSH0 PUSH0 REVERT JUMPDEST POP JUMP JUMPDEST PUSH0 DUP2 CALLDATALOAD SWAP1 POP PUSH2 0xC04 DUP2 PUSH2 0xBE0 JUMP JUMPDEST SWAP3 SWAP2 POP POP JUMP JUMPDEST PUSH0 PUSH1 0x20 DUP3 DUP5 SUB SLT ISZERO PUSH2 0xC1F JUMPI PUSH2 0xC1E PUSH2 0xBCF JUMP JUMPDEST JUMPDEST PUSH0 PUSH2 0xC2C DUP5 DUP3 DUP6 ADD PUSH2 0xBF6 JUMP JUMPDEST SWAP2 POP POP SWAP3 SWAP2 POP POP JUMP JUMPDEST PUSH0 DUP2 MLOAD SWAP1 POP SWAP2 SWAP1 POP JUMP JUMPDEST PUSH0 DUP3 DUP3 MSTORE PUSH1 0x20 DUP3 ADD SWAP1 POP SWAP3 SWAP2 POP POP JUMP JUMPDEST DUP3 DUP2 DUP4 MCOPY PUSH0 DUP4 DUP4 ADD MSTORE POP POP POP JUMP JUMPDEST PUSH0 PUSH1 0x1F NOT PUSH1 0x1F DUP4 ADD AND SWAP1 POP SWAP2 SWAP1 POP JUMP JUMPDEST PUSH0 PUSH2 0xC77 DUP3 PUSH2 0xC35 JUMP JUMPDEST PUSH2 0xC81 DUP2 DUP6 PUSH2 0xC3F JUMP JUMPDEST SWAP4 POP PUSH2 0xC91 DUP2 DUP6 PUSH1 0x20 DUP7 ADD PUSH2 0xC4F JUMP JUMPDEST PUSH2 0xC9A DUP2 PUSH2 0xC5D JUMP JUMPDEST DUP5 ADD SWAP2 POP POP SWAP3 SWAP2 POP POP JUMP JUMPDEST PUSH2 0xCAE DUP2 PUSH2 0xBD7 JUMP JUMPDEST DUP3 MSTORE POP POP JUMP JUMPDEST PUSH32 0x4E487B7100000000000000000000000000000000000000000000000000000000 PUSH0 MSTORE PUSH1 0x21 PUSH1 0x4 MSTORE PUSH1 0x24 PUSH0 REVERT JUMPDEST PUSH1 0x2 DUP2 LT PUSH2 0xCF2 JUMPI PUSH2 0xCF1 PUSH2 0xCB4 JUMP JUMPDEST JUMPDEST POP JUMP JUMPDEST PUSH0 DUP2 SWAP1 POP PUSH2 0xD02 DUP3 PUSH2 0xCE1 JUMP JUMPDEST SWAP2 SWAP1 POP JUMP JUMPDEST PUSH0 PUSH2 0xD11 DUP3 PUSH2 0xCF5 JUMP JUMPDEST SWAP1 POP SWAP2 SWAP1 POP JUMP JUMPDEST PUSH2 0xD21 DUP2 PUSH2 0xD07 JUMP JUMPDEST DUP3 MSTORE POP POP JUMP JUMPDEST PUSH0 DUP2 ISZERO ISZERO SWAP1 POP SWAP2 SWAP1 POP JUMP JUMPDEST PUSH2 0xD3B DUP2 PUSH2 0xD27 JUMP JUMPDEST DUP3 MSTORE POP POP JUMP JUMPDEST PUSH0 PUSH1 0xC0 DUP3 ADD SWAP1 POP DUP2 DUP2 SUB PUSH0 DUP4 ADD MSTORE PUSH2 0xD59 DUP2 DUP10 PUSH2 0xC6D JUMP JUMPDEST SWAP1 POP PUSH2 0xD68 PUSH1 0x20 DUP4 ADD DUP9 PUSH2 0xCA5 JUMP JUMPDEST PUSH2 0xD75 PUSH1 0x40 DUP4 ADD DUP8 PUSH2 0xD18 JUMP JUMPDEST PUSH2 0xD82 PUSH1 0x60 DUP4 ADD DUP7 PUSH2 0xCA5 JUMP JUMPDEST DUP2 DUP2 SUB PUSH1 0x80 DUP4 ADD MSTORE PUSH2 0xD94 DUP2 DUP6 PUSH2 0xC6D JUMP JUMPDEST SWAP1 POP PUSH2 0xDA3 PUSH1 0xA0 DUP4 ADD DUP5 PUSH2 0xD32 JUMP JUMPDEST SWAP8 SWAP7 POP POP POP POP POP POP POP JUMP JUMPDEST PUSH0 DUP2 SWAP1 POP SWAP2 SWAP1 POP JUMP JUMPDEST PUSH2 0xDC0 DUP2 PUSH2 0xDAE JUMP JUMPDEST DUP2 EQ PUSH2 0xDCA JUMPI PUSH0 PUSH0 REVERT JUMPDEST POP JUMP JUMPDEST PUSH0 DUP2 CALLDATALOAD SWAP1 POP PUSH2 0xDDB DUP2 PUSH2 0xDB7 JUMP JUMPDEST SWAP3 SWAP2 POP POP JUMP JUMPDEST PUSH0 PUSH0 REVERT JUMPDEST PUSH0 PUSH0 REVERT JUMPDEST PUSH32 0x4E487B7100000000000000000000000000000000000000000000000000000000 PUSH0 MSTORE PUSH1 0x41 PUSH1 0x4 MSTORE PUSH1 0x24 PUSH0 REVERT JUMPDEST PUSH2 0xE1F DUP3 PUSH2 0xC5D JUMP JUMPDEST DUP2 ADD DUP2 DUP2 LT PUSH8 0xFFFFFFFFFFFFFFFF DUP3 GT OR ISZERO PUSH2 0xE3E JUMPI PUSH2 0xE3D PUSH2 0xDE9 JUMP JUMPDEST JUMPDEST DUP1 PUSH1 0x40 MSTORE POP POP POP JUMP JUMPDEST PUSH0 PUSH2 0xE50 PUSH2 0xBC6 JUMP JUMPDEST SWAP1 POP PUSH2 0xE5C DUP3 DUP3 PUSH2 0xE16 JUMP JUMPDEST SWAP2 SWAP1 POP JUMP JUMPDEST PUSH0 PUSH8 0xFFFFFFFFFFFFFFFF DUP3 GT ISZERO PUSH2 0xE7B JUMPI PUSH2 0xE7A PUSH2 0xDE9 JUMP JUMPDEST JUMPDEST PUSH2 0xE84 DUP3 PUSH2 0xC5D JUMP JUMPDEST SWAP1 POP PUSH1 0x20 DUP2 ADD SWAP1 POP SWAP2 SWAP1 POP JUMP JUMPDEST DUP3 DUP2 DUP4 CALLDATACOPY PUSH0 DUP4 DUP4 ADD MSTORE POP POP POP JUMP JUMPDEST PUSH0 PUSH2 0xEB1 PUSH2 0xEAC DUP5 PUSH2 0xE61 JUMP JUMPDEST PUSH2 0xE47 JUMP JUMPDEST SWAP1 POP DUP3 DUP2 MSTORE PUSH1 0x20 DUP2 ADD DUP5 DUP5 DUP5 ADD GT ISZERO PUSH2 0xECD JUMPI PUSH2 0xECC PUSH2 0xDE5 JUMP JUMPDEST JUMPDEST PUSH2 0xED8 DUP5 DUP3 DUP6 PUSH2 0xE91 JUMP JUMPDEST POP SWAP4 SWAP3 POP POP POP JUMP JUMPDEST PUSH0 DUP3 PUSH1 0x1F DUP4 ADD SLT PUSH2 0xEF4 JUMPI PUSH2 0xEF3 PUSH2 0xDE1 JUMP JUMPDEST JUMPDEST DUP2 CALLDATALOAD PUSH2 0xF04 DUP5 DUP3 PUSH1 0x20 DUP7 ADD PUSH2 0xE9F JUMP JUMPDEST SWAP2 POP POP SWAP3 SWAP2 POP POP JUMP JUMPDEST PUSH0 PUSH8 0xFFFFFFFFFFFFFFFF DUP3 GT ISZERO PUSH2 0xF27 JUMPI PUSH2 0xF26 PUSH2 0xDE9 JUMP JUMPDEST JUMPDEST PUSH1 0x20 DUP3 MUL SWAP1 POP PUSH1 0x20 DUP2 ADD SWAP1 POP SWAP2 SWAP1 POP JUMP JUMPDEST PUSH0 PUSH0 REVERT JUMPDEST PUSH0 PUSH0 REVERT JUMPDEST PUSH0 PUSH0 REVERT JUMPDEST PUSH0 PUSH1 0x40 DUP3 DUP5 SUB SLT ISZERO PUSH2 0xF59 JUMPI PUSH2 0xF58 PUSH2 0xF3C JUMP JUMPDEST JUMPDEST PUSH2 0xF63 PUSH1 0x40 PUSH2 0xE47 JUMP JUMPDEST SWAP1 POP PUSH0 DUP3 ADD CALLDATALOAD PUSH8 0xFFFFFFFFFFFFFFFF DUP2 GT ISZERO PUSH2 0xF82 JUMPI PUSH2 0xF81 PUSH2 0xF40 JUMP JUMPDEST JUMPDEST PUSH2 0xF8E DUP5 DUP3 DUP6 ADD PUSH2 0xEE0 JUMP JUMPDEST PUSH0 DUP4 ADD MSTORE POP PUSH1 0x20 PUSH2 0xFA1 DUP5 DUP3 DUP6 ADD PUSH2 0xBF6 JUMP JUMPDEST PUSH1 0x20 DUP4 ADD MSTORE POP SWAP3 SWAP2 POP POP JUMP JUMPDEST PUSH0 PUSH2 0xFBF PUSH2 0xFBA DUP5 PUSH2 0xF0D JUMP JUMPDEST PUSH2 0xE47 JUMP JUMPDEST SWAP1 POP DUP1 DUP4 DUP3 MSTORE PUSH1 0x20 DUP3 ADD SWAP1 POP PUSH1 0x20 DUP5 MUL DUP4 ADD DUP6 DUP2 GT ISZERO PUSH2 0xFE2 JUMPI PUSH2 0xFE1 PUSH2 0xF38 JUMP JUMPDEST JUMPDEST DUP4 JUMPDEST DUP2 DUP2 LT ISZERO PUSH2 0x1029 JUMPI DUP1 CALLDATALOAD PUSH8 0xFFFFFFFFFFFFFFFF DUP2 GT ISZERO PUSH2 0x1007 JUMPI PUSH2 0x1006 PUSH2 0xDE1 JUMP JUMPDEST JUMPDEST DUP1 DUP7 ADD PUSH2 0x1014 DUP10 DUP3 PUSH2 0xF44 JUMP JUMPDEST DUP6 MSTORE PUSH1 0x20 DUP6 ADD SWAP5 POP POP POP PUSH1 0x20 DUP2 ADD SWAP1 POP PUSH2 0xFE4 JUMP JUMPDEST POP POP POP SWAP4 SWAP3 POP POP POP JUMP JUMPDEST PUSH0 DUP3 PUSH1 0x1F DUP4 ADD SLT PUSH2 0x1047 JUMPI PUSH2 0x1046 PUSH2 0xDE1 JUMP JUMPDEST JUMPDEST DUP2 CALLDATALOAD PUSH2 0x1057 DUP5 DUP3 PUSH1 0x20 DUP7 ADD PUSH2 0xFAD JUMP JUMPDEST SWAP2 POP POP SWAP3 SWAP2 POP POP JUMP JUMPDEST PUSH0 PUSH0 PUSH0 PUSH0 PUSH1 0x80 DUP6 DUP8 SUB SLT ISZERO PUSH2 0x1078 JUMPI PUSH2 0x1077 PUSH2 0xBCF JUMP JUMPDEST JUMPDEST PUSH0 PUSH2 0x1085 DUP8 DUP3 DUP9 ADD PUSH2 0xDCD JUMP JUMPDEST SWAP5 POP POP PUSH1 0x20 DUP6 ADD CALLDATALOAD PUSH8 0xFFFFFFFFFFFFFFFF DUP2 GT ISZERO PUSH2 0x10A6 JUMPI PUSH2 0x10A5 PUSH2 0xBD3 JUMP JUMPDEST JUMPDEST PUSH2 0x10B2 DUP8 DUP3 DUP9 ADD PUSH2 0xEE0 JUMP JUMPDEST SWAP4 POP POP PUSH1 0x40 DUP6 ADD CALLDATALOAD PUSH8 0xFFFFFFFFFFFFFFFF DUP2 GT ISZERO PUSH2 0x10D3 JUMPI PUSH2 0x10D2 PUSH2 0xBD3 JUMP JUMPDEST JUMPDEST PUSH2 0x10DF DUP8 DUP3 DUP9 ADD PUSH2 0x1033 JUMP JUMPDEST SWAP3 POP POP PUSH1 0x60 PUSH2 0x10F0 DUP8 DUP3 DUP9 ADD PUSH2 0xBF6 JUMP JUMPDEST SWAP2 POP POP SWAP3 SWAP6 SWAP2 SWAP5 POP SWAP3 POP JUMP JUMPDEST PUSH0 PUSH0 PUSH1 0x40 DUP4 DUP6 SUB SLT ISZERO PUSH2 0x1112 JUMPI PUSH2 0x1111 PUSH2 0xBCF JUMP JUMPDEST JUMPDEST PUSH0 DUP4 ADD CALLDATALOAD PUSH8 0xFFFFFFFFFFFFFFFF DUP2 GT ISZERO PUSH2 0x112F JUMPI PUSH2 0x112E PUSH2 0xBD3 JUMP JUMPDEST JUMPDEST PUSH2 0x113B DUP6 DUP3 DUP7 ADD PUSH2 0xEE0 JUMP JUMPDEST SWAP3 POP POP PUSH1 0x20 DUP4 ADD CALLDATALOAD PUSH8 0xFFFFFFFFFFFFFFFF DUP2 GT ISZERO PUSH2 0x115C JUMPI PUSH2 0x115B PUSH2 0xBD3 JUMP JUMPDEST JUMPDEST PUSH2 0x1168 DUP6 DUP3 DUP7 ADD PUSH2 0xEE0 JUMP JUMPDEST SWAP2 POP POP SWAP3 POP SWAP3 SWAP1 POP JUMP JUMPDEST PUSH2 0x117B DUP2 PUSH2 0xDAE JUMP JUMPDEST DUP3 MSTORE POP POP JUMP JUMPDEST PUSH0 PUSH1 0x20 DUP3 ADD SWAP1 POP PUSH2 0x1194 PUSH0 DUP4 ADD DUP5 PUSH2 0x1172 JUMP JUMPDEST SWAP3 SWAP2 POP POP JUMP JUMPDEST PUSH0 PUSH20 0xFFFFFFFFFFFFFFFFFFFFFFFFFFFFFFFFFFFFFFFF DUP3 AND SWAP1 POP SWAP2 SWAP1 POP JUMP JUMPDEST PUSH0 PUSH2 0x11C3 DUP3 PUSH2 0x119A JUMP JUMPDEST SWAP1 POP SWAP2 SWAP1 POP JUMP JUMPDEST PUSH2 0x11D3 DUP2 PUSH2 0x11B9 JUMP JUMPDEST DUP3 MSTORE POP POP JUMP JUMPDEST PUSH0 PUSH1 0x20 DUP3 ADD SWAP1 POP PUSH2 0x11EC PUSH0 DUP4 ADD DUP5 PUSH2 0x11CA JUMP JUMPDEST SWAP3 SWAP2 POP POP JUMP JUMPDEST PUSH1 0x2 DUP2 LT PUSH2 0x11FE JUMPI PUSH0 PUSH0 REVERT JUMPDEST POP JUMP JUMPDEST PUSH0 DUP2 CALLDATALOAD SWAP1 POP PUSH2 0x120F DUP2 PUSH2 0x11F2 JUMP JUMPDEST SWAP3 SWAP2 POP POP JUMP JUMPDEST PUSH0 PUSH0 PUSH1 0x40 DUP4 DUP6 SUB SLT ISZERO PUSH2 0x122B JUMPI PUSH2 0x122A PUSH2 0xBCF JUMP JUMPDEST JUMPDEST PUSH0 PUSH2 0x1238 DUP6 DUP3 DUP7 ADD PUSH2 0xDCD JUMP JUMPDEST SWAP3 POP POP PUSH1 0x20 PUSH2 0x1249 DUP6 DUP3 DUP7 ADD PUSH2 0x1201 JUMP JUMPDEST SWAP2 POP POP SWAP3 POP SWAP3 SWAP1 POP JUMP JUMPDEST PUSH0 PUSH1 0x20 DUP3 DUP5 SUB SLT ISZERO PUSH2 0x1268 JUMPI PUSH2 0x1267 PUSH2 0xBCF JUMP JUMPDEST JUMPDEST PUSH0 PUSH2 0x1275 DUP5 DUP3 DUP6 ADD PUSH2 0xDCD JUMP JUMPDEST SWAP2 POP POP SWAP3 SWAP2 POP POP JUMP JUMPDEST PUSH0 DUP2 MLOAD SWAP1 POP SWAP2 SWAP1 POP JUMP JUMPDEST PUSH0 DUP3 DUP3 MSTORE PUSH1 0x20 DUP3 ADD SWAP1 POP SWAP3 SWAP2 POP POP JUMP JUMPDEST PUSH0 DUP2 SWAP1 POP PUSH1 0x20 DUP3 ADD SWAP1 POP SWAP2 SWAP1 POP JUMP JUMPDEST PUSH0 DUP3 DUP3 MSTORE PUSH1 0x20 DUP3 ADD SWAP1 POP SWAP3 SWAP2 POP POP JUMP JUMPDEST PUSH0 PUSH2 0x12C1 DUP3 PUSH2 0xC35 JUMP JUMPDEST PUSH2 0x12CB DUP2 DUP6 PUSH2 0x12A7 JUMP JUMPDEST SWAP4 POP PUSH2 0x12DB DUP2 DUP6 PUSH1 0x20 DUP7 ADD PUSH2 0xC4F JUMP JUMPDEST PUSH2 0x12E4 DUP2 PUSH2 0xC5D JUMP JUMPDEST DUP5 ADD SWAP2 POP POP SWAP3 SWAP2 POP POP JUMP JUMPDEST PUSH2 0x12F8 DUP2 PUSH2 0xBD7 JUMP JUMPDEST DUP3 MSTORE POP POP JUMP JUMPDEST PUSH0 PUSH1 0x40 DUP4 ADD PUSH0 DUP4 ADD MLOAD DUP5 DUP3 SUB PUSH0 DUP7 ADD MSTORE PUSH2 0x1318 DUP3 DUP3 PUSH2 0x12B7 JUMP JUMPDEST SWAP2 POP POP PUSH1 0x20 DUP4 ADD MLOAD PUSH2 0x132D PUSH1 0x20 DUP7 ADD DUP3 PUSH2 0x12EF JUMP JUMPDEST POP DUP1 SWAP2 POP POP SWAP3 SWAP2 POP POP JUMP JUMPDEST PUSH0 PUSH2 0x1343 DUP4 DUP4 PUSH2 0x12FE JUMP JUMPDEST SWAP1 POP SWAP3 SWAP2 POP POP JUMP JUMPDEST PUSH0 PUSH1 0x20 DUP3 ADD SWAP1 POP SWAP2 SWAP1 POP JUMP JUMPDEST PUSH0 PUSH2 0x1361 DUP3 PUSH2 0x127E JUMP JUMPDEST PUSH2 0x136B DUP2 DUP6 PUSH2 0x1288 JUMP JUMPDEST SWAP4 POP DUP4 PUSH1 0x20 DUP3 MUL DUP6 ADD PUSH2 0x137D DUP6 PUSH2 0x1298 JUMP JUMPDEST DUP1 PUSH0 JUMPDEST DUP6 DUP2 LT ISZERO PUSH2 0x13B8 JUMPI DUP5 DUP5 SUB DUP10 MSTORE DUP2 MLOAD PUSH2 0x1399 DUP6 DUP3 PUSH2 0x1338 JUMP JUMPDEST SWAP5 POP PUSH2 0x13A4 DUP4 PUSH2 0x134B JUMP JUMPDEST SWAP3 POP PUSH1 0x20 DUP11 ADD SWAP10 POP POP PUSH1 0x1 DUP2 ADD SWAP1 POP PUSH2 0x1380 JUMP JUMPDEST POP DUP3 SWAP8 POP DUP8 SWAP6 POP POP POP POP POP POP SWAP3 SWAP2 POP POP JUMP JUMPDEST PUSH0 PUSH1 0xA0 DUP3 ADD SWAP1 POP DUP2 DUP2 SUB PUSH0 DUP4 ADD MSTORE PUSH2 0x13E2 DUP2 DUP9 PUSH2 0xC6D JUMP JUMPDEST SWAP1 POP PUSH2 0x13F1 PUSH1 0x20 DUP4 ADD DUP8 PUSH2 0xCA5 JUMP JUMPDEST PUSH2 0x13FE PUSH1 0x40 DUP4 ADD DUP7 PUSH2 0xD18 JUMP JUMPDEST PUSH2 0x140B PUSH1 0x60 DUP4 ADD DUP6 PUSH2 0xCA5 JUMP JUMPDEST DUP2 DUP2 SUB PUSH1 0x80 DUP4 ADD MSTORE PUSH2 0x141D DUP2 DUP5 PUSH2 0x1357 JUMP JUMPDEST SWAP1 POP SWAP7 SWAP6 POP POP POP POP POP POP JUMP JUMPDEST PUSH32 0x4E487B7100000000000000000000000000000000000000000000000000000000 PUSH0 MSTORE PUSH1 0x32 PUSH1 0x4 MSTORE PUSH1 0x24 PUSH0 REVERT JUMPDEST PUSH32 0x4E487B7100000000000000000000000000000000000000000000000000000000 PUSH0 MSTORE PUSH1 0x22 PUSH1 0x4 MSTORE PUSH1 0x24 PUSH0 REVERT JUMPDEST PUSH0 PUSH1 0x2 DUP3 DIV SWAP1 POP PUSH1 0x1 DUP3 AND DUP1 PUSH2 0x149A JUMPI PUSH1 0x7F DUP3 AND SWAP2 POP JUMPDEST PUSH1 0x20 DUP3 LT DUP2 SUB PUSH2 0x14AD JUMPI PUSH2 0x14AC PUSH2 0x1456 JUMP JUMPDEST JUMPDEST POP SWAP2 SWAP1 POP JUMP JUMPDEST PUSH32 0x4F6E6C792074686520636F6E7472616374206F776E65722063616E2070657266 PUSH0 DUP3 ADD MSTORE PUSH32 0x6F726D207468697320616374696F6E2E00000000000000000000000000000000 PUSH1 0x20 DUP3 ADD MSTORE POP JUMP JUMPDEST PUSH0 PUSH2 0x150D PUSH1 0x30 DUP4 PUSH2 0xC3F JUMP JUMPDEST SWAP2 POP PUSH2 0x1518 DUP3 PUSH2 0x14B3 JUMP JUMPDEST PUSH1 0x40 DUP3 ADD SWAP1 POP SWAP2 SWAP1 POP JUMP JUMPDEST PUSH0 PUSH1 0x20 DUP3 ADD SWAP1 POP DUP2 DUP2 SUB PUSH0 DUP4 ADD MSTORE PUSH2 0x153A DUP2 PUSH2 0x1501 JUMP JUMPDEST SWAP1 POP SWAP2 SWAP1 POP JUMP JUMPDEST PUSH32 0x436572746966696361746520494420616C7265616479206578697374732E0000 PUSH0 DUP3 ADD MSTORE POP JUMP JUMPDEST PUSH0 PUSH2 0x1575 PUSH1 0x1E DUP4 PUSH2 0xC3F JUMP JUMPDEST SWAP2 POP PUSH2 0x1580 DUP3 PUSH2 0x1541 JUMP JUMPDEST PUSH1 0x20 DUP3 ADD SWAP1 POP SWAP2 SWAP1 POP JUMP JUMPDEST PUSH0 PUSH1 0x20 DUP3 ADD SWAP1 POP DUP2 DUP2 SUB PUSH0 DUP4 ADD MSTORE PUSH2 0x15A2 DUP2 PUSH2 0x1569 JUMP JUMPDEST SWAP1 POP SWAP2 SWAP1 POP JUMP JUMPDEST PUSH32 0x4174206C65617374206F6E65207061727469636970616E742069732072657175 PUSH0 DUP3 ADD MSTORE PUSH32 0x697265642E000000000000000000000000000000000000000000000000000000 PUSH1 0x20 DUP3 ADD MSTORE POP JUMP JUMPDEST PUSH0 PUSH2 0x1603 PUSH1 0x25 DUP4 PUSH2 0xC3F JUMP JUMPDEST SWAP2 POP PUSH2 0x160E DUP3 PUSH2 0x15A9 JUMP JUMPDEST PUSH1 0x40 DUP3 ADD SWAP1 POP SWAP2 SWAP1 POP JUMP JUMPDEST PUSH0 PUSH1 0x20 DUP3 ADD SWAP1 POP DUP2 DUP2 SUB PUSH0 DUP4 ADD MSTORE PUSH2 0x1630 DUP2 PUSH2 0x15F7 JUMP JUMPDEST SWAP1 POP SWAP2 SWAP1 POP JUMP JUMPDEST PUSH32 0x457870697265642064617465206D75737420626520696E207468652066757475 PUSH0 DUP3 ADD MSTORE PUSH32 0x72652E0000000000000000000000000000000000000000000000000000000000 PUSH1 0x20 DUP3 ADD MSTORE POP JUMP JUMPDEST PUSH0 PUSH2 0x1691 PUSH1 0x23 DUP4 PUSH2 0xC3F JUMP JUMPDEST SWAP2 POP PUSH2 0x169C DUP3 PUSH2 0x1637 JUMP JUMPDEST PUSH1 0x40 DUP3 ADD SWAP1 POP SWAP2 SWAP1 POP JUMP JUMPDEST PUSH0 PUSH1 0x20 DUP3 ADD SWAP1 POP DUP2 DUP2 SUB PUSH0 DUP4 ADD MSTORE PUSH2 0x16BE DUP2 PUSH2 0x1685 JUMP JUMPDEST SWAP1 POP SWAP2 SWAP1 POP JUMP JUMPDEST PUSH0 DUP2 SWAP1 POP DUP2 PUSH0 MSTORE PUSH1 0x20 PUSH0 KECCAK256 SWAP1 POP SWAP2 SWAP1 POP JUMP JUMPDEST PUSH0 PUSH1 0x20 PUSH1 0x1F DUP4 ADD DIV SWAP1 POP SWAP2 SWAP1 POP JUMP JUMPDEST PUSH0 DUP3 DUP3 SHL SWAP1 POP SWAP3 SWAP2 POP POP JUMP JUMPDEST PUSH0 PUSH1 0x8 DUP4 MUL PUSH2 0x1721 PUSH32 0xFFFFFFFFFFFFFFFFFFFFFFFFFFFFFFFFFFFFFFFFFFFFFFFFFFFFFFFFFFFFFFFF DUP3 PUSH2 0x16E6 JUMP JUMPDEST PUSH2 0x172B DUP7 DUP4 PUSH2 0x16E6 JUMP JUMPDEST SWAP6 POP DUP1 NOT DUP5 AND SWAP4 POP DUP1 DUP7 AND DUP5 OR SWAP3 POP POP POP SWAP4 SWAP3 POP POP POP JUMP JUMPDEST PUSH0 DUP2 SWAP1 POP SWAP2 SWAP1 POP JUMP JUMPDEST PUSH0 PUSH2 0x1766 PUSH2 0x1761 PUSH2 0x175C DUP5 PUSH2 0xBD7 JUMP JUMPDEST PUSH2 0x1743 JUMP JUMPDEST PUSH2 0xBD7 JUMP JUMPDEST SWAP1 POP SWAP2 SWAP1 POP JUMP JUMPDEST PUSH0 DUP2 SWAP1 POP SWAP2 SWAP1 POP JUMP JUMPDEST PUSH2 0x177F DUP4 PUSH2 0x174C JUMP JUMPDEST PUSH2 0x1793 PUSH2 0x178B DUP3 PUSH2 0x176D JUMP JUMPDEST DUP5 DUP5 SLOAD PUSH2 0x16F2 JUMP JUMPDEST DUP3 SSTORE POP POP POP POP JUMP JUMPDEST PUSH0 PUSH0 SWAP1 POP SWAP1 JUMP JUMPDEST PUSH2 0x17AA PUSH2 0x179B JUMP JUMPDEST PUSH2 0x17B5 DUP2 DUP5 DUP5 PUSH2 0x1776 JUMP JUMPDEST POP POP POP JUMP JUMPDEST JUMPDEST DUP2 DUP2 LT ISZERO PUSH2 0x17D8 JUMPI PUSH2 0x17CD PUSH0 DUP3 PUSH2 0x17A2 JUMP JUMPDEST PUSH1 0x1 DUP2 ADD SWAP1 POP PUSH2 0x17BB JUMP JUMPDEST POP POP JUMP JUMPDEST PUSH1 0x1F DUP3 GT ISZERO PUSH2 0x181D JUMPI PUSH2 0x17EE DUP2 PUSH2 0x16C5 JUMP JUMPDEST PUSH2 0x17F7 DUP5 PUSH2 0x16D7 JUMP JUMPDEST DUP2 ADD PUSH1 0x20 DUP6 LT ISZERO PUSH2 0x1806 JUMPI DUP2 SWAP1 POP JUMPDEST PUSH2 0x181A PUSH2 0x1812 DUP6 PUSH2 0x16D7 JUMP JUMPDEST DUP4 ADD DUP3 PUSH2 0x17BA JUMP JUMPDEST POP POP JUMPDEST POP POP POP JUMP JUMPDEST PUSH0 DUP3 DUP3 SHR SWAP1 POP SWAP3 SWAP2 POP POP JUMP JUMPDEST PUSH0 PUSH2 0x183D PUSH0 NOT DUP5 PUSH1 0x8 MUL PUSH2 0x1822 JUMP JUMPDEST NOT DUP1 DUP4 AND SWAP2 POP POP SWAP3 SWAP2 POP POP JUMP JUMPDEST PUSH0 PUSH2 0x1855 DUP4 DUP4 PUSH2 0x182E JUMP JUMPDEST SWAP2 POP DUP3 PUSH1 0x2 MUL DUP3 OR SWAP1 POP SWAP3 SWAP2 POP POP JUMP JUMPDEST PUSH2 0x186E DUP3 PUSH2 0xC35 JUMP JUMPDEST PUSH8 0xFFFFFFFFFFFFFFFF DUP2 GT ISZERO PUSH2 0x1887 JUMPI PUSH2 0x1886 PUSH2 0xDE9 JUMP JUMPDEST JUMPDEST PUSH2 0x1891 DUP3 SLOAD PUSH2 0x1483 JUMP JUMPDEST PUSH2 0x189C DUP3 DUP3 DUP6 PUSH2 0x17DC JUMP JUMPDEST PUSH0 PUSH1 0x20 SWAP1 POP PUSH1 0x1F DUP4 GT PUSH1 0x1 DUP2 EQ PUSH2 0x18CD JUMPI PUSH0 DUP5 ISZERO PUSH2 0x18BB JUMPI DUP3 DUP8 ADD MLOAD SWAP1 POP JUMPDEST PUSH2 0x18C5 DUP6 DUP3 PUSH2 0x184A JUMP JUMPDEST DUP7 SSTORE POP PUSH2 0x192C JUMP JUMPDEST PUSH1 0x1F NOT DUP5 AND PUSH2 0x18DB DUP7 PUSH2 0x16C5 JUMP JUMPDEST PUSH0 JUMPDEST DUP3 DUP2 LT ISZERO PUSH2 0x1902 JUMPI DUP5 DUP10 ADD MLOAD DUP3 SSTORE PUSH1 0x1 DUP3 ADD SWAP2 POP PUSH1 0x20 DUP6 ADD SWAP5 POP PUSH1 0x20 DUP2 ADD SWAP1 POP PUSH2 0x18DD JUMP JUMPDEST DUP7 DUP4 LT ISZERO PUSH2 0x191F JUMPI DUP5 DUP10 ADD MLOAD PUSH2 0x191B PUSH1 0x1F DUP10 AND DUP3 PUSH2 0x182E JUMP JUMPDEST DUP4 SSTORE POP JUMPDEST PUSH1 0x1 PUSH1 0x2 DUP9 MUL ADD DUP9 SSTORE POP POP POP JUMPDEST POP POP POP POP POP POP JUMP JUMPDEST PUSH32 0x4E494D2063616E6E6F74206265207A65726F2E00000000000000000000000000 PUSH0 DUP3 ADD MSTORE POP JUMP JUMPDEST PUSH0 PUSH2 0x1968 PUSH1 0x13 DUP4 PUSH2 0xC3F JUMP JUMPDEST SWAP2 POP PUSH2 0x1973 DUP3 PUSH2 0x1934 JUMP JUMPDEST PUSH1 0x20 DUP3 ADD SWAP1 POP SWAP2 SWAP1 POP JUMP JUMPDEST PUSH0 PUSH1 0x20 DUP3 ADD SWAP1 POP DUP2 DUP2 SUB PUSH0 DUP4 ADD MSTORE PUSH2 0x1995 DUP2 PUSH2 0x195C JUMP JUMPDEST SWAP1 POP SWAP2 SWAP1 POP JUMP JUMPDEST PUSH32 0x4E487B7100000000000000000000000000000000000000000000000000000000 PUSH0 MSTORE PUSH1 0x11 PUSH1 0x4 MSTORE PUSH1 0x24 PUSH0 REVERT JUMPDEST PUSH0 PUSH2 0x19D3 DUP3 PUSH2 0xBD7 JUMP JUMPDEST SWAP2 POP PUSH2 0x19DE DUP4 PUSH2 0xBD7 JUMP JUMPDEST SWAP3 POP DUP3 DUP3 ADD SWAP1 POP DUP1 DUP3 GT ISZERO PUSH2 0x19F6 JUMPI PUSH2 0x19F5 PUSH2 0x199C JUMP JUMPDEST JUMPDEST SWAP3 SWAP2 POP POP JUMP JUMPDEST PUSH32 0x4475706C6963617465204E494D20666F756E6420696E20706172746963697061 PUSH0 DUP3 ADD MSTORE PUSH32 0x6E74732061727261792E00000000000000000000000000000000000000000000 PUSH1 0x20 DUP3 ADD MSTORE POP JUMP JUMPDEST PUSH0 PUSH2 0x1A56 PUSH1 0x2A DUP4 PUSH2 0xC3F JUMP JUMPDEST SWAP2 POP PUSH2 0x1A61 DUP3 PUSH2 0x19FC JUMP JUMPDEST PUSH1 0x40 DUP3 ADD SWAP1 POP SWAP2 SWAP1 POP JUMP JUMPDEST PUSH0 PUSH1 0x20 DUP3 ADD SWAP1 POP DUP2 DUP2 SUB PUSH0 DUP4 ADD MSTORE PUSH2 0x1A83 DUP2 PUSH2 0x1A4A JUMP JUMPDEST SWAP1 POP SWAP2 SWAP1 POP JUMP JUMPDEST PUSH32 0x4E494D2F52616E646F6D204E756D62657220616C726561647920726567697374 PUSH0 DUP3 ADD MSTORE PUSH32 0x65726564207769746820616E6F746865722063657274696669636174652E0000 PUSH1 0x20 DUP3 ADD MSTORE POP JUMP JUMPDEST PUSH0 PUSH2 0x1AE4 PUSH1 0x3E DUP4 PUSH2 0xC3F JUMP JUMPDEST SWAP2 POP PUSH2 0x1AEF DUP3 PUSH2 0x1A8A JUMP JUMPDEST PUSH1 0x40 DUP3 ADD SWAP1 POP SWAP2 SWAP1 POP JUMP JUMPDEST PUSH0 PUSH1 0x20 DUP3 ADD SWAP1 POP DUP2 DUP2 SUB PUSH0 DUP4 ADD MSTORE PUSH2 0x1B11 DUP2 PUSH2 0x1AD8 JUMP JUMPDEST SWAP1 POP SWAP2 SWAP1 POP JUMP JUMPDEST PUSH0 PUSH1 0xA0 DUP3 ADD SWAP1 POP DUP2 DUP2 SUB PUSH0 DUP4 ADD MSTORE PUSH2 0x1B30 DUP2 DUP9 PUSH2 0xC6D JUMP JUMPDEST SWAP1 POP PUSH2 0x1B3F PUSH1 0x20 DUP4 ADD DUP8 PUSH2 0xCA5 JUMP JUMPDEST PUSH2 0x1B4C PUSH1 0x40 DUP4 ADD DUP7 PUSH2 0xCA5 JUMP JUMPDEST PUSH2 0x1B59 PUSH1 0x60 DUP4 ADD DUP6 PUSH2 0xCA5 JUMP JUMPDEST PUSH2 0x1B66 PUSH1 0x80 DUP4 ADD DUP5 PUSH2 0x11CA JUMP JUMPDEST SWAP7 SWAP6 POP POP POP POP POP POP JUMP JUMPDEST PUSH0 DUP2 SWAP1 POP SWAP3 SWAP2 POP POP JUMP JUMPDEST PUSH0 PUSH2 0x1B84 DUP3 PUSH2 0xC35 JUMP JUMPDEST PUSH2 0x1B8E DUP2 DUP6 PUSH2 0x1B70 JUMP JUMPDEST SWAP4 POP PUSH2 0x1B9E DUP2 DUP6 PUSH1 0x20 DUP7 ADD PUSH2 0xC4F JUMP JUMPDEST DUP1 DUP5 ADD SWAP2 POP POP SWAP3 SWAP2 POP POP JUMP JUMPDEST PUSH0 PUSH2 0x1BB5 DUP3 DUP6 PUSH2 0x1B7A JUMP JUMPDEST SWAP2 POP PUSH2 0x1BC1 DUP3 DUP5 PUSH2 0x1B7A JUMP JUMPDEST SWAP2 POP DUP2 SWAP1 POP SWAP4 SWAP3 POP POP POP JUMP JUMPDEST PUSH32 0x436572746966696361746520646F6573206E6F742065786973742E0000000000 PUSH0 DUP3 ADD MSTORE POP JUMP JUMPDEST PUSH0 PUSH2 0x1C01 PUSH1 0x1B DUP4 PUSH2 0xC3F JUMP JUMPDEST SWAP2 POP PUSH2 0x1C0C DUP3 PUSH2 0x1BCD JUMP JUMPDEST PUSH1 0x20 DUP3 ADD SWAP1 POP SWAP2 SWAP1 POP JUMP JUMPDEST PUSH0 PUSH1 0x20 DUP3 ADD SWAP1 POP DUP2 DUP2 SUB PUSH0 DUP4 ADD MSTORE PUSH2 0x1C2E DUP2 PUSH2 0x1BF5 JUMP JUMPDEST SWAP1 POP SWAP2 SWAP1 POP JUMP JUMPDEST PUSH0 PUSH1 0x40 DUP3 ADD SWAP1 POP PUSH2 0x1C48 PUSH0 DUP4 ADD DUP6 PUSH2 0xD18 JUMP JUMPDEST PUSH2 0x1C55 PUSH1 0x20 DUP4 ADD DUP5 PUSH2 0x11CA JUMP JUMPDEST SWAP4 SWAP3 POP POP POP JUMP INVALID LOG2 PUSH5 0x6970667358 0x22 SLT KECCAK256 SWAP9 PUSH1 0xAF 0x2F RJUMPI 0x7C18 PUSH31 0xA558B16B8061FE76DE2D5408CA9F4A291E792497ECACB88364736F6C634300 ADDMOD 0x1E STOP CALLER "
		},
		"gasEstimates": {
			"creation": {
				"codeDepositCost": "1462800",
				"executionCost": "25790",
				"totalCost": "1488590"
			},
			"external": {
				"generateCertificateId(string,string)": "infinite",
				"getCertificate(bytes32)": "infinite",
				"issueCertificate(bytes32,string,(string,uint256)[],uint256)": "infinite",
				"owner()": "2552",
				"updateCertificateStatus(bytes32,uint8)": "31530",
				"verifyCertificateByNIM(uint256)": "infinite"
			}
		},
		"methodIdentifiers": {
			"generateCertificateId(string,string)": "7fca072e",
			"getCertificate(bytes32)": "f333fe08",
			"issueCertificate(bytes32,string,(string,uint256)[],uint256)": "5c5872d3",
			"owner()": "8da5cb5b",
			"updateCertificateStatus(bytes32,uint8)": "f1141ce0",
			"verifyCertificateByNIM(uint256)": "2bca3225"
		}
	},
	"abi": [
		{
			"inputs": [],
			"stateMutability": "nonpayable",
			"type": "constructor"
		},
		{
			"anonymous": false,
			"inputs": [
				{
					"indexed": true,
					"internalType": "bytes32",
					"name": "certificateId",
					"type": "bytes32"
				},
				{
					"indexed": false,
					"internalType": "string",
					"name": "title",
					"type": "string"
				},
				{
					"indexed": false,
					"internalType": "uint256",
					"name": "issueDate",
					"type": "uint256"
				},
				{
					"indexed": false,
					"internalType": "uint256",
					"name": "expiredDate",
					"type": "uint256"
				},
				{
					"indexed": false,
					"internalType": "uint256",
					"name": "numberOfParticipants",
					"type": "uint256"
				},
				{
					"indexed": false,
					"internalType": "address",
					"name": "issuer",
					"type": "address"
				}
			],
			"name": "CertificateIssued",
			"type": "event"
		},
		{
			"anonymous": false,
			"inputs": [
				{
					"indexed": true,
					"internalType": "bytes32",
					"name": "certificateId",
					"type": "bytes32"
				},
				{
					"indexed": false,
					"internalType": "enum CertificateManager.CertificateStatus",
					"name": "newStatus",
					"type": "uint8"
				},
				{
					"indexed": false,
					"internalType": "address",
					"name": "updater",
					"type": "address"
				}
			],
			"name": "CertificateStatusUpdated",
			"type": "event"
		},
		{
			"inputs": [
				{
					"internalType": "string",
					"name": "_title",
					"type": "string"
				},
				{
					"internalType": "string",
					"name": "_nonce",
					"type": "string"
				}
			],
			"name": "generateCertificateId",
			"outputs": [
				{
					"internalType": "bytes32",
					"name": "",
					"type": "bytes32"
				}
			],
			"stateMutability": "pure",
			"type": "function"
		},
		{
			"inputs": [
				{
					"internalType": "bytes32",
					"name": "_certificateId",
					"type": "bytes32"
				}
			],
			"name": "getCertificate",
			"outputs": [
				{
					"internalType": "string",
					"name": "title",
					"type": "string"
				},
				{
					"internalType": "uint256",
					"name": "issueDate",
					"type": "uint256"
				},
				{
					"internalType": "enum CertificateManager.CertificateStatus",
					"name": "status",
					"type": "uint8"
				},
				{
					"internalType": "uint256",
					"name": "expiredDate",
					"type": "uint256"
				},
				{
					"components": [
						{
							"internalType": "string",
							"name": "name",
							"type": "string"
						},
						{
							"internalType": "uint256",
							"name": "nim",
							"type": "uint256"
						}
					],
					"internalType": "struct CertificateManager.Participant[]",
					"name": "participants",
					"type": "tuple[]"
				}
			],
			"stateMutability": "view",
			"type": "function"
		},
		{
			"inputs": [
				{
					"internalType": "bytes32",
					"name": "_certificateId",
					"type": "bytes32"
				},
				{
					"internalType": "string",
					"name": "_title",
					"type": "string"
				},
				{
					"components": [
						{
							"internalType": "string",
							"name": "name",
							"type": "string"
						},
						{
							"internalType": "uint256",
							"name": "nim",
							"type": "uint256"
						}
					],
					"internalType": "struct CertificateManager.Participant[]",
					"name": "_participants",
					"type": "tuple[]"
				},
				{
					"internalType": "uint256",
					"name": "_expiredDate",
					"type": "uint256"
				}
			],
			"name": "issueCertificate",
			"outputs": [],
			"stateMutability": "nonpayable",
			"type": "function"
		},
		{
			"inputs": [],
			"name": "owner",
			"outputs": [
				{
					"internalType": "address",
					"name": "",
					"type": "address"
				}
			],
			"stateMutability": "view",
			"type": "function"
		},
		{
			"inputs": [
				{
					"internalType": "bytes32",
					"name": "_certificateId",
					"type": "bytes32"
				},
				{
					"internalType": "enum CertificateManager.CertificateStatus",
					"name": "_newStatus",
					"type": "uint8"
				}
			],
			"name": "updateCertificateStatus",
			"outputs": [],
			"stateMutability": "nonpayable",
			"type": "function"
		},
		{
			"inputs": [
				{
					"internalType": "uint256",
					"name": "_nimOrRandomNumber",
					"type": "uint256"
				}
			],
			"name": "verifyCertificateByNIM",
			"outputs": [
				{
					"internalType": "string",
					"name": "title",
					"type": "string"
				},
				{
					"internalType": "uint256",
					"name": "issueDate",
					"type": "uint256"
				},
				{
					"internalType": "enum CertificateManager.CertificateStatus",
					"name": "status",
					"type": "uint8"
				},
				{
					"internalType": "uint256",
					"name": "expiredDate",
					"type": "uint256"
				},
				{
					"internalType": "string",
					"name": "participantName",
					"type": "string"
				},
				{
					"internalType": "bool",
					"name": "isValid",
					"type": "bool"
				}
			],
			"stateMutability": "view",
			"type": "function"
		}
	]
}